:100000000C942A000C943F000C943F000C943F0089
:100010000C943F000C943F000C943F000C943F0064
:100020000C943F000C943F000C943F000C943F0054
:100030000C943F000C943F000C943F000C943F0044
:100040000C943F000C943F000C943F000C943F0034
:100050000C943F0011241FBECFE5D8E0DEBFCDBF1A
:1000600012E0A0E6B0E0EEEBF3E502C005900D92E1
:10007000A434B107D9F70E9482110C94DD290C94A5
:100080000000EF92FF920F931F937B018C0120E001
:1000900030E040E05FE40E94ED0388238CF0C8016B
:1000A000B70120E030E040E05FE40E94B9010E9427
:1000B0004D049B01AC01205030404040504806C0E8
:1000C000C801B7010E944D049B01AC01B901CA01EE
:1000D0001F910F91FF90EF900895A0E0B0E0E3E74B
:1000E000F0E00C946129DC012B01FA019C91923023
:1000F00008F439C1EB018881823008F433C19430AF
:1001000069F4843009F02FC111969C91119789816F
:10011000981709F428C1ACE2B2E025C1843009F493
:1001200021C18230A9F4923009F01DC19A01AD01BC
:1001300088E0EA010990AE01E90109929E0181502F
:10014000C1F7E201898111969C918923818308C1BD
:10015000923009F407C112962D903C901397EB0151
:100160008A819B811496AD90BD90CD90DC901797BD
:10017000EC80FD800E811F819101281B390BB90194
:1001800037FF04C066277727621B730B6032710547
:100190000CF061C0121613066CF537014801062EEB
:1001A00004C096948794779467940A94D2F721E0D8
:1001B00030E040E050E004C0220F331F441F551FC1
:1001C0006A95D2F721503040404050402E213F21C7
:1001D00040235123211531054105510521F021E02E
:1001E00030E040E050E079018A01E628F72808294C
:1001F00019293CC0232BD1F1260E371E35014601AB
:10020000062E04C096948794779467940A94D2F744
:1002100021E030E040E050E004C0220F331F441FD3
:10022000551F6A95D2F721503040404050402A2156
:100230003B214C215D21211531054105510521F05E
:1002400021E030E040E050E059016A01A628B728DB
:10025000C828D9280BC0821593052CF01C01AA24AC
:10026000BB24650103C0EE24FF24870111969C91F5
:10027000D20111968C91981709F445C0992339F051
:10028000A80197012A193B094C095D0906C0A6017E
:1002900095012E193F09400B510B57FD08C01182E3
:1002A0003382228224833583468357831DC081E0B5
:1002B00081833382228288279927DC01821B930B5A
:1002C000A40BB50B84839583A683B7830DC0220F3F
:1002D000331F441F551F24833583468357838281F0
:1002E000938101979383828324813581468157814D
:1002F000DA01C9010197A109B1098F5F9F4FAF4F83
:10030000BF4328F30BC0918333822282EA0CFB1C8B
:100310000C1D1D1DE482F5820683178383E0808314
:10032000248135814681578157FF1AC0C901AA2708
:1003300097FDA095BA2F81709070A070B0705695FF
:10034000479537952795822B932BA42BB52B848328
:100350009583A683B7838281938101969383828359
:10036000DF0101C0D201CD01CDB7DEB7E2E10C94CF
:100370007D29A0E2B0E0EFEBF1E00C946D296983F8
:100380007A838B839C832D833E834F835887E9E058
:10039000EE2EF12CEC0EFD1ECE010196B7010E944F
:1003A00076058E010F5E1F4FCE010596B8010E94A3
:1003B00076058A8991E089278A8BC701B801AE0149
:1003C000475E5F4F0E946D000E94A104A096E6E088
:1003D0000C948929A0E2B0E0E0EFF1E00C946D29E3
:1003E00069837A838B839C832D833E834F835887D5
:1003F000F9E0EF2EF12CEC0EFD1ECE010196B701B7
:100400000E9476058E010F5E1F4FCE010596B80142
:100410000E947605C701B801AE01475E5F4F0E949A
:100420006D000E94A104A096E6E00C948929A0E248
:10043000B0E0EDE1F2E00C94612969837A838B836B
:100440009C832D833E834F835887CE010196BE0146
:10045000675F7F4F0E947605CE010596BE016F5EF5
:100460007F4F0E9476059985923088F08989823085
:10047000C8F0943019F4823051F404C0843029F467
:10048000923081F48CE292E0C6C0923049F420E0D0
:100490009A858A89981321E02A87CE010996BBC0E4
:1004A000823049F420E09A858A89981321E02A8BCA
:1004B000CE014196B0C02D843E844F8458886D880B
:1004C0007E888F88988CEE24FF248701AA24BB2481
:1004D000650140E050E060E070E0E0E0F0E0C10184
:1004E00081709070892BE9F0E60CF71C081D191D2E
:1004F0009A01AB012A0D3B1D4C1D5D1D80E090E073
:10050000A0E0B0E0E614F7040805190520F481E046
:1005100090E0A0E0B0E0BA01A901480F591F6A1F9E
:100520007B1FAA0CBB1CCC1CDD1C97FE08C081E005
:1005300090E0A0E0B0E0A82AB92ACA2ADB2A3196C6
:10054000E032F10549F0660C771C881C991C569422
:10055000479437942794C3CFFA85EA892B893C893D
:100560008B859C85280F391F2E5F3F4F17C0CA010E
:1005700081709070892B61F016950795F794E79438
:1005800080E090E0A0E0B0E8E82AF92A0A2B1B2BD3
:1005900076956795579547952F5F3F4F77FDE7CF46
:1005A0000CC0440F551F661F771F17FD4160EE0CEE
:1005B000FF1C001F111F21503040403090E05907B0
:1005C00090E0690790E4790760F32B8F3C8FDB01A3
:1005D000CA018F779070A070B07080349105A1052A
:1005E000B10561F447FD0AC0E114F10401051105EC
:1005F00029F0405C5F4F6F4F7F4F40781A8EFE1797
:1006000011F081E08A8F4D8F5E8F6F8F78A383E02A
:10061000898FCE0149960E94A104A096E2E10C9434
:100620007D29A8E1B0E0E7E1F3E00C946929698352
:100630007A838B839C832D833E834F835887B9E0D5
:10064000EB2EF12CEC0EFD1ECE010196B7010E949F
:1006500076058E010F5E1F4FCE010596B8010E94F0
:1006600076052985223008F47EC03989323010F4AD
:10067000B8017CC08A859A8989278A87243011F03D
:10068000223031F4231709F06EC06CE272E06EC0C4
:10069000343039F41D861E861F86188A1C861B86F8
:1006A00004C0323021F484E08987B7015FC02B8514
:1006B0003C858B899C89281B390B3C872B87ED84D3
:1006C000FE840F851889AD88BE88CF88D88CEA143F
:1006D000FB040C051D0540F4EE0CFF1C001F111F50
:1006E000215030403C872B8720E030E040E050E054
:1006F00080E090E0A0E0B0E460E070E0EA14FB0489
:100700000C051D0540F0282B392B4A2B5B2BEA18D2
:10071000FB080C091D09B695A79597958795EE0CD2
:10072000FF1C001F111F6F5F7F4F6F31710531F785
:10073000DA01C9018F779070A070B0708034910594
:10074000A105B10561F427FD0AC0E114F10401051A
:10075000110529F0205C3F4F4F4F5F4F20782D87C8
:100760003E874F87588BBE01675F7F4FCB010E944A
:10077000A1046896EAE00C948529A8E1B0E0E3ECD6
:10078000F3E00C946D2969837A838B839C832D839A
:100790003E834F83588789E0E82EF12CEC0EFD1E36
:1007A000CE010196B7010E9476058E010F5E1F4FA4
:1007B000CE010596B8010E9476058985823040F009
:1007C0008989823028F0C701B8010E94EE0501C076
:1007D0008FEF6896E6E00C948929A8E1B0E0E3EF9A
:1007E000F3E00C946D2969837A838B839C832D833A
:1007F0003E834F83588789E0E82EF12CEC0EFD1ED6
:10080000CE010196B7010E9476058E010F5E1F4F43
:10081000CE010596B8010E9476058985823040F0A8
:100820008989823028F0C701B8010E94EE0501C015
:100830008FEF6896E6E00C948929A8E1B0E0E3E246
:10084000F4E00C946D2969837A838B839C832D83D8
:100850003E834F83588789E0E82EF12CEC0EFD1E75
:10086000CE010196B7010E9476058E010F5E1F4FE3
:10087000CE010596B8010E9476058985823040F048
:100880008989823028F0C701B8010E94EE0501C0B5
:1008900081E06896E6E00C948929ACE0B0E0E3E5FD
:1008A000F4E00C94712969837A838B839C83CE0155
:1008B0000196BE016B5F7F4F0E9476058D8182306D
:1008C00061F1823050F1843021F48E81882351F11E
:1008D0002EC02F81388537FD20C06E812F31310524
:1008E0001CF06623F9F023C08EE190E0821B930B8D
:1008F00029853A854B855C8504C056954795379583
:1009000027958A95D2F76623B1F05095409530959A
:1009100021953F4F4F4F5F4F0EC020E030E040E049
:1009200050E009C02FEF3FEF4FEF5FE704C020E03A
:1009300030E040E050E8B901CA012C96E2E00C94A6
:100940008D29DF92EF92FF920F931F93FC01E480B9
:10095000F58006811781D1808081823048F480E063
:1009600090E0A0E1B0E0E82AF92A0A2B1B2BA5C0F1
:10097000843009F49FC0823021F4EE24FF248701E3
:1009800005C0E114F1040105110519F4E0E0F0E0FF
:1009900096C0628173819FEF623879070CF05BC06B
:1009A00022E83FEF261B370B2A3131052CF020E0DF
:1009B00030E040E050E02AC0B801A701022E04C098
:1009C00076956795579547950A94D2F781E090E020
:1009D000A0E0B0E004C0880F991FAA1FBB1F2A9592
:1009E000D2F70197A109B1098E219F21A023B1233C
:1009F0000097A105B10521F081E090E0A0E0B0E012
:100A00009A01AB01282B392B4A2B5B2BDA01C90148
:100A10008F779070A070B07080349105A105B105FA
:100A200039F427FF09C0205C3F4F4F4F5F4F04C090
:100A3000215C3F4F4F4F5F4FE0E0F0E02030A0E0FF
:100A40003A07A0E04A07A0E45A0710F0E1E0F0E01E
:100A500079018A0127C06038710564F5FB01E1580E
:100A6000FF4FD801C7018F779070A070B0708034AD
:100A70009105A105B10539F4E7FE0DC080E490E0D1
:100A8000A0E0B0E004C08FE390E0A0E0B0E0E80EAA
:100A9000F91E0A1F1B1F17FF05C016950795F7942F
:100AA000E794319687E016950795F794E7948A9531
:100AB000D1F705C0EE24FF248701EFEFF0E06E2FA1
:100AC000679566276795902F9F77D794DD24D794F5
:100AD0008E2F8695492F462B582F5D29B701CA01C5
:100AE0001F910F91FF90EF90DF900895FC01DB01C3
:100AF000408151812281622F6F7770E0221F22276F
:100B0000221F9381892F880F822B282F30E0991F75
:100B10009927991F11969C93119721153105A9F5D5
:100B2000411551056105710511F482E037C082E875
:100B30009FEF13969C938E9312979A01AB0167E0F7
:100B4000220F331F441F551F6A95D1F783E08C9302
:100B50000DC0220F331F441F551F12968D919C917B
:100B60001397019713969C938E931297203080E0F1
:100B7000380780E0480780E4580758F314962D930F
:100B80003D934D935C93179708952F3F310579F46A
:100B9000411551056105710519F484E08C930895A0
:100BA00064FF03C081E08C9312C01C9210C02F57C9
:100BB000304013963C932E93129783E08C9387E0FA
:100BC000440F551F661F771F8A95D1F770641496DE
:100BD0004D935D936D937C93179708951F93DC015C
:100BE000FB019C91923008F447C08081823008F468
:100BF00043C0943051F411961C91843099F5818151
:100C0000682F70E0611B71093FC0843021F0923081
:100C100031F48230B9F18181882389F12DC0119698
:100C20001C9111978230F1F081811817D9F4129636
:100C30002D913C911397828193818217930794F0B1
:100C400028173907BCF014968D919D910D90BC9199
:100C5000A02D2481358146815781281739074A07FD
:100C60005B0718F4112341F00AC082179307A40709
:100C7000B50740F4112319F061E070E005C06FEF93
:100C80007FEF02C060E070E0CB011F910895DF9319
:100C9000CF93CDB7DEB729970FB6F894DEBF0FBE5E
:100CA000CDBF89836A834B838B81282F30E03987BE
:100CB000288788859985009739F0288539852130DE
:100CC000310509F475C0E2C08981282F30E03F83E7
:100CD0002E838E819F818130910559F12E813F8134
:100CE000223031052CF48E819F81009769F0CEC0AF
:100CF0002E813F812230310589F18E819F818330A1
:100D0000910509F440C0C2C0AAE3B0E0EAE3F0E014
:100D10008081482F8A81282F30E081E090E0022EE8
:100D200002C0880F991F0A94E2F7809584238C9360
:100D3000ADC0A7E3B0E0E7E3F0E08081482F8A810F
:100D4000282F30E081E090E0022E02C0880F991F2A
:100D50000A94E2F7809584238C9398C0A4E3B0E0D2
:100D6000E4E3F0E08081482F8A81282F30E081E0A1
:100D700090E0022E02C0880F991F0A94E2F7809536
:100D800084238C9383C0A1E3B0E0E1E3F0E08081B1
:100D9000482F8A81282F30E081E090E0022E02C0A7
:100DA000880F991F0A94E2F7809584238C936EC074
:100DB0008981282F30E03D832C838C819D81813077
:100DC000910549F12C813D81223031052CF48C8133
:100DD0009D81009761F05AC02C813D812230310500
:100DE00071F18C819D8183309105E9F14FC0AAE3B7
:100DF000B0E0EAE3F0E08081482F8A81282F30E0DC
:100E000081E090E0022E02C0880F991F0A94E2F759
:100E1000842B8C933BC0A7E3B0E0E7E3F0E0808154
:100E2000482F8A81282F30E081E090E0022E02C016
:100E3000880F991F0A94E2F7842B8C9327C0A4E3B0
:100E4000B0E0E4E3F0E08081482F8A81282F30E091
:100E500081E090E0022E02C0880F991F0A94E2F709
:100E6000842B8C9313C0A1E3B0E0E1E3F0E0808138
:100E7000482F8A81282F30E081E090E0022E02C0C6
:100E8000880F991F0A94E2F7842B8C9329960FB64A
:100E9000F894DEBF0FBECDBFCF91DF910895DF93F1
:100EA000CF93CDB7DEB729970FB6F894DEBF0FBE4C
:100EB000CDBF89836A834B838B81282F30E03987AC
:100EC000288788859985009739F0288539852130CC
:100ED000310509F475C0E2C08981282F30E03F83D5
:100EE0002E838E819F818130910559F12E813F8122
:100EF000223031052CF48E819F81009769F0CEC09D
:100F00002E813F812230310589F18E819F8183308E
:100F1000910509F440C0C2C0ABE3B0E0EBE3F0E000
:100F20008081482F8A81282F30E081E090E0022ED6
:100F300002C0880F991F0A94E2F7809584238C934E
:100F4000ADC0A8E3B0E0E8E3F0E08081482F8A81FB
:100F5000282F30E081E090E0022E02C0880F991F18
:100F60000A94E2F7809584238C9398C0A5E3B0E0BF
:100F7000E5E3F0E08081482F8A81282F30E081E08E
:100F800090E0022E02C0880F991F0A94E2F7809524
:100F900084238C9383C0A2E3B0E0E2E3F0E080819D
:100FA000482F8A81282F30E081E090E0022E02C095
:100FB000880F991F0A94E2F7809584238C936EC062
:100FC0008981282F30E03D832C838C819D81813065
:100FD000910549F12C813D81223031052CF48C8121
:100FE0009D81009761F05AC02C813D8122303105EE
:100FF00071F18C819D8183309105E9F14FC0ABE3A4
:10100000B0E0EBE3F0E08081482F8A81282F30E0C8
:1010100081E090E0022E02C0880F991F0A94E2F747
:10102000842B8C933BC0A8E3B0E0E8E3F0E0808140
:10103000482F8A81282F30E081E090E0022E02C004
:10104000880F991F0A94E2F7842B8C9327C0A5E39D
:10105000B0E0E5E3F0E08081482F8A81282F30E07E
:1010600081E090E0022E02C0880F991F0A94E2F7F7
:10107000842B8C9313C0A2E3B0E0E2E3F0E0808124
:10108000482F8A81282F30E081E090E0022E02C0B4
:10109000880F991F0A94E2F7842B8C9329960FB638
:1010A000F894DEBF0FBECDBFCF91DF910895DF93DF
:1010B000CF9300D000D0CDB7DEB789836A83898112
:1010C000282F30E03C832B838B819C8181309105DC
:1010D000D1F02B813C81223031052CF48B819C8115
:1010E000009761F01EC02B813C812230310581F0D8
:1010F0008B819C818330910581F013C0EAE3F0E09D
:101100008A8180830EC0E7E3F0E08A81808309C092
:10111000E4E3F0E08A81808304C0E1E3F0E08A81C7
:1011200080830F900F900F900F90CF91DF910895D3
:10113000DF93CF9300D000D0CDB7DEB789836A8329
:101140008981282F30E03C832B838B819C818130E7
:101150009105D1F02B813C81223031052CF48B811B
:101160009C81009761F01EC02B813C8122303105AB
:1011700081F08B819C818330910581F013C0EBE37A
:10118000F0E08A8180830EC0E8E3F0E08A8180830A
:1011900009C0E5E3F0E08A81808304C0E2E3F0E087
:1011A0008A8180830F900F900F900F90CF91DF91E5
:1011B0000895DF93CF9300D000D0CDB7DEB78983F9
:1011C0006A838981282F30E03C832B838B819C812B
:1011D0008130910549F12B813C81223031052CF47D
:1011E0008B819C81009761F05AC02B813C81223019
:1011F000310571F18B819C8183309105E9F14FC0FC
:10120000ABE3B0E0EBE3F0E08081482F8A81282F48
:1012100030E081E090E0022E02C0880F991F0A940E
:10122000E2F784278C933BC0A8E3B0E0E8E3F0E06A
:101230008081482F8A81282F30E081E090E0022EC3
:1012400002C0880F991F0A94E2F784278C9327C065
:10125000A5E3B0E0E5E3F0E08081482F8A81282F04
:1012600030E081E090E0022E02C0880F991F0A94BE
:10127000E2F784278C9313C0A2E3B0E0E2E3F0E04E
:101280008081482F8A81282F30E081E090E0022E73
:1012900002C0880F991F0A94E2F784278C930F905D
:1012A0000F900F900F90CF91DF910895DF93CF9320
:1012B00000D000D00F92CDB7DEB78A836B838A81CE
:1012C000282F30E03D832C834C815D8141305105D6
:1012D00041F18C819D818230910534F42C813D81D6
:1012E0002115310561F052C04C815D8142305105BC
:1012F00051F18C819D8183309105B9F147C0E9E3BB
:10130000F0E08081282F30E08B81882F90E0A901C8
:1013100002C0559547958A95E2F7CA018170898385
:1013200035C0E6E3F0E08081282F30E08B81882F04
:1013300090E0A90102C0559547958A95E2F7CA0148
:101340008170898323C0E3E3F0E08081282F30E0BF
:101350008B81882F90E0A90102C0559547958A9509
:10136000E2F7CA018170898311C0E0E3F0E0808177
:10137000282F30E08B81882F90E0A90102C055957D
:1013800047958A95E2F7CA018170898389810F9018
:101390000F900F900F900F90CF91DF910895DF93F2
:1013A000CF93CDB7DEB782E060EF0E94570882E0AE
:1013B0006FEF0E949808CF91DF910895DF93CF934C
:1013C000CDB7DEB7AF970FB6F894DEBF0FBECDBF77
:1013D0008FEF8A8BCE0143969CA78BA7E4E3F2E0C4
:1013E000FEA7EDA7F0E1FFA7EDA5FEA500808DA566
:1013F0009EA501969EA78DA7EBA5FCA500828BA5B7
:101400009CA501969CA78BA79FA591509FA7EFA590
:10141000EE2351F784E08BA385E08CA386E08DA3B7
:1014200087E08EA31FA281E088A782E089A783E0DE
:101430008AA7188AD2C08889282F30E0CE018396E7
:10144000FC01E20FF31F908182E0692F40E00E94CF
:101450004F071F86ADC08F85282F30E0CE018796BD
:10146000FC01E20FF31F908182E0692F0E94560970
:10147000898B8989882309F098C08F85282F30E0CF
:101480008889482F50E0220F331F220F331FCE01CF
:101490000196820F931F840F951FFC017296808125
:1014A0008A8B0EC08F85282F30E0CE018796FC01F5
:1014B000E20FF31F908182E0692F0E945609898B09
:1014C0008989882379F380E090E0A0E2B1E48B87FA
:1014D0009C87AD87BE876B857C858D859E8520E04A
:1014E00030E04AE755E40E941702DC01CB018F830C
:1014F0009887A987BA876F81788589859A8520E042
:1015000030E040E85FE30E941D0488232CF481E072
:1015100090E09E838D833FC06F81788589859A8511
:1015200020E03FEF4FE757E40E94BD0318164CF54B
:101530006B857C858D859E8520E030E040E251E41E
:101540000E941702DC01CB01BC01CD010E944100C9
:10155000DC01CB019E838D830FC080E991E09C83E9
:101560008B838B819C810197F1F79C838B838D8189
:101570009E8101979E838D838D819E81009769F75F
:1015800014C06F81788589859A850E944100DC01AD
:10159000CB019E838D838D819E819A8389838981EE
:1015A0009A810197F1F79A8389838F858F5F8F875F
:1015B0008F85843008F44FCF8889282F30E0CE0102
:1015C0008396FC01E20FF31F908182E0692F41E0D6
:1015D0000E944F0788898F5F888B8889843008F440
:1015E0002ACF8A89AF960FB6F894DEBF0FBECDBF63
:1015F000CF91DF910895DF93CF93CDB7DEB7699791
:101600000FB6F894DEBF0FBECDBF898F81E061E0D9
:1016100040E00E944F0781E062E040E00E944F07F7
:1016200080E0698D0E94980881E060E041E00E94BE
:101630004F0780E090E0A0E8BFE38D8B9E8BAF8BDF
:10164000B88F6D897E898F89988D2BEA3AEA4AEAAC
:1016500050E40E941702DC01CB01898B9A8BAB8B83
:10166000BC8B69897A898B899C8920E030E040E8CD
:101670005FE30E941D0488231CF481E0888B91C0E5
:1016800069897A898B899C8920E030E04FE753E4AF
:101690000E94BD0318160CF07BC06D897E898F896E
:1016A000988D20E030E04AE754E40E941103DC0109
:1016B000CB018C879D87AE87BF876C857D858E85A6
:1016C0009F8520E030E04AE755E40E941702DC01E4
:1016D000CB0188879987AA87BB87688579858A85A2
:1016E0009B8520E030E040E85FE30E941D048823F2
:1016F0002CF481E090E09F838E833FC068857985DC
:101700008A859B8520E03FEF4FE757E40E94BD03A9
:1017100018164CF56C857D858E859F8520E030E020
:1017200040E251E40E941702DC01CB01BC01CD0173
:101730000E944100DC01CB019F838E830FC080E9B2
:1017400091E09D838C838C819D810197F1F79D832E
:101750008C838E819F8101979F838E838E819F8151
:10176000009769F724C0688579858A859B850E94E2
:101770004100DC01CB019F838E838E819F819B83FF
:101780008A838A819B810197F1F79B838A830FC0AB
:1017900069897A898B899C890E944100DC01CB018F
:1017A000888B8889898389818A95F1F7898381E08B
:1017B00060E040E00E944F0769960FB6F894DEBFE4
:1017C0000FBECDBFCF91DF910895DF93CF93CDB7FB
:1017D000DEB769970FB6F894DEBF0FBECDBF898F15
:1017E00081E061E041E00E944F0781E062E040E07B
:1017F0000E944F0780E0698D0E94980881E060E0B8
:1018000041E00E944F0780E090E0A0E8BFE38D8BAD
:101810009E8BAF8BB88F6D897E898F89988D2BEACF
:101820003AEA4AEA50E40E941702DC01CB01898BB4
:101830009A8BAB8BBC8B69897A898B899C8920E0D8
:1018400030E040E85FE30E941D0488231CF481E03F
:10185000888B91C069897A898B899C8920E030E0E6
:101860004FE753E40E94BD0318160CF07BC06D894E
:101870007E898F89988D20E030E04AE754E40E9409
:101880001103DC01CB018C879D87AE87BF876C85F8
:101890007D858E859F8520E030E04AE755E40E94F3
:1018A0001702DC01CB0188879987AA87BB876885E7
:1018B00079858A859B8520E030E040E85FE30E94DF
:1018C0001D0488232CF481E090E09F838E833FC029
:1018D000688579858A859B8520E03FEF4FE757E44F
:1018E0000E94BD0318164CF56C857D858E859F85FD
:1018F00020E030E040E251E40E941702DC01CB011D
:10190000BC01CD010E944100DC01CB019F838E838D
:101910000FC080E991E09D838C838C819D8101972C
:10192000F1F79D838C838E819F8101979F838E83A6
:101930008E819F81009769F724C0688579858A85A3
:101940009B850E944100DC01CB019F838E838E81A9
:101950009F819B838A838A819B810197F1F79B8377
:101960008A830FC069897A898B899C890E9441008A
:10197000DC01CB01888B8889898389818A95F1F77D
:10198000898381E060E040E00E944F0769960FB6CE
:10199000F894DEBF0FBECDBFCF91DF9108950F93B6
:1019A0001F93DF93CF93CDB7DEB7CC54D0400FB6A3
:1019B000F894DEBF0FBECDBF80E06FEF0E945708E6
:1019C00081E060E041E00E94470681E062E041E0A2
:1019D0000E94470681E061E041E00E944706FE0167
:1019E000E75BFF4F80E090E0ACE0B2E4808391835E
:1019F000A283B3838E010B5B1F4FFE01E75BFF4F9A
:101A0000608171818281938120E030E04AE755E472
:101A10000E941702DC01CB01F80180839183A2832D
:101A2000B383FE01EB5BFF4F608171818281938103
:101A300020E030E040E85FE30E941D04882344F486
:101A4000FE01ED5BFF4F81E090E09183808364C0F5
:101A5000FE01EB5BFF4F608171818281938120E009
:101A60003FEF4FE757E40E94BD0318160CF043C048
:101A7000FE01E75BFF4F608171818281938120E0ED
:101A800030E040E251E40E941702DC01CB018E01FC
:101A90000D5B1F4FBC01CD010E944100DC01CB0159
:101AA000F801918380831FC0FE01EF5BFF4F80E947
:101AB00091E091838083FE01EF5BFF4F80819181F4
:101AC0000197F1F7FE01EF5BFF4F91838083DE0109
:101AD000AD5BBF4FFE01ED5BFF4F808191810197B0
:101AE00011969C938E93FE01ED5BFF4F8081918157
:101AF0000097D1F624C08E010D5B1F4FFE01EB5BFA
:101B0000FF4F60817181828193810E944100DC01DD
:101B1000CB01F80191838083FE01ED5BFF4F808153
:101B20009181FE01FF9691838083FE01FF96808163
:101B300091810197F1F7FE01FF969183808388E3FD
:101B40000E94FB0A80E090E0A8E4B2E48BAF9CAF77
:101B5000ADAFBEAF6BAD7CAD8DAD9EAD2BEA3AEABD
:101B60004AEA50E40E941702DC01CB018FAB98AF28
:101B7000A9AFBAAF6FA978AD89AD9AAD20E030E0DA
:101B800040E85FE30E941D0488231CF481E08EABD3
:101B900091C06FA978AD89AD9AAD20E030E04FE7F4
:101BA00053E40E94BD0318160CF07BC06BAD7CADF6
:101BB0008DAD9EAD20E030E04AE754E40E94110371
:101BC000DC01CB018AAB9BABACABBDAB6AA97BA9FB
:101BD0008CA99DA920E030E04AE755E40E94170255
:101BE000DC01CB018EA79FA7A8ABB9AB6EA57FA5E3
:101BF00088A999A920E030E040E85FE30E941D0435
:101C000088232CF481E090E09DA78CA73FC06EA5AF
:101C10007FA588A999A920E03FEF4FE757E40E94EC
:101C2000BD0318164CF56AA97BA98CA99DA920E0D3
:101C300030E040E251E40E941702DC01CB01BC011C
:101C4000CD010E944100DC01CB019DA78CA70FC0F4
:101C500080E991E09BA78AA78AA59BA50197F1F748
:101C60009BA78AA78CA59DA501979DA78CA78CA54E
:101C70009DA5009769F724C06EA57FA588A999A99D
:101C80000E944100DC01CB019DA78CA78CA59DA5DE
:101C900099A788A788A599A50197F1F799A788A77B
:101CA0000FC06FA978AD89AD9AAD0E944100DC01EB
:101CB000CB018EAB8EA98FA38FA18A95F1F78FA34D
:101CC0008CE00E94FB0A80E090E0A8E4B2E48BA3E1
:101CD0009CA3ADA3BEA36BA17CA18DA19EA12BEA69
:101CE0003AEA4AEA50E40E941702DC01CB018F8FE6
:101CF00098A3A9A3BAA36F8D78A189A19AA120E086
:101D000030E040E85FE30E941D0488231CF481E07A
:101D10008E8F91C06F8D78A189A19AA120E030E0CB
:101D20004FE753E40E94BD0318160CF07BC06BA173
:101D30007CA18DA19EA120E030E04AE754E40E94FE
:101D40001103DC01CB018A8F9B8FAC8FBD8F6A8D15
:101D50007B8D8C8D9D8D20E030E04AE755E40E941C
:101D60001702DC01CB018E8B9F8BA88FB98F6E89F8
:101D70007F89888D998D20E030E040E85FE30E9404
:101D80001D0488232CF481E090E09D8B8C8B3FC058
:101D90006E897F89888D998D20E03FEF4FE757E46A
:101DA0000E94BD0318164CF56A8D7B8D8C8D9D8D20
:101DB00020E030E040E251E40E941702DC01CB0158
:101DC000BC01CD010E944100DC01CB019D8B8C8BBD
:101DD0000FC080E991E09B8B8A8B8A899B89019750
:101DE000F1F79B8B8A8B8C899D8901979D8B8C8BBE
:101DF0008C899D89009769F724C06E897F89888DB9
:101E0000998D0E944100DC01CB019D8B8C8B8C89CC
:101E10009D89998B888B888999890197F1F7998B8E
:101E2000888B0FC06F8D78A189A19AA10E94410073
:101E3000DC01CB018E8F8E8D8F878F858A95F1F790
:101E40008F8781E00E94FB0A80E090E0A0E0B0E490
:101E50008B879C87AD87BE876B857C858D859E85AE
:101E600020E030E04AE755E40E941702DC01CB0194
:101E70008F839887A987BA876F81788589859A85A6
:101E800020E030E040E85FE30E941D0488232CF44A
:101E900081E090E09E838D833FC06F817885898546
:101EA0009A8520E03FEF4FE757E40E94BD031816E4
:101EB0004CF56B857C858D859E8520E030E040E289
:101EC00051E40E941702DC01CB01BC01CD010E944C
:101ED0004100DC01CB019E838D830FC080E991E03E
:101EE0009C838B838B819C810197F1F79C838B83EF
:101EF0008D819E8101979E838D838D819E81009728
:101F000069F714C06F81788589859A850E944100A0
:101F1000DC01CB019E838D838D819E819A83898391
:101F200089819A810197F1F79A83898386E00E94DB
:101F3000FB0AC45BDF4F0FB6F894DEBF0FBECDBF08
:101F4000CF91DF911F910F910895DF93CF9300D030
:101F5000CDB7DEB79A8389830AC0E981FA8180818F
:101F60000E94E50B89819A8101969A838983E98190
:101F7000FA818081882389F70F900F90CF91DF91AC
:101F80000895DF93CF93CDB7DEB762970FB6F8947D
:101F9000DEBF0FBECDBF8F87688B80E090E0A0E0F2
:101FA000B0E48B879C87AD87BE876B857C858D85EC
:101FB0009E8520E030E04AE755E40E941702DC01EC
:101FC000CB018F839887A987BA876F8178858985A8
:101FD0009A8520E030E040E85FE30E941D048823FA
:101FE0002CF481E090E09E838D833FC06F817885E3
:101FF00089859A8520E03FEF4FE757E40E94BD03B3
:1020000018164CF56B857C858D859E8520E030E02B
:1020100040E251E40E941702DC01CB01BC01CD017A
:102020000E944100DC01CB019E838D830FC080E9BB
:1020300091E09C838B838B819C810197F1F79C833A
:102040008B838D819E8101979E838D838D819E815F
:10205000009769F714C06F81788589859A850E94F9
:102060004100DC01CB019E838D838D819E819A830B
:10207000898389819A810197F1F79A8389838F8572
:10208000282F30E03A8B298B89899A8981309105F4
:1020900031F029893A892230310531F009C0888927
:1020A00080580E94FB0A04C0888980540E94FB0A61
:1020B00062960FB6F894DEBF0FBECDBFCF91DF9111
:1020C0000895DF93CF93CDB7DEB7A4970FB6F894FA
:1020D000DEBF0FBECDBF69A37AA38BA39CA389A14A
:1020E0009AA19E012F5F3F4FB9014AE050E00E9444
:1020F0009829CE0101960E94A50FA4960FB6F894D8
:10210000DEBF0FBECDBFCF91DF910895DF93CF9398
:10211000CDB7DEB781E065E041E00E94470681E08F
:1021200066E040E00E94470681E067E041E00E94EF
:10213000470681E064E041E00E94470681E064E0F8
:1021400041E00E944F07EDE2F0E08EE58083CF9101
:10215000DF910895DF93CF930F92CDB7DEB78983D8
:1021600081E064E040E00E944F07EFE2F0E0898107
:102170008083EEE2F0E080818823DCF781E064E098
:1021800041E00E944F07EFE2F0E080810F90CF9195
:10219000DF910895DF93CF93CDB7DEB781E065E09F
:1021A00040E00E94470681E066E041E00E94470669
:1021B00081E067E040E00E94470681E064E040E0A3
:1021C0000E944706EDE2F0E08EE48083CF91DF913C
:1021D0000895DF93CF930F92CDB7DEB78983EFE2F7
:1021E000F0E089818083EEE2F0E080818823DCF7F3
:1021F000EFE2F0E080810F90CF91DF910895DF93BF
:10220000CF9300D00F92CDB7DEB780E88B8387E6FF
:1022100090E09A838983E9E2F0E089818083E0E4B9
:10222000F0E089819A81892F99278083ABE2B0E021
:10223000EBE2F0E080818D7F8C93ABE2B0E0EBE2EB
:10224000F0E080818E7F8C93AAE2B0E0EAE2F0E0D9
:10225000808180618C93AAE2B0E0EAE2F0E08081C4
:1022600088608C93AAE2B0E0EAE2F0E080818B7FA4
:102270008C938B8182608B838B8184608B838B8139
:102280008F7B8B838B818F7E8B838B818F7D8B83E9
:102290008B8188608B83E0E4F0E08B8180830F90FA
:1022A0000F900F90CF91DF910895DF93CF930F920E
:1022B000CDB7DEB78983EBE2F0E080818295869529
:1022C0008770882F90E0817090700097A1F3ECE206
:1022D000F0E0898180830F90CF91DF910895DF93A3
:1022E000CF930F92CDB7DEB7EBE2F0E08081882389
:1022F000DCF7ECE2F0E08081898389810F90CF9157
:10230000DF9108950F931F93DF93CF93CDB7DEB77F
:10231000CE52D1400FB6F894DEBF0FBECDBFFE0146
:10232000ED5EFE4F1082FE01EE5EFE4F81E0808387
:10233000FE01EF5EFE4F81E08083FE01E05FFE4F15
:1023400081E08083FE01E15FFE4F81E08083FE013A
:10235000E25FFE4F81E08083FE01E35FFE4F8FEF7F
:102360008083FE01E45FFE4F8FEF8083FE01E55F17
:10237000FE4F8FEF80830E94FF100E94CF090E94C2
:10238000CF0C0E94861083E060E040E00E94470688
:1023900083E061E041E00E944706FE01E95FFE4FF5
:1023A00080E090E8ACEFB3E480839183A283B383B1
:1023B0008E010D5F1E4FFE01E95FFE4F608171814E
:1023C0008281938120E030E04AE755E40E941702C1
:1023D000DC01CB01F80180839183A283B383FE01EA
:1023E000ED5FFE4F608171818281938120E030E05A
:1023F00040E85FE30E941D04882344F4FE01EF5F80
:10240000FE4F81E090E09183808364C0FE01ED5F28
:10241000FE4F608171818281938120E03FEF4FE721
:1024200057E40E94BD0318160CF043C0FE01E95F9B
:10243000FE4F608171818281938120E030E040E233
:1024400051E40E941702DC01CB018E010F5F1E4F89
:10245000BC01CD010E944100DC01CB01F801918358
:1024600080831FC0FE01E150FF4F80E991E091831E
:102470008083FE01E150FF4F808191810197F1F748
:10248000FE01E150FF4F91838083DE01AF5FBE4FBD
:10249000FE01EF5FFE4F80819181019711969C9321
:1024A0008E93FE01EF5FFE4F808191810097D1F600
:1024B00027C08E010F5F1E4FFE01ED5FFE4F608152
:1024C0007181828193810E944100DC01CB01F8017E
:1024D00091838083DE01A350BF4FFE01EF5FFE4F6B
:1024E000808191818D939C93FE01E350FF4F808109
:1024F00091810197F1F7FE01E350FF4F91838083B3
:102500000E946F11FE01ED5EFE4F8083FE01ED5EC5
:10251000FE4F8081813081F481E00E94FB0A80E6D9
:1025200090E00E94A50F82E060E00E94C10F8EE65D
:1025300090E00E94A50F2FC0FE01ED5EFE4F80814E
:10254000823081F481E00E94FB0A80E690E00E94E4
:10255000A50F82E060E00E94C10F8DE790E00E942D
:10256000A50F19C0FE01ED5EFE4F8081833081F41E
:1025700081E00E94FB0A8BE890E00E94A50F82E0B8
:1025800060E00E94C10F8BE990E00E94A50F03C09C
:1025900081E00E94FB0AFE01E35FFE4F8FEF808324
:1025A00006C00E94DE09FE01E35FFE4F8083FE014C
:1025B000E35FFE4F80818F3FA1F3FE01E35FFE4F9B
:1025C00080818F3F09F4E9CEFE01E35FFE4F8081F9
:1025D0008D3309F0E2CE81E00E94FB0A87EA90E0A9
:1025E0000E94A50F82E060E00E94C10F84EB90E0A2
:1025F0000E94A50FFE01E35FFE4F8FEF808306C0B0
:102600000E94DE09FE01E35FFE4F8083FE01E35F6F
:10261000FE4F80818F3FA1F3FE01E35FFE4F80817B
:102620008F3F11F40C945229FE01E35FFE4F80812D
:10263000803311F00C94FF2181E00E94FB0A85ECAD
:1026400090E00E94A50F82E060E00E94C10F86ED3D
:1026500090E00E94A50FFE01E45FFE4F8FEF8083A4
:1026600006C00E94DE09FE01E45FFE4F8083FE018A
:10267000E45FFE4F80818F3FA1F3FE01E45FFE4FD8
:1026800080818F3F11F40C94F121FE01E45FFE4F35
:102690008081282F30E0C35DDE4F39832883CD52FF
:1026A000D140C35DDE4F88819981CD52D1408330C6
:1026B000910509F419C6C35DDE4FE881F981CD5259
:1026C000D140E430F105ACF4C35DDE4F288139819F
:1026D000CD52D1402130310519F1C35DDE4F8881E3
:1026E0009981CD52D1408230910509F40BC30C94ED
:1026F0002021C35DDE4FE881F981CD52D140E43025
:10270000F10509F47CC7C35DDE4F28813981CD52C4
:10271000D1402033310511F40C9405210C94202173
:1027200081E00E94FB0A87EE90E00E94A50F82E004
:1027300060E00E94C10F84EF90E00E94A50FFE01AF
:10274000E55FFE4F8FEF808306C00E94DE09FE0129
:10275000E55FFE4F8083FE01E55FFE4F80818F3F86
:10276000A1F3FE01E55FFE4F80818F3F41F3FE0143
:10277000E55FFE4F8081E82FF0E0C55DDE4FF98315
:10278000E883CB52D140C55DDE4F28813981CB52E1
:10279000D1402230310551F1C55DDE4F88819981EC
:1027A000CB52D14083309105C1F1C55DDE4FE88148
:1027B000F981CB52D140E130F10509F003C181E04C
:1027C0000E94FB0A8FE40E94AA10FE01EC5EFE4FFD
:1027D000808386E091E00E94A50F82E060E00E9485
:1027E000C10F84EF90E00E94A50F7EC281E00E949D
:1027F000FB0A86E40E94AA10FE01EC5EFE4F808375
:1028000087EE90E00E94A50F82E060E00E94C10F79
:1028100084EF90E00E94A50F67C281E00E94FB0A4E
:1028200085EC90E00E94A50F82E060E00E94C10F5D
:1028300086ED90E00E94A50F86E40E94AA10FE019A
:10284000EC5EFE4F8083FE01E750FF4F80E090E09A
:10285000A8ECB2E480839183A283B3838E010B50F2
:102860001F4FFE01E750FF4F60817181828193818C
:1028700020E030E04AE755E40E941702DC01CB017A
:10288000F80180839183A283B383FE01EB50FF4F55
:10289000608171818281938120E030E040E85FE3D4
:1028A0000E941D04882344F4FE01ED50FF4F81E097
:1028B00090E09183808364C0FE01EB50FF4F608104
:1028C00071818281938120E03FEF4FE757E40E94BE
:1028D000BD0318160CF043C0FE01E750FF4F6081A6
:1028E00071818281938120E030E040E251E40E94D6
:1028F0001702DC01CB018E010D501F4FBC01CD0131
:102900000E944100DC01CB01F801918380831FC04C
:10291000FE01EF50FF4F80E991E091838083FE013B
:10292000EF50FF4F808191810197F1F7FE01EF5049
:10293000FF4F91838083DE01AD50BF4FFE01ED500C
:10294000FF4F80819181019711969C938E93FE0198
:10295000ED50FF4F808191810097D1F627C08E0105
:102960000D501F4FFE01EB50FF4F6081718182813E
:1029700093810E944100DC01CB01F80191838083A7
:10298000DE01A151BF4FFE01ED50FF4F80819181CB
:102990008D939C93FE01E151FF4F808191810197BE
:1029A000F1F7FE01E151FF4F918380838AE20E949B
:1029B000AA10FE01EC5EFE4F8083FE01EE5EFE4F2C
:1029C000108292C181E00E94FB0A82E191E00E94A4
:1029D000A50F82E060E00E94C10F80E291E00E94BA
:1029E000A50FFE01E551FF4F80E090E0AAEFB3E4B0
:1029F00080839183A283B3838E0109511F4FFE010F
:102A0000E551FF4F608171818281938120E030E048
:102A10004AE755E40E941702DC01CB01F8018083EC
:102A20009183A283B383FE01E951FF4F60817181DD
:102A30008281938120E030E040E85FE30E941D0442
:102A4000882344F4FE01EB51FF4F81E090E0918335
:102A5000808364C0FE01E951FF4F608171818281F2
:102A6000938120E03FEF4FE757E40E94BD03181623
:102A70000CF043C0FE01E551FF4F608171818281FE
:102A8000938120E030E040E251E40E941702DC0133
:102A9000CB018E010B511F4FBC01CD010E944100A3
:102AA000DC01CB01F801918380831FC0FE01ED5151
:102AB000FF4F80E991E091838083FE01ED51FF4F4C
:102AC000808191810197F1F7FE01ED51FF4F9183D4
:102AD0008083DE01AB51BF4FFE01EB51FF4F808180
:102AE0009181019711969C938E93FE01EB51FF4FBC
:102AF000808191810097D1F627C08E010B511F4F25
:102B0000FE01E951FF4F60817181828193810E94B2
:102B10004100DC01CB01F80191838083DE01AF51DC
:102B2000BF4FFE01EB51FF4F808191818D939C93AC
:102B3000FE01EF51FF4F808191810197F1F7FE0176
:102B4000EF51FF4F9183808381E00E94FB0A86E46E
:102B50000E94AA10FE01EC5EFE4F8083FE01E3524C
:102B6000FF4F80E090E0A8ECB2E480839183A283E1
:102B7000B3838E0107521F4FFE01E352FF4F608166
:102B800071818281938120E030E04AE755E40E9420
:102B90001702DC01CB01F80180839183A283B38308
:102BA000FE01E752FF4F608171818281938120E0B5
:102BB00030E040E85FE30E941D04882344F4FE01F6
:102BC000E952FF4F81E090E09183808364C0FE0171
:102BD000E752FF4F608171818281938120E03FEF56
:102BE0004FE757E40E94BD0318160CF043C0FE01E6
:102BF000E352FF4F608171818281938120E030E058
:102C000040E251E40E941702DC01CB018E0109521F
:102C10001F4FBC01CD010E944100DC01CB01F80136
:102C2000918380831FC0FE01EB52FF4F80E991E04A
:102C300091838083FE01EB52FF4F80819181019748
:102C4000F1F7FE01EB52FF4F91838083DE01A95221
:102C5000BF4FFE01E952FF4F80819181019711968C
:102C60009C938E93FE01E952FF4F808191810097E2
:102C7000D1F627C08E0109521F4FFE01E752FF4FC8
:102C800060817181828193810E944100DC01CB01CE
:102C9000F80191838083DE01AD52BF4FFE01E952FE
:102CA000FF4F808191818D939C93FE01ED52FF4FE8
:102CB000808191810197F1F7FE01ED52FF4F9183E1
:102CC00080838AE20E94AA10FE01EC5EFE4F8083A0
:102CD00087EE90E00E94A50F82E060E00E94C10FA5
:102CE00084EF90E00E94A50FFE01EE5EFE4F808112
:102CF000882309F024CDFE01EE5EFE4F81E0808343
:102D00000C94F12181E00E94FB0A8DE291E00E9487
:102D1000A50F82E060E00E94C10F84EF90E00E9466
:102D2000A50FFE01E55FFE4F8FEF808306C00E9476
:102D3000DE09FE01E55FFE4F8083FE01E55FFE4F89
:102D400080818F3FA1F3FE01E55FFE4F80818F3FC1
:102D500041F3FE01E55FFE4F8081282F30E0C75D23
:102D6000DE4F39832883C952D140C75DDE4F888149
:102D70009981C952D1408230910551F1C75DDE4F32
:102D8000E881F981C952D140E330F105C1F1C75D55
:102D9000DE4F28813981C952D1402130310509F0F7
:102DA00003C181E00E94FB0A82E30E94AA10FE0197
:102DB000EC5EFE4F80838AE391E00E94A50F82E0E3
:102DC00060E00E94C10F84EF90E00E94A50F7EC2D8
:102DD00081E00E94FB0A83E30E94AA10FE01EC5EE0
:102DE000FE4F80838DE291E00E94A50F82E060E0BB
:102DF0000E94C10F84EF90E00E94A50F67C281E09E
:102E00000E94FB0A85EC90E00E94A50F82E060E042
:102E10000E94C10F86ED90E00E94A50F83E30E94FF
:102E2000AA10FE01EC5EFE4F8083FE01E153FF4FCE
:102E300080E090E0A8ECB2E480839183A283B38326
:102E40008E0105531F4FFE01E153FF4F60817181D9
:102E50008281938120E030E04AE755E40E94170226
:102E6000DC01CB01F80180839183A283B383FE014F
:102E7000E553FF4F608171818281938120E030E0D2
:102E800040E85FE30E941D04882344F4FE01E753F9
:102E9000FF4F81E090E09183808364C0FE01E553A1
:102EA000FF4F608171818281938120E03FEF4FE786
:102EB00057E40E94BD0318160CF043C0FE01E15315
:102EC000FF4F608171818281938120E030E040E298
:102ED00051E40E941702DC01CB018E0107531F4F02
:102EE000BC01CD010E944100DC01CB01F8019183BE
:102EF00080831FC0FE01E953FF4F80E991E0918379
:102F00008083FE01E953FF4F808191810197F1F7A2
:102F1000FE01E953FF4F91838083DE01A753BF4F2A
:102F2000FE01E753FF4F80819181019711969C9399
:102F30008E93FE01E753FF4F808191810097D1F678
:102F400027C08E0107531F4FFE01E553FF4F6081DD
:102F50007181828193810E944100DC01CB01F801E3
:102F600091838083DE01AB53BF4FFE01E753FF4FD8
:102F7000808191818D939C93FE01EB53FF4F808163
:102F800091810197F1F7FE01EB53FF4F918380830D
:102F90008AE20E94AA10FE01EC5EFE4F8083FE01D1
:102FA000EE5EFE4F108292C181E00E94FB0A82E138
:102FB00091E00E94A50F82E060E00E94C10F80E2D4
:102FC00091E00E94A50FFE01EF53FF4F80E090E0DB
:102FD000AAEFB3E480839183A283B3838E01035469
:102FE0001F4FFE01EF53FF4F6081718182819381FA
:102FF00020E030E04AE755E40E941702DC01CB01F3
:10300000F80180839183A283B383FE01E354FF4FD1
:10301000608171818281938120E030E040E85FE34C
:103020000E941D04882344F4FE01E554FF4F81E013
:1030300090E09183808364C0FE01E354FF4F608180
:1030400071818281938120E03FEF4FE757E40E9436
:10305000BD0318160CF043C0FE01EF53FF4F608113
:1030600071818281938120E030E040E251E40E944E
:103070001702DC01CB018E0105541F4FBC01CD01AD
:103080000E944100DC01CB01F801918380831FC0C5
:10309000FE01E754FF4F80E991E091838083FE01B8
:1030A000E754FF4F808191810197F1F7FE01E754CA
:1030B000FF4F91838083DE01A554BF4FFE01E5548D
:1030C000FF4F80819181019711969C938E93FE0111
:1030D000E554FF4F808191810097D1F627C08E0182
:1030E00005541F4FFE01E354FF4F608171818281BF
:1030F00093810E944100DC01CB01F8019183808320
:10310000DE01A954BF4FFE01E554FF4F808191813C
:103110008D939C93FE01E954FF4F8081918101972B
:10312000F1F7FE01E954FF4F9183808381E00E9413
:10313000FB0A83E30E94AA10FE01EC5EFE4F80832F
:10314000FE01ED54FF4F80E090E0A8ECB2E48083F4
:103150009183A283B3838E0101551F4FFE01ED546D
:10316000FF4F608171818281938120E030E04AE7E6
:1031700055E40E941702DC01CB01F80180839183A2
:10318000A283B383FE01E155FF4F6081718182818B
:10319000938120E030E040E85FE30E941D04882333
:1031A00044F4FE01E355FF4F81E090E0918380837A
:1031B00064C0FE01E155FF4F60817181828193817E
:1031C00020E03FEF4FE757E40E94BD0318160CF0D4
:1031D00043C0FE01ED54FF4F608171818281938174
:1031E00020E030E040E251E40E941702DC01CB0114
:1031F0008E0103551F4FBC01CD010E944100DC012F
:10320000CB01F801918380831FC0FE01E555FF4F7C
:1032100080E991E091838083FE01E555FF4F808135
:1032200091810197F1F7FE01E555FF4F918380836E
:10323000DE01A355BF4FFE01E355FF4F8081918111
:10324000019711969C938E93FE01E355FF4F808169
:1032500091810097D1F627C08E0103551F4FFE01C3
:10326000E155FF4F60817181828193810E9441000D
:10327000DC01CB01F80191838083DE01A755BF4FAC
:10328000FE01E355FF4F808191818D939C93FE0158
:10329000E755FF4F808191810197F1F7FE01E755D6
:1032A000FF4F918380838AE20E94AA10FE01EC5EA8
:1032B000FE4F80838DE291E00E94A50F82E060E0E6
:1032C0000E94C10F84EF90E00E94A50FFE01EE5E08
:1032D000FE4F8081882309F024CDFE01EE5EFE4F73
:1032E00081E080830C94F12181E00E94FB0A86E456
:1032F00091E00E94A50F82E060E00E94C10F84EF80
:1033000090E00E94A50FFE01E55FFE4F8FEF8083E6
:1033100006C00E94DE09FE01E55FFE4F8083FE01CC
:10332000E55FFE4F80818F3FA1F3FE01E55FFE4F19
:1033300080818F3F41F3FE01E55FFE4F8081282FA2
:1033400030E0C95DDE4F39832883C752D140C95D63
:10335000DE4F88819981C752D1408230910551F169
:10336000C95DDE4FE881F981C752D140E330F105F4
:10337000C1F1C95DDE4F28813981C752D14021306A
:10338000310509F050C081E00E94FB0A84E30E94ED
:10339000AA10FE01EC5EFE4F808383E591E00E945F
:1033A000A50F82E060E00E94C10F84EF90E00E94D0
:1033B000A50F18C181E00E94FB0A85E30E94AA10B4
:1033C000FE01EC5EFE4F808386E491E00E94A50F33
:1033D00082E060E00E94C10F84EF90E00E94A50FA0
:1033E00001C181E00E94FB0A85EC90E00E94A50FDC
:1033F00082E060E00E94C10F86ED90E00E94A50F80
:1034000085E30E94AA10FE01EC5EFE4F80838AE2F3
:103410000E94AA10FE01EC5EFE4F8083FE01EE5E6C
:10342000FE4F1082DFC081E00E94FB0A82E191E042
:103430000E94A50F82E060E00E94C10F80E291E04F
:103440000E94A50FFE01EB55FF4F80E090E0AAEF30
:10345000B3E480839183A283B3838E010F551F4F02
:10346000FE01EB55FF4F608171818281938120E0E5
:1034700030E04AE755E40E941702DC01CB01F80175
:1034800080839183A283B383FE01EF55FF4F608158
:1034900071818281938120E030E040E85FE30E9407
:1034A0001D04882344F4FE01E156FF4F81E090E0C3
:1034B0009183808364C0FE01EF55FF4F608171816D
:1034C0008281938120E03FEF4FE757E40E94BD03E4
:1034D00018160CF043C0FE01EB55FF4F608171815F
:1034E0008281938120E030E040E251E40E941702A3
:1034F000DC01CB018E0101561F4FBC01CD010E94A2
:103500004100DC01CB01F801918380831FC0FE01E3
:10351000E356FF4F80E991E091838083FE01E356FB
:10352000FF4F808191810197F1F7FE01E356FF4F34
:1035300091838083DE01A156BF4FFE01E156FF4F0C
:1035400080819181019711969C938E93FE01E156A3
:10355000FF4F808191810097D1F627C08E010156DF
:103560001F4FFE01EF55FF4F608171818281938172
:103570000E944100DC01CB01F80191838083DE01D0
:10358000A556BF4FFE01E156FF4F808191818D937B
:103590009C93FE01E556FF4F808191810197F1F7E1
:1035A000FE01E556FF4F9183808381E00E94FB0A74
:1035B00085E30E94AA10FE01EC5EFE4F80838AE242
:1035C0000E94AA10FE01EC5EFE4F808386E491E02B
:1035D0000E94A50F82E060E00E94C10F84EF90E09E
:1035E0000E94A50FFE01EE5EFE4F8081882309F048
:1035F0008ACEFE01EE5EFE4F81E08083F2C681E05E
:103600000E94FB0A8FE591E00E94A50F82E060E036
:103610000E94C10F8DE691E00E94A50FFE01E45FBC
:10362000FE4F8FEF808306C00E94DE09FE01E45F3B
:10363000FE4F8083FE01E45FFE4F80818F3FA1F348
:10364000FE01E45FFE4F80818F3F41F3FE01E45FA6
:10365000FE4F8081282F30E0CB5DDE4F39832883F9
:10366000C552D140CB5DDE4F88819981C552D14092
:103670008230910509F4B3C1CB5DDE4FE881F98159
:10368000C552D140E330F10554F4CB5DDE4F2881C3
:103690003981C552D14021303105B1F0D1C4CB5D63
:1036A000DE4F88819981C552D1408330910509F45C
:1036B00021C3CB5DDE4FE881F981C552D140E430B2
:1036C000F10509F4A2C4BCC481E00E94FB0A8EE7A4
:1036D00091E00E94A50F82E060E00E94C10F84EF9C
:1036E00090E00E94A50FFE01E55FFE4F8FEF808303
:1036F00006C00E94DE09FE01E55FFE4F8083FE01E9
:10370000E55FFE4F80818F3FA1F3FE01E55FFE4F35
:1037100080818F3F41F3FE01E55FFE4F8081282FBE
:1037200030E0CD5DDE4F39832883C352D140CD5D7B
:10373000DE4F88819981C352D1408230910551F189
:10374000CD5DDE4FE881F981C352D140E330F10510
:10375000C1F1CD5DDE4F28813981C352D140213086
:10376000310509F050C081E00E94FB0A86E30E9407
:10377000AA10FE01EC5EFE4F80838BE891E00E9470
:10378000A50F82E060E00E94C10F84EF90E00E94EC
:10379000A50F18C181E00E94FB0A87E30E94AA10CE
:1037A000FE01EC5EFE4F80838EE791E00E94A50F44
:1037B00082E060E00E94C10F84EF90E00E94A50FBC
:1037C00001C181E00E94FB0A87E30E94AA10FE016A
:1037D000EC5EFE4F80838FE591E00E94A50F82E0B2
:1037E00060E00E94C10F8DE691E00E94A50F8AE281
:1037F0000E94AA10FE01EC5EFE4F8083FE01EF5E88
:10380000FE4F1082DFC081E00E94FB0A87E30E9426
:10381000AA10FE01EC5EFE4F808382E191E00E94DF
:10382000A50F82E060E00E94C10F80E291E00E945B
:10383000A50FFE01E956FF4F80E090E0AAEFB3E448
:1038400080839183A283B3838E010D561F4FFE01A7
:10385000E956FF4F608171818281938120E030E0E1
:103860004AE755E40E941702DC01CB01F80180838E
:103870009183A283B383FE01ED56FF4F6081718176
:103880008281938120E030E040E85FE30E941D04E4
:10389000882344F4FE01EF56FF4F81E090E09183CE
:1038A000808364C0FE01ED56FF4F6081718182818B
:1038B000938120E03FEF4FE757E40E94BD031816C5
:1038C0000CF043C0FE01E956FF4F60817181828197
:1038D000938120E030E040E251E40E941702DC01D5
:1038E000CB018E010F561F4FBC01CD010E9441003C
:1038F000DC01CB01F801918380831FC0FE01E157F9
:10390000FF4F80E991E091838083FE01E157FF4FF3
:10391000808191810197F1F7FE01E157FF4F91837B
:103920008083DE01AF56BF4FFE01EF56FF4F80810F
:103930009181019711969C938E93FE01EF56FF4F54
:10394000808191810097D1F627C08E010F561F4FBD
:10395000FE01ED56FF4F60817181828193810E944B
:103960004100DC01CB01F80191838083DE01A35784
:10397000BF4FFE01EF56FF4F808191818D939C9345
:10398000FE01E357FF4F808191810197F1F7FE011E
:10399000E357FF4F9183808381E00E94FB0A8AE214
:1039A0000E94AA10FE01EC5EFE4F80838EE791E03C
:1039B0000E94A50F82E060E00E94C10F84EF90E0BA
:1039C0000E94A50FFE01EF5EFE4F8081882309F063
:1039D0008ACEFE01EF5EFE4F81E0808309C481E064
:1039E0000E94FB0A87E991E00E94A50F82E060E057
:1039F0000E94C10F84EF90E00E94A50FFE01E55FD9
:103A0000FE4F8FEF808306C00E94DE09FE01E55F56
:103A1000FE4F8083FE01E55FFE4F80818F3FA1F363
:103A2000FE01E55FFE4F80818F3F41F3FE01E55FC0
:103A3000FE4F8081282F30E0CF5DDE4F3983288311
:103A4000C152D140CF5DDE4F88819981C152D140B2
:103A50008230910551F1CF5DDE4FE881F981C1528D
:103A6000D140E330F105C1F1CF5DDE4F28813981CE
:103A7000C152D1402130310509F050C081E00E948F
:103A8000FB0A88E30E94AA10FE01EC5EFE4F8083D1
:103A900081EA91E00E94A50F82E060E00E94C10FE0
:103AA00084EF90E00E94A50F18C181E00E94FB0AFC
:103AB00089E30E94AA10FE01EC5EFE4F808387E935
:103AC00091E00E94A50F82E060E00E94C10F84EFA8
:103AD00090E00E94A50F01C181E00E94FB0A89E3EA
:103AE0000E94AA10FE01EC5EFE4F80838FE591E0FC
:103AF0000E94A50F82E060E00E94C10F8DE691E078
:103B00000E94A50F8AE20E94AA10FE01EC5EFE4F01
:103B10008083FE01EF5EFE4F1082DFC081E00E94D5
:103B2000FB0A82E191E00E94A50F82E060E00E9422
:103B3000C10F80E291E00E94A50FFE01E757FF4F01
:103B400080E090E0AAEFB3E480839183A283B38303
:103B50008E010B571F4FFE01E757FF4F60817181A8
:103B60008281938120E030E04AE755E40E94170209
:103B7000DC01CB01F80180839183A283B383FE0132
:103B8000EB57FF4F608171818281938120E030E0AB
:103B900040E85FE30E941D04882344F4FE01ED57D2
:103BA000FF4F81E090E09183808364C0FE01EB577A
:103BB000FF4F608171818281938120E03FEF4FE769
:103BC00057E40E94BD0318160CF043C0FE01E757EE
:103BD000FF4F608171818281938120E030E040E27B
:103BE00051E40E941702DC01CB018E010D571F4FDB
:103BF000BC01CD010E944100DC01CB01F8019183A1
:103C000080831FC0FE01EF57FF4F80E991E0918351
:103C10008083FE01EF57FF4F808191810197F1F77B
:103C2000FE01EF57FF4F91838083DE01AD57BF4FF9
:103C3000FE01ED57FF4F80819181019711969C9372
:103C40008E93FE01ED57FF4F808191810097D1F651
:103C500027C08E010D571F4FFE01EB57FF4F6081AC
:103C60007181828193810E944100DC01CB01F801C6
:103C700091838083DE01A158BF4FFE01ED57FF4FB6
:103C8000808191818D939C93FE01E158FF4F80814B
:103C900091810197F1F7FE01E158FF4F91838083F5
:103CA00081E00E94FB0A89E30E94AA10FE01EC5EFB
:103CB000FE4F808387E991E00E94A50F82E060E0DB
:103CC0000E94C10F84EF90E00E94A50F8AE20E943B
:103CD000AA10FE01EC5EFE4F8083FE01EF5EFE4FF8
:103CE0008081882309F08ACEFE01EF5EFE4F81E0DD
:103CF00080837EC281E00E94FB0A8AEA91E00E94F2
:103D0000A50F82E060E00E94C10F84EF90E00E9466
:103D1000A50FFE01E55FFE4F8FEF808306C00E9476
:103D2000DE09FE01E55FFE4F8083FE01E55FFE4F89
:103D300080818F3FA1F3FE01E55FFE4F80818F3FC1
:103D400041F3FE01E55FFE4F8081282F30E0C15E28
:103D5000DE4F39832883CF51D140C15EDE4F888149
:103D60009981CF51D1408230910551F1C15EDE4F32
:103D7000E881F981CF51D140E330F105C1F1C15E55
:103D8000DE4F28813981CF51D1402130310509F0F2
:103D900050C081E00E94FB0A84E70E94AA10FE0145
:103DA000EC5EFE4F80838AEA91E00E94A50F82E0DC
:103DB00060E00E94C10F84EF90E00E94A50F18C13F
:103DC00081E00E94FB0A8DE60E94AA10FE01EC5ED3
:103DD000FE4F808389EB91E00E94A50F82E060E0B6
:103DE0000E94C10F84EF90E00E94A50F01C181E005
:103DF0000E94FB0A8DE60E94AA10FE01EC5EFE4FB7
:103E000080838FE591E00E94A50F82E060E00E9430
:103E1000C10F8DE691E00E94A50F8AE20E94AA10D0
:103E2000FE01EC5EFE4F8083FE01EF5EFE4F1082CE
:103E3000DFC081E00E94FB0A82E191E00E94A50FB1
:103E400082E060E00E94C10F80E291E00E94A50F35
:103E5000FE01E558FF4F80E090E0AAEFB3E48083D5
:103E60009183A283B3838E0109581F4FFE01E55849
:103E7000FF4F608171818281938120E030E04AE7C9
:103E800055E40E941702DC01CB01F8018083918385
:103E9000A283B383FE01E958FF4F60817181828163
:103EA000938120E030E040E85FE30E941D04882316
:103EB00044F4FE01EB58FF4F81E090E09183808352
:103EC00064C0FE01E958FF4F608171818281938156
:103ED00020E03FEF4FE757E40E94BD0318160CF0B7
:103EE00043C0FE01E558FF4F60817181828193815B
:103EF00020E030E040E251E40E941702DC01CB01F7
:103F00008E010B581F4FBC01CD010E944100DC0106
:103F1000CB01F801918380831FC0FE01ED58FF4F54
:103F200080E991E091838083FE01ED58FF4F80810D
:103F300091810197F1F7FE01ED58FF4F9183808346
:103F4000DE01AB58BF4FFE01EB58FF4F80819181DE
:103F5000019711969C938E93FE01EB58FF4F808141
:103F600091810097D1F627C08E010B581F4FFE019B
:103F7000E958FF4F60817181828193810E944100E5
:103F8000DC01CB01F80191838083DE01AF58BF4F84
:103F9000FE01EB58FF4F808191818D939C93FE0130
:103FA000EF58FF4F808191810197F1F7FE01EF58A3
:103FB000FF4F9183808381E00E94FB0A8DE60E947F
:103FC000AA10FE01EC5EFE4F808389EB91E00E9417
:103FD000A50F82E060E00E94C10F84EF90E00E9494
:103FE000A50F8AE20E94AA10FE01EC5EFE4F8083BC
:103FF000FE01EF5EFE4F8081882309F08ACEFE012C
:10400000EF5EFE4F81E08083F3C081E00E94FB0AF7
:1040100085EC90E00E94A50F82E060E00E94C10F55
:1040200086ED90E00E94A50F8AE20E94AA10FE0190
:10403000EC5EFE4F8083FE01E05FFE4F1082D8C031
:1040400081E00E94FB0A82E191E00E94A50F82E0DC
:1040500060E00E94C10F80E291E00E94A50FFE0186
:10406000E359FF4F80E090E0AAEFB3E480839183AF
:10407000A283B3838E0107591F4FFE01E359FF4FFF
:10408000608171818281938120E030E04AE755E4CC
:104090000E941702DC01CB01F80180839183A28387
:1040A000B383FE01E759FF4F608171818281938163
:1040B00020E030E040E85FE30E941D04882344F4E0
:1040C000FE01E959FF4F81E090E09183808364C055
:1040D000FE01E759FF4F608171818281938120E069
:1040E0003FEF4FE757E40E94BD0318160CF043C0A2
:1040F000FE01E359FF4F608171818281938120E04D
:1041000030E040E251E40E941702DC01CB018E0155
:1041100009591F4FBC01CD010E944100DC01CB01B8
:10412000F801918380831FC0FE01EB59FF4F80E9A6
:1041300091E091838083FE01EB59FF4F8081918153
:104140000197F1F7FE01EB59FF4F91838083DE0168
:10415000A959BF4FFE01E959FF4F80819181019715
:1041600011969C938E93FE01E959FF4F80819181B6
:104170000097D1F627C08E0109591F4FFE01E7595C
:10418000FF4F60817181828193810E944100DC0137
:10419000CB01F80191838083DE01AD59BF4FFE0151
:1041A000E959FF4F808191818D939C93FE01ED59D8
:1041B000FF4F808191810197F1F7FE01ED59FF4F8B
:1041C0009183808381E00E94FB0A8AE20E94AA1008
:1041D000FE01EC5EFE4F80838FE591E00E94A50F0B
:1041E00082E060E00E94C10F8DE691E00E94A50F81
:1041F000FE01E05FFE4F8081882309F00FCAFE01B7
:10420000E05FFE4F81E08083ECC081E00E94FB0A0A
:1042100087EA90E00E94A50F82E060E00E94C10F53
:1042200084EB90E00E94A50F8AE20E94AA10FE0192
:10423000EC5EFE4F8083FE01E15FFE4F1082D1C035
:1042400081E00E94FB0A82E191E00E94A50F82E0DA
:1042500060E00E94C10F80E291E00E94A50FFE0184
:10426000E15AFF4F80E090E0AAEFB3E480839183AE
:10427000A283B3838E01055A1F4FFE01E15AFF4FFF
:10428000608171818281938120E030E04AE755E4CA
:104290000E941702DC01CB01F80180839183A28385
:1042A000B383FE01E55AFF4F608171818281938162
:1042B00020E030E040E85FE30E941D04882344F4DE
:1042C000FE01E75AFF4F81E090E09183808364C054
:1042D000FE01E55AFF4F608171818281938120E068
:1042E0003FEF4FE757E40E94BD0318160CF043C0A0
:1042F000FE01E15AFF4F608171818281938120E04C
:1043000030E040E251E40E941702DC01CB018E0153
:10431000075A1F4FBC01CD010E944100DC01CB01B7
:10432000F801918380831FC0FE01E95AFF4F80E9A5
:1043300091E091838083FE01E95AFF4F8081918152
:104340000197F1F7FE01E95AFF4F91838083DE0167
:10435000A75ABF4FFE01E75AFF4F80819181019715
:1043600011969C938E93FE01E75AFF4F80819181B5
:104370000097D1F627C08E01075A1F4FFE01E55A5C
:10438000FF4F60817181828193810E944100DC0135
:10439000CB01F80191838083DE01AB5ABF4FFE0150
:1043A000E75AFF4F808191818D939C93FE01EB5AD8
:1043B000FF4F808191810197F1F7FE01EB5AFF4F8A
:1043C0009183808381E00E94FB0A85EC90E00E944B
:1043D000A50F82E060E00E94C10F86ED90E00E9490
:1043E000A50FFE01E15FFE4F8081882311F00C9440
:1043F0002B13FE01E15FFE4F81E0808353C7FE0176
:10440000E35FFE4F8081813009F0A4C681E00E9405
:10441000FB0A85EC90E00E94A50F82E060E00E941C
:10442000C10F89EC91E00E94A50FFE01E45FFE4FF1
:104430008FEF808306C00E94DE09FE01E45FFE4F1D
:104440008083FE01E45FFE4F80818F3FA1F3FE0178
:10445000E45FFE4F80818F3F09F46FC6FE01E45F89
:10446000FE4F8081282F30E0C35EDE4F39832883E2
:10447000CD51D140C35EDE4F88819981CD51D1406D
:104480008330910509F41AC3C35EDE4FE881F981D8
:10449000CD51D140E430F105A4F4C35EDE4F288154
:1044A0003981CD51D1402130310501F1C35EDE4F5C
:1044B00088819981CD51D1408230910509F4A1C103
:1044C000ACC5C35EDE4FE881F981CD51D140E43007
:1044D000F10509F43DC4C35EDE4F28813981CD5119
:1044E000D1402033310509F47DC597C581E00E9494
:1044F000FB0A87EE90E00E94A50F82E060E00E9438
:10450000C10F84EF90E00E94A50FFE01E55FFE4F12
:104510008FEF808306C00E94DE09FE01E55FFE4F3B
:104520008083FE01E55FFE4F80818F3FA1F3FE0196
:10453000E55FFE4F80818F3F41F3FE01E55FFE4F57
:104540008081E82FF0E0C55EDE4FF983E883CB5130
:10455000D140C55EDE4F28813981CB51D140223018
:10456000310551F1C55EDE4F88819981CB51D14033
:1045700083309105C1F1C55EDE4FE881F981CB51F1
:10458000D140E130F10509F050C081E00E94FB0A02
:104590008FE40E94AA10FE01EC5EFE4F808386E04D
:1045A00091E00E94A50F82E060E00E94C10F84EFBD
:1045B00090E00E94A50F18C181E00E94FB0A86E4EA
:1045C0000E94AA10FE01EC5EFE4F808387EE90E011
:1045D0000E94A50F82E060E00E94C10F84EF90E08E
:1045E0000E94A50F01C181E00E94FB0A86E40E949F
:1045F000AA10FE01EC5EFE4F808385EC90E00E94E5
:10460000A50F82E060E00E94C10F8CED91E00E9456
:10461000A50F8AE20E94AA10FE01EC5EFE4F808385
:10462000FE01EE5EFE4F1082DFC081E00E94FB0AB9
:1046300082E191E00E94A50F82E060E00E94C10F3C
:1046400080E291E00E94A50FFE01EF5AFF4F80E04B
:1046500090E0AAEFB3E480839183A283B3838E01B9
:10466000035B1F4FFE01EF5AFF4F60817181828112
:10467000938120E030E04AE755E40E941702DC0114
:10468000CB01F80180839183A283B383FE01E35BB6
:10469000FF4F608171818281938120E030E040E8AA
:1046A0005FE30E941D04882344F4FE01E55BFF4F95
:1046B00081E090E09183808364C0FE01E35BFF4F63
:1046C000608171818281938120E03FEF4FE757E461
:1046D0000E94BD0318160CF043C0FE01EF5AFF4FB5
:1046E000608171818281938120E030E040E251E479
:1046F0000E941702DC01CB018E01055B1F4FBC013C
:10470000CD010E944100DC01CB01F801918380833F
:104710001FC0FE01E75BFF4F80E991E0918380833A
:10472000FE01E75BFF4F808191810197F1F7FE0168
:10473000E75BFF4F91838083DE01A55BBF4FFE01E6
:10474000E55BFF4F80819181019711969C938E9339
:10475000FE01E55BFF4F808191810097D1F627C074
:104760008E01055B1F4FFE01E35BFF4F608171818E
:10477000828193810E944100DC01CB01F801918389
:104780008083DE01A95BBF4FFE01E55BFF4F8081A7
:1047900091818D939C93FE01E95BFF4F8081918114
:1047A0000197F1F7FE01E95BFF4F9183808381E080
:1047B0000E94FB0A86E40E94AA10FE01EC5EFE4FF6
:1047C00080838AE20E94AA10FE01EC5EFE4F808385
:1047D00087EE90E00E94A50F82E060E00E94C10F8A
:1047E00084EF90E00E94A50FFE01EE5EFE4F8081F7
:1047F000882309F08ACEFE01EE5EFE4F81E08083C1
:104800009CC481E00E94FB0A8DE291E00E94A50F0A
:1048100082E060E00E94C10F84EF90E00E94A50F4B
:10482000FE01E55FFE4F8FEF808306C00E94DE0928
:10483000FE01E55FFE4F8083FE01E55FFE4F808154
:104840008F3FA1F3FE01E55FFE4F80818F3F41F373
:10485000FE01E55FFE4F8081282F30E0C75EDE4F0E
:1048600039832883C951D140C75EDE4F8881998141
:10487000C951D1408230910551F1C75EDE4FE881C8
:10488000F981C951D140E330F105C1F1C75EDE4F76
:1048900028813981C951D1402130310509F050C0FA
:1048A00081E00E94FB0A82E30E94AA10FE01EC5EF6
:1048B000FE4F80838AE391E00E94A50F82E060E0D2
:1048C0000E94C10F84EF90E00E94A50FEAC081E032
:1048D0000E94FB0A83E30E94AA10FE01EC5EFE4FD9
:1048E00080838DE291E00E94A50F82E060E00E944B
:1048F000C10F84EF90E00E94A50FD3C081E00E9419
:10490000FB0A83E30E94AA10FE01EC5EFE4F808347
:1049100085EC90E00E94A50F82E060E00E94C10F4C
:104920008CEE91E00E94A50F8AE20E94AA10FE017F
:10493000EC5EFE4F8083FE01EE5EFE4F1082B1C042
:1049400081E00E94FB0A82E191E00E94A50F82E0D3
:1049500060E00E94C10F80E291E00E94A50FFE017D
:10496000ED5BFF4F80E090E0AAEFB3E4808391839A
:10497000A283B3838E01015C1F4FFE01ED5BFF4FED
:10498000608171818281938120E030E04AE755E4C3
:104990000E941702DC01CB01F80180839183A2837E
:1049A000B383FE01FF96608171818281938120E053
:1049B00030E040E85FE30E941D0488232CF481E08E
:1049C00090E09EAF8DAF46C0FE01FF966081718181
:1049D0008281938120E03FEF4FE757E40E94BD03BF
:1049E000181664F5FE01ED5BFF4F608171818281D5
:1049F000938120E030E040E251E40E941702DC01A4
:104A0000CB01BC01CD010E944100DC01CB019EAF76
:104A10008DAF0FC080E991E09CAF8BAF8BAD9CADAB
:104A20000197F1F79CAF8BAF8DAD9EAD01979EAF17
:104A30008DAF8DAD9EAD009769F716C0FE01FF9654
:104A400060817181828193810E944100DC01CB01F0
:104A50009EAF8DAF8DAD9EAD9AAF89AF89AD9AAD4A
:104A60000197F1F79AAF89AF81E00E94FB0A83E3D7
:104A70000E94AA10FE01EC5EFE4F80838AE20E9433
:104A8000AA10FE01EC5EFE4F80838DE291E00E9451
:104A9000A50F82E060E00E94C10F84EF90E00E94C9
:104AA000A50FFE01EE5EFE4F8081882309F0B8CE8F
:104AB000FE01EE5EFE4F81E080833FC381E00E94F5
:104AC000FB0A86E491E00E94A50F82E060E00E946C
:104AD000C10F84EF90E00E94A50FFE01E55FFE4F3D
:104AE0008FEF808306C00E94DE09FE01E55FFE4F66
:104AF0008083FE01E55FFE4F80818F3FA1F3FE01C1
:104B0000E55FFE4F80818F3F41F3FE01E55FFE4F81
:104B10008081282F30E0C95EDE4F39832883C7515A
:104B2000D140C95EDE4F88819981C751D140823022
:104B3000910551F1C95EDE4FE881F981C751D1403D
:104B4000E330F105C1F1C95EDE4F28813981C751DB
:104B5000D1402130310509F050C081E00E94FB0AAC
:104B600084E30E94AA10FE01EC5EFE4F808383E581
:104B700091E00E94A50F82E060E00E94C10F84EFE7
:104B800090E00E94A50FD7C081E00E94FB0A85E358
:104B90000E94AA10FE01EC5EFE4F808386E491E045
:104BA0000E94A50F82E060E00E94C10F84EF90E0B8
:104BB0000E94A50FC0C081E00E94FB0A85E30E940D
:104BC000AA10FE01EC5EFE4F808385EC90E00E940F
:104BD000A50F82E060E00E94C10F8CEE91E00E9480
:104BE000A50F8AE20E94AA10FE01EC5EFE4F8083B0
:104BF000FE01EE5EFE4F10829EC081E00E94FB0A25
:104C000082E191E00E94A50F82E060E00E94C10F66
:104C100080E291E00E94A50F80E090E0AAEFB3E46B
:104C20008DAB9EABAFABB8AF6DA97EA98FA998AD88
:104C300020E030E04AE755E40E941702DC01CB0196
:104C400089AB9AABABABBCAB69A97AA98BA99CA980
:104C500020E030E040E85FE30E941D0488232CF44C
:104C600081E090E098AB8FA73FC069A97AA98BA992
:104C70009CA920E03FEF4FE757E40E94BD031816C0
:104C80004CF56DA97EA98FA998AD20E030E040E2F7
:104C900051E40E941702DC01CB01BC01CD010E944E
:104CA0004100DC01CB0198AB8FA70FC080E991E0F8
:104CB0009EA78DA78DA59EA50197F1F79EA78DA70D
:104CC0008FA598A9019798AB8FA78FA598A9009752
:104CD00069F714C069A97AA98BA99CA90E9441000F
:104CE000DC01CB0198AB8FA78FA598A99CA78BA7B8
:104CF0008BA59CA50197F1F79CA78BA781E00E944B
:104D0000FB0A85E30E94AA10FE01EC5EFE4F808341
:104D10008AE20E94AA10FE01EC5EFE4F808386E4C8
:104D200091E00E94A50F82E060E00E94C10F84EF35
:104D300090E00E94A50FFE01EE5EFE4F8081882369
:104D400009F0CBCEFE01EE5EFE4F81E08083F5C11F
:104D500081E00E94FB0A8EE791E00E94A50F82E0AD
:104D600060E00E94C10F84EF90E00E94A50FFE0159
:104D7000E55FFE4F8FEF808306C00E94DE09FE01D3
:104D8000E55FFE4F8083FE01E55FFE4F80818F3F30
:104D9000A1F3FE01E55FFE4F80818F3F41F3FE01ED
:104DA000E55FFE4F8081E82FF0E0CB5EDE4FF983B8
:104DB000E883C551D140CB5EDE4F28813981C55192
:104DC000D1402230310551F1CB5EDE4F888199818F
:104DD000C551D14083309105C1F1CB5EDE4FE881F2
:104DE000F981C551D140E130F10509F050C081E0B1
:104DF0000E94FB0A86E30E94AA10FE01EC5EFE4FB1
:104E000080838BE891E00E94A50F82E060E00E9421
:104E1000C10F84EF90E00E94A50FD7C081E00E94EF
:104E2000FB0A87E30E94AA10FE01EC5EFE4F80831E
:104E30008EE791E00E94A50F82E060E00E94C10F22
:104E400084EF90E00E94A50FC0C081E00E94FB0AA1
:104E500087E30E94AA10FE01EC5EFE4F808385EC82
:104E600090E00E94A50F82E060E00E94C10F8CEEEE
:104E700091E00E94A50F8AE20E94AA10FE01EC5E5A
:104E8000FE4F8083FE01EE5EFE4F10829EC081E0E9
:104E90000E94FB0A87E30E94AA10FE01EC5EFE4F0F
:104EA000808382E191E00E94A50F82E060E00E9491
:104EB000C10F80E291E00E94A50F80E090E0AAEF90
:104EC000B3E48FA398A7A9A7BAA76FA178A589A5CE
:104ED0009AA520E030E04AE755E40E941702DC0181
:104EE000CB018BA39CA3ADA3BEA36BA17CA18DA181
:104EF0009EA120E030E040E85FE30E941D0488238B
:104F00002CF481E090E09AA389A33FC06BA17CA11F
:104F10008DA19EA120E03FEF4FE757E40E94BD0323
:104F200018164CF56FA178A589A59AA520E030E068
:104F300040E251E40E941702DC01CB01BC01CD012B
:104F40000E944100DC01CB019AA389A30FC080E934
:104F500091E098A38F8F8F8D98A10197F1F798A377
:104F60008F8F89A19AA101979AA389A389A19AA158
:104F7000009769F714C06BA17CA18DA19EA10E942E
:104F80004100DC01CB019AA389A389A19AA19E8F3C
:104F90008D8F8D8D9E8D0197F1F79E8F8D8F81E086
:104FA0000E94FB0A8AE20E94AA10FE01EC5EFE4FFC
:104FB00080838EE791E00E94A50F82E060E00E946E
:104FC000C10F84EF90E00E94A50FFE01EE5EFE4F40
:104FD0008081882309F0CBCEFE01EE5EFE4F81E09A
:104FE0008083ABC081E00E94FB0A87EA90E00E94C8
:104FF000A50F82E060E00E94C10F84EB90E00E9468
:10500000A50F8AE20E94AA10FE01EC5EFE4F80838B
:10501000FE01E15FFE4F108290C081E00E94FB0A1A
:1050200082E191E00E94A50F82E060E00E94C10F42
:1050300080E291E00E94A50F80E090E0AAEFB3E447
:10504000898F9A8FAB8FBC8F698D7A8D8B8D9C8D5C
:1050500020E030E04AE755E40E941702DC01CB0172
:105060008D8B9E8BAF8BB88F6D897E898F89988D44
:1050700020E030E040E85FE30E941D0488232CF428
:1050800081E090E09C8B8B8B3FC06D897E898F89FE
:10509000988D20E03FEF4FE757E40E94BD031816BC
:1050A0004CF5698D7A8D8B8D9C8D20E030E040E24F
:1050B00051E40E941702DC01CB01BC01CD010E942A
:1050C0004100DC01CB019C8B8B8B0FC080E991E010
:1050D0009A8B898B89899A890197F1F79A8B898BA9
:1050E0008B899C8901979C8B8B8B8B899C890097E2
:1050F00069F714C06D897E898F89988D0E9441005F
:10510000DC01CB019C8B8B8B8B899C89988B8F8747
:105110008F8598890197F1F7988B8F8781E00E949E
:10512000FB0A85EC90E00E94A50F82E060E00E94FF
:10513000C10F8CEE91E00E94A50FFE01E15FFE4FD2
:105140008081882309F071C9FE01E15FFE4F81E093
:105150008083A8C0FE01E35FFE4F80818D3391F410
:1051600081E00E94FB0A8DEF91E00E94A50FFE01F5
:10517000E25FFE4F1082FE01E35FFE4F8FEF808300
:105180000C94CD1181E00E94FB0A82E191E00E9423
:10519000A50F82E060E00E94C10F80E291E00E94D2
:1051A000A50F80E090E0AAEFB3E48B879C87AD87E2
:1051B000BE876B857C858D859E8520E030E04AE743
:1051C00055E40E941702DC01CB018F839887A987E1
:1051D000BA876F81788589859A8520E030E040E83C
:1051E0005FE30E941D0488232CF481E090E09E83FD
:1051F0008D833FC06F81788589859A8520E03FEF58
:105200004FE757E40E94BD0318164CF56B857C856B
:105210008D859E8520E030E040E251E40E94170237
:10522000DC01CB01BC01CD010E944100DC01CB01BE
:105230009E838D830FC080E991E09C838B838B815B
:105240009C810197F1F79C838B838D819E810197CF
:105250009E838D838D819E81009769F714C06F8135
:10526000788589859A850E944100DC01CB019E8367
:105270008D838D819E819A83898389819A8101970B
:10528000F1F79A83898381E00E94FB0A8EE092E025
:105290000E94A50F82E060E00E94C10F8CE192E0C5
:1052A0000E94A50FFE01E25FFE4F8081882311F06E
:1052B0000C94FA12FE01E25FFE4F81E080830C94B1
:1052C000CD112F923F924F925F926F927F928F9269
:1052D0009F92AF92BF92CF92DF92EF92FF920F9385
:1052E0001F93CF93DF93CDB7DEB7CA1BDB0B0FB68F
:1052F000F894DEBF0FBECDBF09942A88398848884C
:105300005F846E847D848C849B84AA84B984C884E1
:10531000DF80EE80FD800C811B81AA81B981CE0FD8
:10532000D11D0FB6F894DEBF0FBECDBFED010895BD
:10533000FB019F01E8944230C4F04532B4F44A3096
:1053400029F497FB1EF4909581959F4F642F772742
:105350000E94C929805D8A330CF0895D8193CB015D
:105360000097A1F716F45DE251931082C9010C94E5
:10537000B929DC01FC01672F71917723E1F732979E
:1053800004C07C916D9370836291AE17BF07C8F320
:105390000895AA1BBB1B51E107C0AA1FBB1FA6177C
:1053A000B70710F0A61BB70B881F991F5A95A9F7CE
:0E53B00080959095BC01CD010895F894FFCF33
:1053BE002057656C636F6D6520486F6D65004164A5
:1053CE006D696E205961736D65656E200041646D67
:1053DE00696E20596F757365662000204775657379
:1053EE007420596173736572202000206F75747379
:1053FE00696465212121002053454C454354204DBD
:10540E004F444500303A41646D696E20313A47751C
:10541E00657374200020313A526F6F6D3120323A2D
:10542E00526F6F6D3200333A526F6F6D3320343AD4
:10543E002B20305245540020526F6F6D3120533A5D
:10544E004F464600313A6F6E20323A6F6666203311
:10545E003A524554200020526F6F6D3120533A4F0F
:10546E004E002077726F6E672063686F6963650008
:10547E0063686F6F736520616761696E0020526F9C
:10548E006F6D3220533A4F46460020526F6F6D3289
:10549E0020533A4F4E0020526F6F6D3320533A4FC8
:1054AE0046460020526F6F6D3320533A4F4E002008
:1054BE00313A526F6F6D3420323A545600333A41BE
:1054CE0069725F434F4E4420343A52455400205285
:1054DE006F6F6D3420533A4F46460020526F6F6DFA
:1054EE003420533A4F4E0020545620533A4F4646DE
:1054FE000020545620533A4F4E00204169722063CB
:10550E006F6E6420533A4F4E002041697220636FD4
:10551E006E6420533A4F464600333A526F6F6D33E6
:10552E0020343A524F4F4D3420302000333A526FD0
:10553E006F6D3320343A524F4F4D3400333A526F21
:10554E006F6D3320343A526F6F6D34200020574107
:10555E004954494E47205550444154455300205319
:10556E00656C656374204D6F64653A00303A416432
:10557E006D696E20313A4775657374000000000046
:10558E00000000000708092F0405062A0102032D5A
:04559E0043303D2B2E
:00000001FF
