:100000000C942A000C943F000C943F000C943F0089
:100010000C943F000C943F000C943F000C943F0064
:100020000C943F000C943F000C943F000C943F0054
:100030000C943F000C943F000C943F000C943F0044
:100040000C9421240C943F000C943F000C943F002E
:100050000C943F0011241FBECFE5D8E0DEBFCDBF1A
:1000600012E0A0E6B0E0E4E8FCE402C005900D92E6
:10007000A230B107D9F70E9493110C9440260C943A
:100080000000EF92FF920F931F937B018C0120E001
:1000900030E040E05FE40E94ED0388238CF0C8016B
:1000A000B70120E030E040E05FE40E94B9010E9427
:1000B0004D049B01AC01205030404040504806C0E8
:1000C000C801B7010E944D049B01AC01B901CA01EE
:1000D0001F910F91FF90EF900895A0E0B0E0E3E74B
:1000E000F0E00C94D825DC012B01FA019C919230B0
:1000F00008F439C1EB018881823008F433C19430AF
:1001000069F4843009F02FC111969C91119789816F
:10011000981709F428C1AAEEB1E025C1843009F48A
:1001200021C18230A9F4923009F01DC19A01AD01BC
:1001300088E0EA010990AE01E90109929E0181502F
:10014000C1F7E201898111969C918923818308C1BD
:10015000923009F407C112962D903C901397EB0151
:100160008A819B811496AD90BD90CD90DC901797BD
:10017000EC80FD800E811F819101281B390BB90194
:1001800037FF04C066277727621B730B6032710547
:100190000CF061C0121613066CF537014801062EEB
:1001A00004C096948794779467940A94D2F721E0D8
:1001B00030E040E050E004C0220F331F441F551FC1
:1001C0006A95D2F721503040404050402E213F21C7
:1001D00040235123211531054105510521F021E02E
:1001E00030E040E050E079018A01E628F72808294C
:1001F00019293CC0232BD1F1260E371E35014601AB
:10020000062E04C096948794779467940A94D2F744
:1002100021E030E040E050E004C0220F331F441FD3
:10022000551F6A95D2F721503040404050402A2156
:100230003B214C215D21211531054105510521F05E
:1002400021E030E040E050E059016A01A628B728DB
:10025000C828D9280BC0821593052CF01C01AA24AC
:10026000BB24650103C0EE24FF24870111969C91F5
:10027000D20111968C91981709F445C0992339F051
:10028000A80197012A193B094C095D0906C0A6017E
:1002900095012E193F09400B510B57FD08C01182E3
:1002A0003382228224833583468357831DC081E0B5
:1002B00081833382228288279927DC01821B930B5A
:1002C000A40BB50B84839583A683B7830DC0220F3F
:1002D000331F441F551F24833583468357838281F0
:1002E000938101979383828324813581468157814D
:1002F000DA01C9010197A109B1098F5F9F4FAF4F83
:10030000BF4328F30BC0918333822282EA0CFB1C8B
:100310000C1D1D1DE482F5820683178383E0808314
:10032000248135814681578157FF1AC0C901AA2708
:1003300097FDA095BA2F81709070A070B0705695FF
:10034000479537952795822B932BA42BB52B848328
:100350009583A683B7838281938101969383828359
:10036000DF0101C0D201CD01CDB7DEB7E2E10C94CF
:10037000F425A0E2B0E0EFEBF1E00C94E425698312
:100380007A838B839C832D833E834F835887E9E058
:10039000EE2EF12CEC0EFD1ECE010196B7010E944F
:1003A00076058E010F5E1F4FCE010596B8010E94A3
:1003B00076058A8991E089278A8BC701B801AE0149
:1003C000475E5F4F0E946D000E94A104A096E6E088
:1003D0000C940026A0E2B0E0E0EFF1E00C94E425FC
:1003E00069837A838B839C832D833E834F835887D5
:1003F000F9E0EF2EF12CEC0EFD1ECE010196B701B7
:100400000E9476058E010F5E1F4FCE010596B80142
:100410000E947605C701B801AE01475E5F4F0E949A
:100420006D000E94A104A096E6E00C940026A0E2D4
:10043000B0E0EDE1F2E00C94D82569837A838B83F8
:100440009C832D833E834F835887CE010196BE0146
:10045000675F7F4F0E947605CE010596BE016F5EF5
:100460007F4F0E9476059985923088F08989823085
:10047000C8F0943019F4823051F404C0843029F467
:10048000923081F48AEE91E0C6C0923049F420E0C7
:100490009A858A89981321E02A87CE010996BBC0E4
:1004A000823049F420E09A858A89981321E02A8BCA
:1004B000CE014196B0C02D843E844F8458886D880B
:1004C0007E888F88988CEE24FF248701AA24BB2481
:1004D000650140E050E060E070E0E0E0F0E0C10184
:1004E00081709070892BE9F0E60CF71C081D191D2E
:1004F0009A01AB012A0D3B1D4C1D5D1D80E090E073
:10050000A0E0B0E0E614F7040805190520F481E046
:1005100090E0A0E0B0E0BA01A901480F591F6A1F9E
:100520007B1FAA0CBB1CCC1CDD1C97FE08C081E005
:1005300090E0A0E0B0E0A82AB92ACA2ADB2A3196C6
:10054000E032F10549F0660C771C881C991C569422
:10055000479437942794C3CFFA85EA892B893C893D
:100560008B859C85280F391F2E5F3F4F17C0CA010E
:1005700081709070892B61F016950795F794E79438
:1005800080E090E0A0E0B0E8E82AF92A0A2B1B2BD3
:1005900076956795579547952F5F3F4F77FDE7CF46
:1005A0000CC0440F551F661F771F17FD4160EE0CEE
:1005B000FF1C001F111F21503040403090E05907B0
:1005C00090E0690790E4790760F32B8F3C8FDB01A3
:1005D000CA018F779070A070B07080349105A1052A
:1005E000B10561F447FD0AC0E114F10401051105EC
:1005F00029F0405C5F4F6F4F7F4F40781A8EFE1797
:1006000011F081E08A8F4D8F5E8F6F8F78A383E02A
:10061000898FCE0149960E94A104A096E2E10C9434
:10062000F425A8E1B0E0E7E1F3E00C94E02569836C
:100630007A838B839C832D833E834F835887B9E0D5
:10064000EB2EF12CEC0EFD1ECE010196B7010E949F
:1006500076058E010F5E1F4FCE010596B8010E94F0
:1006600076052985223008F47EC03989323010F4AD
:10067000B8017CC08A859A8989278A87243011F03D
:10068000223031F4231709F06EC06AEE71E06EC0BB
:10069000343039F41D861E861F86188A1C861B86F8
:1006A00004C0323021F484E08987B7015FC02B8514
:1006B0003C858B899C89281B390B3C872B87ED84D3
:1006C000FE840F851889AD88BE88CF88D88CEA143F
:1006D000FB040C051D0540F4EE0CFF1C001F111F50
:1006E000215030403C872B8720E030E040E050E054
:1006F00080E090E0A0E0B0E460E070E0EA14FB0489
:100700000C051D0540F0282B392B4A2B5B2BEA18D2
:10071000FB080C091D09B695A79597958795EE0CD2
:10072000FF1C001F111F6F5F7F4F6F31710531F785
:10073000DA01C9018F779070A070B0708034910594
:10074000A105B10561F427FD0AC0E114F10401051A
:10075000110529F0205C3F4F4F4F5F4F20782D87C8
:100760003E874F87588BBE01675F7F4FCB010E944A
:10077000A1046896EAE00C94FC25A8E1B0E0E3EC63
:10078000F3E00C94E42569837A838B839C832D8327
:100790003E834F83588789E0E82EF12CEC0EFD1E36
:1007A000CE010196B7010E9476058E010F5E1F4FA4
:1007B000CE010596B8010E9476058985823040F009
:1007C0008989823028F0C701B8010E94EE0501C076
:1007D0008FEF6896E6E00C940026A8E1B0E0E3EF26
:1007E000F3E00C94E42569837A838B839C832D83C7
:1007F0003E834F83588789E0E82EF12CEC0EFD1ED6
:10080000CE010196B7010E9476058E010F5E1F4F43
:10081000CE010596B8010E9476058985823040F0A8
:100820008989823028F0C701B8010E94EE0501C015
:100830008FEF6896E6E00C940026A8E1B0E0E3E2D2
:10084000F4E00C94E42569837A838B839C832D8365
:100850003E834F83588789E0E82EF12CEC0EFD1E75
:10086000CE010196B7010E9476058E010F5E1F4FE3
:10087000CE010596B8010E9476058985823040F048
:100880008989823028F0C701B8010E94EE0501C0B5
:1008900081E06896E6E00C940026ACE0B0E0E3E589
:1008A000F4E00C94E82569837A838B839C83CE01E2
:1008B0000196BE016B5F7F4F0E9476058D8182306D
:1008C00061F1823050F1843021F48E81882351F11E
:1008D0002EC02F81388537FD20C06E812F31310524
:1008E0001CF06623F9F023C08EE190E0821B930B8D
:1008F00029853A854B855C8504C056954795379583
:1009000027958A95D2F76623B1F05095409530959A
:1009100021953F4F4F4F5F4F0EC020E030E040E049
:1009200050E009C02FEF3FEF4FEF5FE704C020E03A
:1009300030E040E050E8B901CA012C96E2E00C94A6
:100940000426DF92EF92FF920F931F93FC01E48045
:10095000F58006811781D1808081823048F480E063
:1009600090E0A0E1B0E0E82AF92A0A2B1B2BA5C0F1
:10097000843009F49FC0823021F4EE24FF248701E3
:1009800005C0E114F1040105110519F4E0E0F0E0FF
:1009900096C0628173819FEF623879070CF05BC06B
:1009A00022E83FEF261B370B2A3131052CF020E0DF
:1009B00030E040E050E02AC0B801A701022E04C098
:1009C00076956795579547950A94D2F781E090E020
:1009D000A0E0B0E004C0880F991FAA1FBB1F2A9592
:1009E000D2F70197A109B1098E219F21A023B1233C
:1009F0000097A105B10521F081E090E0A0E0B0E012
:100A00009A01AB01282B392B4A2B5B2BDA01C90148
:100A10008F779070A070B07080349105A105B105FA
:100A200039F427FF09C0205C3F4F4F4F5F4F04C090
:100A3000215C3F4F4F4F5F4FE0E0F0E02030A0E0FF
:100A40003A07A0E04A07A0E45A0710F0E1E0F0E01E
:100A500079018A0127C06038710564F5FB01E1580E
:100A6000FF4FD801C7018F779070A070B0708034AD
:100A70009105A105B10539F4E7FE0DC080E490E0D1
:100A8000A0E0B0E004C08FE390E0A0E0B0E0E80EAA
:100A9000F91E0A1F1B1F17FF05C016950795F7942F
:100AA000E794319687E016950795F794E7948A9531
:100AB000D1F705C0EE24FF248701EFEFF0E06E2FA1
:100AC000679566276795902F9F77D794DD24D794F5
:100AD0008E2F8695492F462B582F5D29B701CA01C5
:100AE0001F910F91FF90EF90DF900895FC01DB01C3
:100AF000408151812281622F6F7770E0221F22276F
:100B0000221F9381892F880F822B282F30E0991F75
:100B10009927991F11969C93119721153105A9F5D5
:100B2000411551056105710511F482E037C082E875
:100B30009FEF13969C938E9312979A01AB0167E0F7
:100B4000220F331F441F551F6A95D1F783E08C9302
:100B50000DC0220F331F441F551F12968D919C917B
:100B60001397019713969C938E931297203080E0F1
:100B7000380780E0480780E4580758F314962D930F
:100B80003D934D935C93179708952F3F310579F46A
:100B9000411551056105710519F484E08C930895A0
:100BA00064FF03C081E08C9312C01C9210C02F57C9
:100BB000304013963C932E93129783E08C9387E0FA
:100BC000440F551F661F771F8A95D1F770641496DE
:100BD0004D935D936D937C93179708951F93DC015C
:100BE000FB019C91923008F447C08081823008F468
:100BF00043C0943051F411961C91843099F5818151
:100C0000682F70E0611B71093FC0843021F0923081
:100C100031F48230B9F18181882389F12DC0119698
:100C20001C9111978230F1F081811817D9F4129636
:100C30002D913C911397828193818217930794F0B1
:100C400028173907BCF014968D919D910D90BC9199
:100C5000A02D2481358146815781281739074A07FD
:100C60005B0718F4112341F00AC082179307A40709
:100C7000B50740F4112319F061E070E005C06FEF93
:100C80007FEF02C060E070E0CB011F910895DF9319
:100C9000CF93CDB7DEB729970FB6F894DEBF0FBE5E
:100CA000CDBF89836A834B838B81282F30E03987BE
:100CB000288788859985009739F0288539852130DE
:100CC000310509F475C0E2C08981282F30E03F83E7
:100CD0002E838E819F818130910559F12E813F8134
:100CE000223031052CF48E819F81009769F0CEC0AF
:100CF0002E813F812230310589F18E819F818330A1
:100D0000910509F440C0C2C0AAE3B0E0EAE3F0E014
:100D10008081482F8A81282F30E081E090E0022EE8
:100D200002C0880F991F0A94E2F7809584238C9360
:100D3000ADC0A7E3B0E0E7E3F0E08081482F8A810F
:100D4000282F30E081E090E0022E02C0880F991F2A
:100D50000A94E2F7809584238C9398C0A4E3B0E0D2
:100D6000E4E3F0E08081482F8A81282F30E081E0A1
:100D700090E0022E02C0880F991F0A94E2F7809536
:100D800084238C9383C0A1E3B0E0E1E3F0E08081B1
:100D9000482F8A81282F30E081E090E0022E02C0A7
:100DA000880F991F0A94E2F7809584238C936EC074
:100DB0008981282F30E03D832C838C819D81813077
:100DC000910549F12C813D81223031052CF48C8133
:100DD0009D81009761F05AC02C813D812230310500
:100DE00071F18C819D8183309105E9F14FC0AAE3B7
:100DF000B0E0EAE3F0E08081482F8A81282F30E0DC
:100E000081E090E0022E02C0880F991F0A94E2F759
:100E1000842B8C933BC0A7E3B0E0E7E3F0E0808154
:100E2000482F8A81282F30E081E090E0022E02C016
:100E3000880F991F0A94E2F7842B8C9327C0A4E3B0
:100E4000B0E0E4E3F0E08081482F8A81282F30E091
:100E500081E090E0022E02C0880F991F0A94E2F709
:100E6000842B8C9313C0A1E3B0E0E1E3F0E0808138
:100E7000482F8A81282F30E081E090E0022E02C0C6
:100E8000880F991F0A94E2F7842B8C9329960FB64A
:100E9000F894DEBF0FBECDBFCF91DF910895DF93F1
:100EA000CF93CDB7DEB729970FB6F894DEBF0FBE4C
:100EB000CDBF89836A834B838B81282F30E03987AC
:100EC000288788859985009739F0288539852130CC
:100ED000310509F475C0E2C08981282F30E03F83D5
:100EE0002E838E819F818130910559F12E813F8122
:100EF000223031052CF48E819F81009769F0CEC09D
:100F00002E813F812230310589F18E819F8183308E
:100F1000910509F440C0C2C0ABE3B0E0EBE3F0E000
:100F20008081482F8A81282F30E081E090E0022ED6
:100F300002C0880F991F0A94E2F7809584238C934E
:100F4000ADC0A8E3B0E0E8E3F0E08081482F8A81FB
:100F5000282F30E081E090E0022E02C0880F991F18
:100F60000A94E2F7809584238C9398C0A5E3B0E0BF
:100F7000E5E3F0E08081482F8A81282F30E081E08E
:100F800090E0022E02C0880F991F0A94E2F7809524
:100F900084238C9383C0A2E3B0E0E2E3F0E080819D
:100FA000482F8A81282F30E081E090E0022E02C095
:100FB000880F991F0A94E2F7809584238C936EC062
:100FC0008981282F30E03D832C838C819D81813065
:100FD000910549F12C813D81223031052CF48C8121
:100FE0009D81009761F05AC02C813D8122303105EE
:100FF00071F18C819D8183309105E9F14FC0ABE3A4
:10100000B0E0EBE3F0E08081482F8A81282F30E0C8
:1010100081E090E0022E02C0880F991F0A94E2F747
:10102000842B8C933BC0A8E3B0E0E8E3F0E0808140
:10103000482F8A81282F30E081E090E0022E02C004
:10104000880F991F0A94E2F7842B8C9327C0A5E39D
:10105000B0E0E5E3F0E08081482F8A81282F30E07E
:1010600081E090E0022E02C0880F991F0A94E2F7F7
:10107000842B8C9313C0A2E3B0E0E2E3F0E0808124
:10108000482F8A81282F30E081E090E0022E02C0B4
:10109000880F991F0A94E2F7842B8C9329960FB638
:1010A000F894DEBF0FBECDBFCF91DF910895DF93DF
:1010B000CF9300D000D0CDB7DEB789836A83898112
:1010C000282F30E03C832B838B819C8181309105DC
:1010D000D1F02B813C81223031052CF48B819C8115
:1010E000009761F01EC02B813C812230310581F0D8
:1010F0008B819C818330910581F013C0EAE3F0E09D
:101100008A8180830EC0E7E3F0E08A81808309C092
:10111000E4E3F0E08A81808304C0E1E3F0E08A81C7
:1011200080830F900F900F900F90CF91DF910895D3
:10113000DF93CF9300D000D0CDB7DEB789836A8329
:101140008981282F30E03C832B838B819C818130E7
:101150009105D1F02B813C81223031052CF48B811B
:101160009C81009761F01EC02B813C8122303105AB
:1011700081F08B819C818330910581F013C0EBE37A
:10118000F0E08A8180830EC0E8E3F0E08A8180830A
:1011900009C0E5E3F0E08A81808304C0E2E3F0E087
:1011A0008A8180830F900F900F900F90CF91DF91E5
:1011B0000895DF93CF9300D000D0CDB7DEB78983F9
:1011C0006A838981282F30E03C832B838B819C812B
:1011D0008130910549F12B813C81223031052CF47D
:1011E0008B819C81009761F05AC02B813C81223019
:1011F000310571F18B819C8183309105E9F14FC0FC
:10120000ABE3B0E0EBE3F0E08081482F8A81282F48
:1012100030E081E090E0022E02C0880F991F0A940E
:10122000E2F784278C933BC0A8E3B0E0E8E3F0E06A
:101230008081482F8A81282F30E081E090E0022EC3
:1012400002C0880F991F0A94E2F784278C9327C065
:10125000A5E3B0E0E5E3F0E08081482F8A81282F04
:1012600030E081E090E0022E02C0880F991F0A94BE
:10127000E2F784278C9313C0A2E3B0E0E2E3F0E04E
:101280008081482F8A81282F30E081E090E0022E73
:1012900002C0880F991F0A94E2F784278C930F905D
:1012A0000F900F900F90CF91DF910895DF93CF9320
:1012B00000D000D00F92CDB7DEB78A836B838A81CE
:1012C000282F30E03D832C834C815D8141305105D6
:1012D00041F18C819D818230910534F42C813D81D6
:1012E0002115310561F052C04C815D8142305105BC
:1012F00051F18C819D8183309105B9F147C0E9E3BB
:10130000F0E08081282F30E08B81882F90E0A901C8
:1013100002C0559547958A95E2F7CA018170898385
:1013200035C0E6E3F0E08081282F30E08B81882F04
:1013300090E0A90102C0559547958A95E2F7CA0148
:101340008170898323C0E3E3F0E08081282F30E0BF
:101350008B81882F90E0A90102C0559547958A9509
:10136000E2F7CA018170898311C0E0E3F0E0808177
:10137000282F30E08B81882F90E0A90102C055957D
:1013800047958A95E2F7CA018170898389810F9018
:101390000F900F900F900F90CF91DF910895DF93F2
:1013A000CF93CDB7DEB781E060EF0E94570881E0B0
:1013B0006FEF0E949808CF91DF910895DF93CF934C
:1013C000CDB7DEB7AF970FB6F894DEBF0FBECDBF77
:1013D0008FEF8A8BCE0143969CA78BA7E2EFF1E0BB
:1013E000FEA7EDA7F0E1FFA7EDA5FEA500808DA566
:1013F0009EA501969EA78DA7EBA5FCA500828BA5B7
:101400009CA501969CA78BA79FA591509FA7EFA590
:10141000EE2351F784E08BA385E08CA386E08DA3B7
:1014200087E08EA31FA281E088A782E089A783E0DE
:101430008AA7188AD2C08889282F30E0CE018396E7
:10144000FC01E20FF31F908181E0692F40E00E94D0
:101450004F071F86ADC08F85282F30E0CE018796BD
:10146000FC01E20FF31F908181E0692F0E94560971
:10147000898B8989882309F098C08F85282F30E0CF
:101480008889482F50E0220F331F220F331FCE01CF
:101490000196820F931F840F951FFC017296808125
:1014A0008A8B0EC08F85282F30E0CE018796FC01F5
:1014B000E20FF31F908181E0692F0E945609898B0A
:1014C0008989882379F380E090E0A0E2B1E48B87FA
:1014D0009C87AD87BE876B857C858D859E8520E04A
:1014E00030E04AE755E40E941702DC01CB018F830C
:1014F0009887A987BA876F81788589859A8520E042
:1015000030E040E85FE30E941D0488232CF481E072
:1015100090E09E838D833FC06F81788589859A8511
:1015200020E03FEF4FE757E40E94BD0318164CF54B
:101530006B857C858D859E8520E030E040E251E41E
:101540000E941702DC01CB01BC01CD010E944100C9
:10155000DC01CB019E838D830FC080E991E09C83E9
:101560008B838B819C810197F1F79C838B838D8189
:101570009E8101979E838D838D819E81009769F75F
:1015800014C06F81788589859A850E944100DC01AD
:10159000CB019E838D838D819E819A8389838981EE
:1015A0009A810197F1F79A8389838F858F5F8F875F
:1015B0008F85843008F44FCF8889282F30E0CE0102
:1015C0008396FC01E20FF31F908181E0692F41E0D7
:1015D0000E944F0788898F5F888B8889843008F440
:1015E0002ACF8A89AF960FB6F894DEBF0FBECDBF63
:1015F000CF91DF910895DF93CF93CDB7DEB7699791
:101600000FB6F894DEBF0FBECDBF898F80E063E0D8
:1016100040E00E944F0780E061E040E00E944F07F9
:1016200082E0698D0E94980880E062E041E00E94BB
:101630004F0780E090E0A0E8BFE38D8B9E8BAF8BDF
:10164000B88F6D897E898F89988D2BEA3AEA4AEAAC
:1016500050E40E941702DC01CB01898B9A8BAB8B83
:10166000BC8B69897A898B899C8920E030E040E8CD
:101670005FE30E941D0488231CF481E0888B91C0E5
:1016800069897A898B899C8920E030E04FE753E4AF
:101690000E94BD0318160CF07BC06D897E898F896E
:1016A000988D20E030E04AE754E40E941103DC0109
:1016B000CB018C879D87AE87BF876C857D858E85A6
:1016C0009F8520E030E04AE755E40E941702DC01E4
:1016D000CB0188879987AA87BB87688579858A85A2
:1016E0009B8520E030E040E85FE30E941D048823F2
:1016F0002CF481E090E09F838E833FC068857985DC
:101700008A859B8520E03FEF4FE757E40E94BD03A9
:1017100018164CF56C857D858E859F8520E030E020
:1017200040E251E40E941702DC01CB01BC01CD0173
:101730000E944100DC01CB019F838E830FC080E9B2
:1017400091E09D838C838C819D810197F1F79D832E
:101750008C838E819F8101979F838E838E819F8151
:10176000009769F724C0688579858A859B850E94E2
:101770004100DC01CB019F838E838E819F819B83FF
:101780008A838A819B810197F1F79B838A830FC0AB
:1017900069897A898B899C890E944100DC01CB018F
:1017A000888B8889898389818A95F1F7898380E08C
:1017B00062E040E00E944F0769960FB6F894DEBFE2
:1017C0000FBECDBFCF91DF910895DF93CF93CDB7FB
:1017D000DEB769970FB6F894DEBF0FBECDBF898F15
:1017E00080E063E041E00E944F0780E061E040E07C
:1017F0000E944F0782E0698D0E94980880E062E0B5
:1018000041E00E944F0780E090E0A0E8BFE38D8BAD
:101810009E8BAF8BB88F6D897E898F89988D2BEACF
:101820003AEA4AEA50E40E941702DC01CB01898BB4
:101830009A8BAB8BBC8B69897A898B899C8920E0D8
:1018400030E040E85FE30E941D0488231CF481E03F
:10185000888B91C069897A898B899C8920E030E0E6
:101860004FE753E40E94BD0318160CF07BC06D894E
:101870007E898F89988D20E030E04AE754E40E9409
:101880001103DC01CB018C879D87AE87BF876C85F8
:101890007D858E859F8520E030E04AE755E40E94F3
:1018A0001702DC01CB0188879987AA87BB876885E7
:1018B00079858A859B8520E030E040E85FE30E94DF
:1018C0001D0488232CF481E090E09F838E833FC029
:1018D000688579858A859B8520E03FEF4FE757E44F
:1018E0000E94BD0318164CF56C857D858E859F85FD
:1018F00020E030E040E251E40E941702DC01CB011D
:10190000BC01CD010E944100DC01CB019F838E838D
:101910000FC080E991E09D838C838C819D8101972C
:10192000F1F79D838C838E819F8101979F838E83A6
:101930008E819F81009769F724C0688579858A85A3
:101940009B850E944100DC01CB019F838E838E81A9
:101950009F819B838A838A819B810197F1F79B8377
:101960008A830FC069897A898B899C890E9441008A
:10197000DC01CB01888B8889898389818A95F1F77D
:10198000898380E062E040E00E944F0769960FB6CD
:10199000F894DEBF0FBECDBFCF91DF9108950F93B6
:1019A0001F93DF93CF93CDB7DEB7CC54D0400FB6A3
:1019B000F894DEBF0FBECDBF82E06FEF0E945708E4
:1019C00080E062E041E00E94470680E061E041E0A3
:1019D0000E94470680E063E041E00E944706FE0166
:1019E000E75BFF4F80E090E0ACE0B2E4808391835E
:1019F000A283B3838E010B5B1F4FFE01E75BFF4F9A
:101A0000608171818281938120E030E04AE755E472
:101A10000E941702DC01CB01F80180839183A2832D
:101A2000B383FE01EB5BFF4F608171818281938103
:101A300020E030E040E85FE30E941D04882344F486
:101A4000FE01ED5BFF4F81E090E09183808364C0F5
:101A5000FE01EB5BFF4F608171818281938120E009
:101A60003FEF4FE757E40E94BD0318160CF043C048
:101A7000FE01E75BFF4F608171818281938120E0ED
:101A800030E040E251E40E941702DC01CB018E01FC
:101A90000D5B1F4FBC01CD010E944100DC01CB0159
:101AA000F801918380831FC0FE01EF5BFF4F80E947
:101AB00091E091838083FE01EF5BFF4F80819181F4
:101AC0000197F1F7FE01EF5BFF4F91838083DE0109
:101AD000AD5BBF4FFE01ED5BFF4F808191810197B0
:101AE00011969C938E93FE01ED5BFF4F8081918157
:101AF0000097D1F624C08E010D5B1F4FFE01EB5BFA
:101B0000FF4F60817181828193810E944100DC01DD
:101B1000CB01F80191838083FE01ED5BFF4F808153
:101B20009181FE01FF9691838083FE01FF96808163
:101B300091810197F1F7FE01FF969183808388E3FD
:101B40000E94FB0A80E090E0A8E4B2E48BAF9CAF77
:101B5000ADAFBEAF6BAD7CAD8DAD9EAD2BEA3AEABD
:101B60004AEA50E40E941702DC01CB018FAB98AF28
:101B7000A9AFBAAF6FA978AD89AD9AAD20E030E0DA
:101B800040E85FE30E941D0488231CF481E08EABD3
:101B900091C06FA978AD89AD9AAD20E030E04FE7F4
:101BA00053E40E94BD0318160CF07BC06BAD7CADF6
:101BB0008DAD9EAD20E030E04AE754E40E94110371
:101BC000DC01CB018AAB9BABACABBDAB6AA97BA9FB
:101BD0008CA99DA920E030E04AE755E40E94170255
:101BE000DC01CB018EA79FA7A8ABB9AB6EA57FA5E3
:101BF00088A999A920E030E040E85FE30E941D0435
:101C000088232CF481E090E09DA78CA73FC06EA5AF
:101C10007FA588A999A920E03FEF4FE757E40E94EC
:101C2000BD0318164CF56AA97BA98CA99DA920E0D3
:101C300030E040E251E40E941702DC01CB01BC011C
:101C4000CD010E944100DC01CB019DA78CA70FC0F4
:101C500080E991E09BA78AA78AA59BA50197F1F748
:101C60009BA78AA78CA59DA501979DA78CA78CA54E
:101C70009DA5009769F724C06EA57FA588A999A99D
:101C80000E944100DC01CB019DA78CA78CA59DA5DE
:101C900099A788A788A599A50197F1F799A788A77B
:101CA0000FC06FA978AD89AD9AAD0E944100DC01EB
:101CB000CB018EAB8EA98FA38FA18A95F1F78FA34D
:101CC0008CE00E94FB0A80E090E0A8E4B2E48BA3E1
:101CD0009CA3ADA3BEA36BA17CA18DA19EA12BEA69
:101CE0003AEA4AEA50E40E941702DC01CB018F8FE6
:101CF00098A3A9A3BAA36F8D78A189A19AA120E086
:101D000030E040E85FE30E941D0488231CF481E07A
:101D10008E8F91C06F8D78A189A19AA120E030E0CB
:101D20004FE753E40E94BD0318160CF07BC06BA173
:101D30007CA18DA19EA120E030E04AE754E40E94FE
:101D40001103DC01CB018A8F9B8FAC8FBD8F6A8D15
:101D50007B8D8C8D9D8D20E030E04AE755E40E941C
:101D60001702DC01CB018E8B9F8BA88FB98F6E89F8
:101D70007F89888D998D20E030E040E85FE30E9404
:101D80001D0488232CF481E090E09D8B8C8B3FC058
:101D90006E897F89888D998D20E03FEF4FE757E46A
:101DA0000E94BD0318164CF56A8D7B8D8C8D9D8D20
:101DB00020E030E040E251E40E941702DC01CB0158
:101DC000BC01CD010E944100DC01CB019D8B8C8BBD
:101DD0000FC080E991E09B8B8A8B8A899B89019750
:101DE000F1F79B8B8A8B8C899D8901979D8B8C8BBE
:101DF0008C899D89009769F724C06E897F89888DB9
:101E0000998D0E944100DC01CB019D8B8C8B8C89CC
:101E10009D89998B888B888999890197F1F7998B8E
:101E2000888B0FC06F8D78A189A19AA10E94410073
:101E3000DC01CB018E8F8E8D8F878F858A95F1F790
:101E40008F8781E00E94FB0A80E090E0A0E0B0E490
:101E50008B879C87AD87BE876B857C858D859E85AE
:101E600020E030E04AE755E40E941702DC01CB0194
:101E70008F839887A987BA876F81788589859A85A6
:101E800020E030E040E85FE30E941D0488232CF44A
:101E900081E090E09E838D833FC06F817885898546
:101EA0009A8520E03FEF4FE757E40E94BD031816E4
:101EB0004CF56B857C858D859E8520E030E040E289
:101EC00051E40E941702DC01CB01BC01CD010E944C
:101ED0004100DC01CB019E838D830FC080E991E03E
:101EE0009C838B838B819C810197F1F79C838B83EF
:101EF0008D819E8101979E838D838D819E81009728
:101F000069F714C06F81788589859A850E944100A0
:101F1000DC01CB019E838D838D819E819A83898391
:101F200089819A810197F1F79A83898386E00E94DB
:101F3000FB0AC45BDF4F0FB6F894DEBF0FBECDBF08
:101F4000CF91DF911F910F910895DF93CF9300D030
:101F5000CDB7DEB79A8389830AC0E981FA8180818F
:101F60000E94E50B89819A8101969A838983E98190
:101F7000FA818081882389F70F900F90CF91DF91AC
:101F80000895DF93CF93CDB7DEB762970FB6F8947D
:101F9000DEBF0FBECDBF8F87688B80E090E0A0E0F2
:101FA000B0E48B879C87AD87BE876B857C858D85EC
:101FB0009E8520E030E04AE755E40E941702DC01EC
:101FC000CB018F839887A987BA876F8178858985A8
:101FD0009A8520E030E040E85FE30E941D048823FA
:101FE0002CF481E090E09E838D833FC06F817885E3
:101FF00089859A8520E03FEF4FE757E40E94BD03B3
:1020000018164CF56B857C858D859E8520E030E02B
:1020100040E251E40E941702DC01CB01BC01CD017A
:102020000E944100DC01CB019E838D830FC080E9BB
:1020300091E09C838B838B819C810197F1F79C833A
:102040008B838D819E8101979E838D838D819E815F
:10205000009769F714C06F81788589859A850E94F9
:102060004100DC01CB019E838D838D819E819A830B
:10207000898389819A810197F1F79A8389838F8572
:10208000282F30E03A8B298B89899A8981309105F4
:1020900031F029893A892230310531F009C0888927
:1020A00080580E94FB0A04C0888980540E94FB0A61
:1020B00062960FB6F894DEBF0FBECDBFCF91DF9111
:1020C0000895DF93CF93CDB7DEB7A4970FB6F894FA
:1020D000DEBF0FBECDBF69A37AA38BA39CA389A14A
:1020E0009AA19E012F5F3F4FB9014AE050E00E9444
:1020F0000F26CE0101960E94A50FA4960FB6F89464
:10210000DEBF0FBECDBFCF91DF910895DF93CF9398
:10211000CDB7DEB7AFE4B0E0EFE4F0E080818E7FD2
:102120008C93AFE4B0E0EFE4F0E0808182608C93C8
:10213000AEE4B0E0EEE4F0E0808188608C93AEE441
:10214000B0E0EEE4F0E0808180618C93AFE4B0E039
:10215000EFE4F0E080818F7B8C93AFE4B0E0EFE4BC
:10216000F0E0808180688C93AFE4B0E0EFE4F0E0D1
:1021700080818F7E8C93AFE4B0E0EFE4F0E080816B
:1021800080628C93E6E4F0E08FE39CE991838083A6
:10219000EAE4F0E088EB9BE091838083E8E4F0E000
:1021A00088EB9BE091838083AEE4B0E0EEE4F0E066
:1021B00080818E7F8C93AEE4B0E0EEE4F0E080812D
:1021C00082608C93AEE4B0E0EEE4F0E080818B7F3F
:1021D0008C93CF91DF910895DF93CF9300D0CDB74B
:1021E000DEB79A838983EAE4F0E089819A8191835A
:1021F00080830F900F90CF91DF910895DF93CF935D
:1022000000D0CDB7DEB79A838983E8E4F0E0898116
:102210009A81918380830F900F90CF91DF910895E1
:10222000DF93CF9300D00F92CDB7DEB780E88B83DA
:1022300087E690E09A838983E9E2F0E089818083F0
:10224000E0E4F0E089819A81892F99278083ABE2CD
:10225000B0E0EBE2F0E080818D7F8C93ABE2B0E008
:10226000EBE2F0E080818E7F8C93AAE2B0E0EAE2BC
:10227000F0E0808180618C93AAE2B0E0EAE2F0E0D5
:10228000808188608C93AAE2B0E0EAE2F0E080818D
:102290008B7F8C938B8182608B838B8184608B831B
:1022A0008B818F7B8B838B818F7E8B838B818F7DCB
:1022B0008B838B8188608B83E0E4F0E08B8180836B
:1022C0000F900F900F90CF91DF910895DF93CF93F0
:1022D0000F92CDB7DEB78983EBE2F0E08081829583
:1022E00086958770882F90E0817090700097A1F399
:1022F000ECE2F0E0898180830F90CF91DF91089527
:10230000DF93CF930F92CDB7DEB7EBE2F0E08081A1
:102310008823DCF7ECE2F0E08081898389810F90EB
:10232000CF91DF9108950F931F93DF93CF93CDB794
:10233000DEB7CE52D1400FB6F894DEBF0FBECDBF90
:10234000FE01E35DFE4F11821082FE01E45DFE4F4F
:102350008FEF8083FE01E65DFE4F1082FE01E75D98
:10236000FE4F81E08083FE01E85DFE4F81E08083C7
:102370000E94CF090E94CF0C0E9486100E9410116B
:1023800080E065E041E00E94470680E066E041E0D1
:102390000E94470680E067E041E00E94470683E034
:1023A00065E041E00E94470683E064E041E00E946E
:1023B000470680E064E041E00E94470683E063E076
:1023C00041E00E94470680E062E041E00E9447064B
:1023D00083E060E040E00E94470683E061E041E086
:1023E0000E944706E6E2F0E08FE88083E7E2F0E053
:1023F00080E48083AFE5B0E0EFE5F0E080818068C5
:102400008C93A6E2B0E0E6E2F0E0808180648C93F9
:1024100080E690E00E94A50F82E060E00E94C10F7C
:1024200081E790E00E94A50FFE01ED5DFE4F80E088
:1024300090E0A8ECB2E480839183A283B3838E0101
:10244000015E1E4FFE01ED5DFE4F60817181828154
:10245000938120E030E04AE755E40E941702DC0156
:10246000CB01F80180839183A283B383FE01E15EF7
:10247000FE4F608171818281938120E030E040E8ED
:102480005FE30E941D04882344F4FE01E35EFE4FD7
:1024900081E090E09183808364C0FE01E15EFE4FA5
:1024A000608171818281938120E03FEF4FE757E4A3
:1024B0000E94BD0318160CF043C0FE01ED5DFE4FF7
:1024C000608171818281938120E030E040E251E4BB
:1024D0000E941702DC01CB018E01035E1E4FBC017E
:1024E000CD010E944100DC01CB01F8019183808382
:1024F0001FC0FE01E55EFE4F80E991E0918380837D
:10250000FE01E55EFE4F808191810197F1F7FE01AA
:10251000E55EFE4F91838083DE01A35EBE4FFE0128
:10252000E35EFE4F80819181019711969C938E937B
:10253000FE01E35EFE4F808191810097D1F627C0B6
:102540008E01035E1E4FFE01E15EFE4F60817181D0
:10255000828193810E944100DC01CB01F8019183CB
:102560008083DE01A75EBE4FFE01E35EFE4F8081E9
:1025700091818D939C93FE01E75EFE4F8081918156
:102580000197F1F7FE01E75EFE4F9183808381E0C2
:102590000E94FB0A8DE790E00E94A50F82E060E0B8
:1025A0000E94C10F8BE890E00E94A50F0E94DE09F7
:1025B000FE01E45DFE4F8083FE01E45DFE4F8081FD
:1025C0008F3FA1F3FE01E45DFE4F8081803311F067
:1025D0000C94A81F81E00E94FB0A8BE990E00E9406
:1025E000A50F82E060E00E94C10F88EA90E00E949F
:1025F000A50F0E94DE09FE01E45DFE4F8083FE010F
:10260000E45DFE4F80818F3F11F40C948C1FFE011E
:10261000E45DFE4F80818D3309F18AE20E94E50B73
:10262000FE01E35DFE4F808191819C01220F331FEB
:10263000C901880F991F880F991F280F391FFE01A4
:10264000E45DFE4F8081882F90E0FE01E35DFE4F48
:10265000820F931F918380830C94991FFE01E45D88
:10266000FE4F80818D3311F00C948C1FFE01E35DD1
:10267000FE4F80819181F6E188319F0709F02BC5DB
:1026800080E067E041E00E944F0781E00E94FB0A82
:1026900084EB90E00E94A50F82E060E00E94C10FF1
:1026A00084EC90E00E94A50FFE01EB5EFE4F80E0FF
:1026B00090E0A8ECB3E480839183A283B3838E017E
:1026C0000F5E1E4FFE01EB5EFE4F608171818281C5
:1026D000938120E030E04AE755E40E941702DC01D4
:1026E000CB01F80180839183A283B383FE01EF5E67
:1026F000FE4F608171818281938120E030E040E86B
:102700005FE30E941D04882344F4FE01E15FFE4F55
:1027100081E090E09183808364C0FE01EF5EFE4F14
:10272000608171818281938120E03FEF4FE757E420
:102730000E94BD0318160CF043C0FE01EB5EFE4F75
:10274000608171818281938120E030E040E251E438
:102750000E941702DC01CB018E01015F1E4FBC01FC
:10276000CD010E944100DC01CB01F80191838083FF
:102770001FC0FE01E35FFE4F80E991E091838083FB
:10278000FE01E35FFE4F808191810197F1F7FE0129
:10279000E35FFE4F91838083DE01A15FBE4FFE01A8
:1027A000E15FFE4F80819181019711969C938E93FA
:1027B000FE01E15FFE4F808191810097D1F627C035
:1027C0008E01015F1E4FFE01EF5EFE4F6081718141
:1027D000828193810E944100DC01CB01F801918349
:1027E0008083DE01A55FBE4FFE01E15FFE4F808169
:1027F00091818D939C93FE01E55FFE4F80819181D5
:102800000197F1F7FE01E55FFE4F9183808381E040
:102810000E94FB0A84ED90E00E94A50F82E061E037
:102820000E94C10F8CED90E00E94A50F0E94DE096E
:10283000FE01E45DFE4F8083FE01E45DFE4F80817A
:102840008F3FA1F3FE01E45DFE4F8081803309F0EC
:10285000B6C181E00E94FB0A84EE90E00E94A50FC1
:1028600082E060E00E94C10F81EF90E00E94A50F1E
:102870008FE99FE00E94EC10FE01E95FFE4F80E0CF
:1028800090E0AAE7B4E480839183A283B3838E01AE
:102890000D5F1E4FFE01E95FFE4F608171818281F5
:1028A000938120E030E04AE755E40E941702DC0102
:1028B000CB01F80180839183A283B383FE01ED5F96
:1028C000FE4F608171818281938120E030E040E899
:1028D0005FE30E941D04882344F4FE01EF5FFE4F76
:1028E00081E090E09183808364C0FE01ED5FFE4F44
:1028F000608171818281938120E03FEF4FE757E44F
:102900000E94BD0318160CF043C0FE01E95FFE4FA4
:10291000608171818281938120E030E040E251E466
:102920000E941702DC01CB018E010F5F1E4FBC011C
:10293000CD010E944100DC01CB01F801918380832D
:102940001FC0FE01E150FF4F80E991E09183808339
:10295000FE01E150FF4F808191810197F1F7FE0167
:10296000E150FF4F91838083DE01AF5FBE4FFE01D8
:10297000EF5FFE4F80819181019711969C938E931A
:10298000FE01EF5FFE4F808191810097D1F627C055
:102990008E010F5F1E4FFE01ED5FFE4F6081718162
:1029A000828193810E944100DC01CB01F801918377
:1029B0008083DE01A350BF4FFE01EF5FFE4F808199
:1029C00091818D939C93FE01E350FF4F8081918113
:1029D0000197F1F7FE01E350FF4F9183808381E07F
:1029E0000E94FB0A84EE90E00E94A50F82E060E066
:1029F0000E94C10F8DEF90E00E94A50F88EB9BE035
:102A00000E94EC10FE01E750FF4F80E090E0A8EC40
:102A1000B2E480839183A283B3838E010B501F4F56
:102A2000FE01E750FF4F608171818281938120E038
:102A300030E04AE755E40E941702DC01CB01F801BF
:102A400080839183A283B383FE01EB50FF4F6081AB
:102A500071818281938120E030E040E85FE30E9451
:102A60001D04882344F4FE01ED50FF4F81E090E007
:102A70009183808364C0FE01EB50FF4F60817181C0
:102A80008281938120E03FEF4FE757E40E94BD032E
:102A900018160CF043C0FE01E750FF4F60817181B2
:102AA0008281938120E030E040E251E40E941702ED
:102AB000DC01CB018E010D501F4FBC01CD010E94E6
:102AC0004100DC01CB01F801918380831FC0FE012E
:102AD000EF50FF4F80E991E091838083FE01EF503A
:102AE000FF4F808191810197F1F7FE01EF50FF4F79
:102AF00091838083DE01AD50BF4FFE01ED50FF4F4B
:102B000080819181019711969C938E93FE01ED50E7
:102B1000FF4F808191810097D1F627C08E010D5023
:102B20001F4FFE01EB50FF4F6081718182819381C5
:102B30000E944100DC01CB01F80191838083DE011A
:102B4000A151BF4FFE01ED50FF4F808191818D93C8
:102B50009C93FE01E151FF4F808191810197F1F734
:102B6000FE01E151FF4F9183808381E00E94661155
:102B700080E067E040E00E944F0781E00E94FB0A8E
:102B80008DE790E00E94A50F82E060E00E94C10FF7
:102B90008BE890E00E94A50FFE01E75DFE4F1082DA
:102BA000FE01E85DFE4F1082FE01E65DFE4F1082E1
:102BB000FE01E35DFE4F118210820C948C1FFE011A
:102BC000E45DFE4F8081813009F0B3C181E00E9455
:102BD000FB0A8EE091E00E94A50F82E060E00E9477
:102BE000C10F8BE191E00E94A50F8FE99FE00E9449
:102BF000FE10FE01E551FF4F80E090E0AAE7B4E44B
:102C000080839183A283B3838E0109511F4FFE01FC
:102C1000E551FF4F608171818281938120E030E036
:102C20004AE755E40E941702DC01CB01F8018083DA
:102C30009183A283B383FE01E951FF4F60817181CB
:102C40008281938120E030E040E85FE30E941D0430
:102C5000882344F4FE01EB51FF4F81E090E0918323
:102C6000808364C0FE01E951FF4F608171818281E0
:102C7000938120E03FEF4FE757E40E94BD03181611
:102C80000CF043C0FE01E551FF4F608171818281EC
:102C9000938120E030E040E251E40E941702DC0121
:102CA000CB018E010B511F4FBC01CD010E94410091
:102CB000DC01CB01F801918380831FC0FE01ED513F
:102CC000FF4F80E991E091838083FE01ED51FF4F3A
:102CD000808191810197F1F7FE01ED51FF4F9183C2
:102CE0008083DE01AB51BF4FFE01EB51FF4F80816E
:102CF0009181019711969C938E93FE01EB51FF4FAA
:102D0000808191810097D1F627C08E010B511F4F12
:102D1000FE01E951FF4F60817181828193810E94A0
:102D20004100DC01CB01F80191838083DE01AF51CA
:102D3000BF4FFE01EB51FF4F808191818D939C939A
:102D4000FE01EF51FF4F808191810197F1F7FE0164
:102D5000EF51FF4F9183808381E00E94FB0A86E25E
:102D600091E00E94A50F82E060E00E94C10F8DEF0C
:102D700090E00E94A50F88EB9BE00E94FE10FE01F0
:102D8000E352FF4F80E090E0A8ECB2E480839183AF
:102D9000A283B3838E0107521F4FFE01E352FF4F00
:102DA000608171818281938120E030E04AE755E4BF
:102DB0000E941702DC01CB01F80180839183A2837A
:102DC000B383FE01E752FF4F60817181828193815D
:102DD00020E030E040E85FE30E941D04882344F4D3
:102DE000FE01E952FF4F81E090E09183808364C04F
:102DF000FE01E752FF4F608171818281938120E063
:102E00003FEF4FE757E40E94BD0318160CF043C094
:102E1000FE01E352FF4F608171818281938120E046
:102E200030E040E251E40E941702DC01CB018E0148
:102E300009521F4FBC01CD010E944100DC01CB01B2
:102E4000F801918380831FC0FE01EB52FF4F80E9A0
:102E500091E091838083FE01EB52FF4F808191814D
:102E60000197F1F7FE01EB52FF4F91838083DE0162
:102E7000A952BF4FFE01E952FF4F80819181019716
:102E800011969C938E93FE01E952FF4F80819181B0
:102E90000097D1F627C08E0109521F4FFE01E7525D
:102EA000FF4F60817181828193810E944100DC012A
:102EB000CB01F80191838083DE01AD52BF4FFE014B
:102EC000E952FF4F808191818D939C93FE01ED52D9
:102ED000FF4F808191810197F1F7FE01ED52FF4F85
:102EE0009183808380E067E040E00E944F0781E0AB
:102EF0000E94FB0A8DE790E00E94A50F82E060E04F
:102F00000E94C10F8BE890E00E94A50FFE01E75DD3
:102F1000FE4F1082FE01E85DFE4F1082FE01E65D6D
:102F2000FE4F1082FE01E35DFE4F118210820C9471
:102F30008C1F81E00E94FB0A84E391E00E94A50FB0
:102F400082E060E00E94C10F82E491E00E94A50F40
:102F5000FE01E153FF4F80E090E0AAEFB3E48083ED
:102F60009183A283B3838E0105531F4FFE01E1536A
:102F7000FF4F608171818281938120E030E04AE7D8
:102F800055E40E941702DC01CB01F8018083918394
:102F9000A283B383FE01E553FF4F6081718182817B
:102FA000938120E030E040E85FE30E941D04882325
:102FB00044F4FE01E753FF4F81E090E0918380836A
:102FC00064C0FE01E553FF4F60817181828193816E
:102FD00020E03FEF4FE757E40E94BD0318160CF0C6
:102FE00043C0FE01E153FF4F608171818281938173
:102FF00020E030E040E251E40E941702DC01CB0106
:103000008E0107531F4FBC01CD010E944100DC011E
:10301000CB01F801918380831FC0FE01E953FF4F6C
:1030200080E991E091838083FE01E953FF4F808125
:1030300091810197F1F7FE01E953FF4F918380835E
:10304000DE01A753BF4FFE01E753FF4F80819181FF
:10305000019711969C938E93FE01E753FF4F808159
:1030600091810097D1F627C08E0107531F4FFE01B3
:10307000E553FF4F60817181828193810E944100FD
:10308000DC01CB01F80191838083DE01AB53BF4F9C
:10309000FE01E753FF4F808191818D939C93FE0148
:1030A000EB53FF4F808191810197F1F7FE01EB53C4
:1030B000FF4F9183808381E00E94FB0A84ED90E0C2
:1030C0000E94A50F82E061E00E94C10F8CED90E0AC
:1030D0000E94A50FABCBFE01E35DFE4F8081918185
:1030E000F7E1843E9F0709F029C580E067E041E0F1
:1030F0000E944F0781E00E94FB0A84EB90E00E944F
:10310000A50F82E060E00E94C10F8FE491E00E9471
:10311000A50FFE01EF53FF4F80E090E0AAEFB3E46C
:1031200080839183A283B3838E0103541F4FFE01DA
:10313000EF53FF4F608171818281938120E030E005
:103140004AE755E40E941702DC01CB01F8018083B5
:103150009183A283B383FE01E354FF4F60817181A9
:103160008281938120E030E040E85FE30E941D040B
:10317000882344F4FE01E554FF4F81E090E0918301
:10318000808364C0FE01E354FF4F608171818281BE
:10319000938120E03FEF4FE757E40E94BD031816EC
:1031A0000CF043C0FE01EF53FF4F608171818281BB
:1031B000938120E030E040E251E40E941702DC01FC
:1031C000CB018E0105541F4FBC01CD010E9441006F
:1031D000DC01CB01F801918380831FC0FE01E7541D
:1031E000FF4F80E991E091838083FE01E754FF4F18
:1031F000808191810197F1F7FE01E754FF4F9183A0
:103200008083DE01A554BF4FFE01E554FF4F80814E
:103210009181019711969C938E93FE01E554FF4F87
:10322000808191810097D1F627C08E0105541F4FF0
:10323000FE01E354FF4F60817181828193810E947E
:103240004100DC01CB01F80191838083DE01A954A8
:10325000BF4FFE01E554FF4F808191818D939C9378
:10326000FE01E954FF4F808191810197F1F7FE0142
:10327000E954FF4F9183808381E00E94FB0A84ED33
:1032800090E00E94A50F82E061E00E94C10F8CEDEA
:1032900090E00E94A50F0E94DE09FE01E45DFE4F52
:1032A0008083FE01E45DFE4F80818F3FA1F3FE012C
:1032B000E45DFE4F8081803309F0B5C181E00E945A
:1032C000FB0A84EE90E00E94A50F82E060E00E947D
:1032D000C10F81EF90E00E94A50F8FE99FE00E944F
:1032E000EC10FE01ED54FF4F80E090E0AAE7B4E45B
:1032F00080839183A283B3838E0101551F4FFE010A
:10330000ED54FF4F608171818281938120E030E034
:103310004AE755E40E941702DC01CB01F8018083E3
:103320009183A283B383FE01E155FF4F60817181D8
:103330008281938120E030E040E85FE30E941D0439
:10334000882344F4FE01E355FF4F81E090E0918330
:10335000808364C0FE01E155FF4F608171818281ED
:10336000938120E03FEF4FE757E40E94BD0318161A
:103370000CF043C0FE01ED54FF4F608171818281EA
:10338000938120E030E040E251E40E941702DC012A
:10339000CB018E0103551F4FBC01CD010E9441009E
:1033A000DC01CB01F801918380831FC0FE01E5554C
:1033B000FF4F80E991E091838083FE01E555FF4F47
:1033C000808191810197F1F7FE01E555FF4F9183CF
:1033D0008083DE01A355BF4FFE01E355FF4F80817F
:1033E0009181019711969C938E93FE01E355FF4FB7
:1033F000808191810097D1F627C08E0103551F4F20
:10340000FE01E155FF4F60817181828193810E94AD
:103410004100DC01CB01F80191838083DE01A755D7
:10342000BF4FFE01E355FF4F808191818D939C93A7
:10343000FE01E755FF4F808191810197F1F7FE0171
:10344000E755FF4F9183808381E00E94FB0A84EE61
:1034500090E00E94A50F82E060E00E94C10F8DEF16
:1034600090E00E94A50F88EB9BE00E94EC10FE010B
:10347000EB55FF4F80E090E0AAEFB3E480839183A7
:10348000A283B3838E010F551F4FFE01EB55FF4FF3
:10349000608171818281938120E030E04AE755E4C8
:1034A0000E941702DC01CB01F80180839183A28383
:1034B000B383FE01EF55FF4F60817181828193815B
:1034C00020E030E040E85FE30E941D04882344F4DC
:1034D000FE01E156FF4F81E090E09183808364C05C
:1034E000FE01EF55FF4F608171818281938120E061
:1034F0003FEF4FE757E40E94BD0318160CF043C09E
:10350000FE01EB55FF4F608171818281938120E044
:1035100030E040E251E40E941702DC01CB018E0151
:1035200001561F4FBC01CD010E944100DC01CB01BF
:10353000F801918380831FC0FE01E356FF4F80E9AD
:1035400091E091838083FE01E356FF4F808191815A
:103550000197F1F7FE01E356FF4F91838083DE016F
:10356000A156BF4FFE01E156FF4F80819181019727
:1035700011969C938E93FE01E156FF4F80819181BD
:103580000097D1F627C08E0101561F4FFE01EF555F
:10359000FF4F60817181828193810E944100DC0133
:1035A000CB01F80191838083DE01A556BF4FFE0158
:1035B000E156FF4F808191818D939C93FE01E556EA
:1035C000FF4F808191810197F1F7FE01E556FF4F92
:1035D0009183808382E00E94661180E067E040E092
:1035E0000E944F0781E00E94FB0A8DE790E00E9455
:1035F000A50F82E060E00E94C10F8BE890E00E947E
:10360000A50FFE01E75DFE4F1082FE01E85DFE4F53
:103610001082FE01E65DFE4F1082FE01E35DFE4F6B
:103620001182108279C4FE01E45DFE4F80818130F9
:1036300009F0B2C181E00E94FB0A8EE091E00E9495
:10364000A50F82E060E00E94C10F8BE191E00E9433
:10365000A50F8FE99FE00E94FE10FE01E956FF4F83
:1036600080E090E0AAE7B4E480839183A283B383EF
:103670008E010D561F4FFE01E956FF4F608171818B
:103680008281938120E030E04AE755E40E941702EE
:10369000DC01CB01F80180839183A283B383FE0117
:1036A000ED56FF4F608171818281938120E030E08F
:1036B00040E85FE30E941D04882344F4FE01EF56B6
:1036C000FF4F81E090E09183808364C0FE01ED565E
:1036D000FF4F608171818281938120E03FEF4FE74E
:1036E00057E40E94BD0318160CF043C0FE01E956D2
:1036F000FF4F608171818281938120E030E040E260
:1037000051E40E941702DC01CB018E010F561F4FBE
:10371000BC01CD010E944100DC01CB01F801918385
:1037200080831FC0FE01E157FF4F80E991E0918344
:103730008083FE01E157FF4F808191810197F1F76E
:10374000FE01E157FF4F91838083DE01AF56BF4FEB
:10375000FE01EF56FF4F80819181019711969C9356
:103760008E93FE01EF56FF4F808191810097D1F635
:1037700027C08E010F561F4FFE01ED56FF4F60818F
:103780007181828193810E944100DC01CB01F801AB
:1037900091838083DE01A357BF4FFE01EF56FF4F99
:1037A000808191818D939C93FE01E357FF4F80812F
:1037B00091810197F1F7FE01E357FF4F91838083D9
:1037C00081E00E94FB0A86E291E00E94A50F82E060
:1037D00060E00E94C10F8DEF90E00E94A50F88EB82
:1037E0009BE00E94FE10FE01E757FF4F80E090E053
:1037F000AAEFB3E480839183A283B3838E010B5736
:103800001F4FFE01E757FF4F6081718182819381D5
:1038100020E030E04AE755E40E941702DC01CB01CA
:10382000F80180839183A283B383FE01EB57FF4F9E
:10383000608171818281938120E030E040E85FE324
:103840000E941D04882344F4FE01ED57FF4F81E0E0
:1038500090E09183808364C0FE01EB57FF4F60814D
:1038600071818281938120E03FEF4FE757E40E940E
:10387000BD0318160CF043C0FE01E757FF4F6081EF
:1038800071818281938120E030E040E251E40E9426
:103890001702DC01CB018E010D571F4FBC01CD017A
:1038A0000E944100DC01CB01F801918380831FC09D
:1038B000FE01EF57FF4F80E991E091838083FE0185
:1038C000EF57FF4F808191810197F1F7FE01EF578C
:1038D000FF4F91838083DE01AD57BF4FFE01ED574F
:1038E000FF4F80819181019711969C938E93FE01E9
:1038F000ED57FF4F808191810097D1F627C08E014F
:103900000D571F4FFE01EB57FF4F60817181828180
:1039100093810E944100DC01CB01F80191838083F7
:10392000DE01A158BF4FFE01ED57FF4F808191810D
:103930008D939C93FE01E158FF4F80819181019707
:10394000F1F7FE01E158FF4F9183808380E067E04B
:1039500040E00E944F0781E00E94FB0A8DE790E063
:103960000E94A50F82E060E00E94C10F8BE890E00A
:103970000E94A50FFE01E75DFE4F1082FE01E85D8B
:10398000FE4F1082FE01E65DFE4F1082FE01E35DF8
:10399000FE4F11821082C0C281E00E94FB0A84E3C4
:1039A00091E00E94A50F82E060E00E94C10F82E4D6
:1039B00091E00E94A50FFE01E558FF4F80E090E0E6
:1039C000AAEFB3E480839183A283B3838E01095865
:1039D0001F4FFE01E558FF4F608171818281938105
:1039E00020E030E04AE755E40E941702DC01CB01F9
:1039F000F80180839183A283B383FE01E958FF4FCE
:103A0000608171818281938120E030E040E85FE352
:103A10000E941D04882344F4FE01EB58FF4F81E00F
:103A200090E09183808364C0FE01E958FF4F60817C
:103A300071818281938120E03FEF4FE757E40E943C
:103A4000BD0318160CF043C0FE01E558FF4F60811E
:103A500071818281938120E030E040E251E40E9454
:103A60001702DC01CB018E010B581F4FBC01CD01A9
:103A70000E944100DC01CB01F801918380831FC0CB
:103A8000FE01ED58FF4F80E991E091838083FE01B4
:103A9000ED58FF4F808191810197F1F7FE01ED58BC
:103AA000FF4F91838083DE01AB58BF4FFE01EB587F
:103AB000FF4F80819181019711969C938E93FE0117
:103AC000EB58FF4F808191810097D1F627C08E017E
:103AD0000B581F4FFE01E958FF4F608171818281B1
:103AE00093810E944100DC01CB01F8019183808326
:103AF000DE01AF58BF4FFE01EB58FF4F808191812F
:103B00008D939C93FE01EF58FF4F80819181019727
:103B1000F1F7FE01EF58FF4F9183808381E00E940F
:103B2000FB0A84ED90E00E94A50F82E061E00E9414
:103B3000C10F8CED90E00E94A50FADCB81E00E94FB
:103B4000FB0AFE01E55DFE4F83E08083DE01A65D9A
:103B5000BE4FFE01E65DFE4F80818F5F8C93FE01BC
:103B6000E65DFE4F8081833008F0F0C08EE591E085
:103B70000E94A50F82E060E00E94C10F8EE691E0F6
:103B80000E94A50F9E01295D3E4FFE01E55DFE4F9F
:103B9000DE01A65DBE4F90818C91F92FF81B8F2F0F
:103BA000F9018083FE01E95DFE4F8081882F90E05E
:103BB000A0E0B0E0BC01CD010E946110FE01E3591C
:103BC000FF4F80E090E0AAEFB3E480839183A2836B
:103BD000B3838E0107591F4FFE01E359FF4F6081E8
:103BE00071818281938120E030E04AE755E40E94B0
:103BF0001702DC01CB01F80180839183A283B38398
:103C0000FE01E759FF4F608171818281938120E03D
:103C100030E040E85FE30E941D04882344F4FE0185
:103C2000E959FF4F81E090E09183808364C0FE01F9
:103C3000E759FF4F608171818281938120E03FEFDE
:103C40004FE757E40E94BD0318160CF043C0FE0175
:103C5000E359FF4F608171818281938120E030E0E0
:103C600040E251E40E941702DC01CB018E010959A8
:103C70001F4FBC01CD010E944100DC01CB01F801C6
:103C8000918380831FC0FE01EB59FF4F80E991E0D3
:103C900091838083FE01EB59FF4F808191810197D1
:103CA000F1F7FE01EB59FF4F91838083DE01A959A3
:103CB000BF4FFE01E959FF4F808191810197119615
:103CC0009C938E93FE01E959FF4F8081918100976B
:103CD000D1F627C08E0109591F4FFE01E759FF4F4A
:103CE00060817181828193810E944100DC01CB015E
:103CF000F80191838083DE01AD59BF4FFE01E95980
:103D0000FF4F808191818D939C93FE01ED59FF4F70
:103D1000808191810197F1F7FE01ED59FF4F918369
:103D2000808381E00E94FB0A8BE990E00E94A50F4E
:103D300082E060E00E94C10F88EA90E00E94A50F37
:103D4000FE01E35DFE4F11821082F3C080E065E06A
:103D500041E00E944F078AE791E00E94A50F82E0B0
:103D600060E00E94C10F89E891E00E94A50FFE016A
:103D7000E15AFF4F80E090E0AAE7B4E480839183AA
:103D8000A283B3838E01055A1F4FFE01E15AFF4FF4
:103D9000608171818281938120E030E04AE755E4BF
:103DA0000E941702DC01CB01F80180839183A2837A
:103DB000B383FE01E55AFF4F608171818281938157
:103DC00020E030E040E85FE30E941D04882344F4D3
:103DD000FE01E75AFF4F81E090E09183808364C049
:103DE000FE01E55AFF4F608171818281938120E05D
:103DF0003FEF4FE757E40E94BD0318160CF043C095
:103E0000FE01E15AFF4F608171818281938120E040
:103E100030E040E251E40E941702DC01CB018E0148
:103E2000075A1F4FBC01CD010E944100DC01CB01AC
:103E3000F801918380831FC0FE01E95AFF4F80E99A
:103E400091E091838083FE01E95AFF4F8081918147
:103E50000197F1F7FE01E95AFF4F91838083DE015C
:103E6000A75ABF4FFE01E75AFF4F8081918101970A
:103E700011969C938E93FE01E75AFF4F80819181AA
:103E80000097D1F627C08E01075A1F4FFE01E55A51
:103E9000FF4F60817181828193810E944100DC012A
:103EA000CB01F80191838083DE01AB5ABF4FFE0145
:103EB000E75AFF4F808191818D939C93FE01EB5ACD
:103EC000FF4F808191810197F1F7FE01EB5AFF4F7F
:103ED0009183808380E065E040E00E944F0781E0AD
:103EE0000E94FB0A8DE790E00E94A50F82E060E04F
:103EF0000E94C10F8BE890E00E94A50FFE01E75DD4
:103F0000FE4F1082FE01E65DFE4F1082FE01E35D72
:103F1000FE4F118210820DC0FE01E85DFE4F8081D0
:103F2000882311F00C94F912FE01E85DFE4F81E048
:103F30008083FE01E75DFE4F8081882311F00C94A1
:103F4000F912FE01E75DFE4F81E080830C94D612EA
:103F5000FE01E45DFE4F8081813009F0E0C381E025
:103F60000E94FB0A88E991E00E94A50F82E060E0D0
:103F70000E94C10F88EA90E00E94A50F0E94DE090E
:103F8000FE01E45DFE4F8083FE01E45DFE4F808113
:103F90008F3F09F4AAC3FE01E45DFE4F80818D339B
:103FA00001F18AE20E94E50BFE01E35DFE4F808194
:103FB00091819C01220F331FC901880F991F880F1F
:103FC000991F280F391FFE01E45DFE4F8081882F65
:103FD00090E0FE01E35DFE4F820F931F918380838B
:103FE00090C3FE01E45DFE4F80818D3309F07DC3F7
:103FF000FE01E35DFE4F80819181F4E087359F07EC
:1040000009F007C280E066E041E00E944F0781E0CE
:104010000E94FB0A84EB90E00E94A50F82E060E022
:104020000E94C10F85EA91E00E94A50FFE01EF5AA0
:10403000FF4F80E090E0A8ECB2E480839183A283FC
:10404000B3838E01035B1F4FFE01EF5AFF4F608168
:1040500071818281938120E030E04AE755E40E943B
:104060001702DC01CB01F80180839183A283B38323
:10407000FE01E35BFF4F608171818281938120E0CB
:1040800030E040E85FE30E941D04882344F4FE0111
:10409000E55BFF4F81E090E09183808364C0FE0187
:1040A000E35BFF4F608171818281938120E03FEF6C
:1040B0004FE757E40E94BD0318160CF043C0FE0101
:1040C000EF5AFF4F608171818281938120E030E05F
:1040D00040E251E40E941702DC01CB018E01055B36
:1040E0001F4FBC01CD010E944100DC01CB01F80152
:1040F000918380831FC0FE01E75BFF4F80E991E061
:1041000091838083FE01E75BFF4F8081918101975E
:10411000F1F7FE01E75BFF4F91838083DE01A55B32
:10412000BF4FFE01E55BFF4F8081918101971196A2
:104130009C938E93FE01E55BFF4F808191810097F8
:10414000D1F627C08E01055B1F4FFE01E35BFF4FD9
:1041500060817181828193810E944100DC01CB01E9
:10416000F80191838083DE01A95BBF4FFE01E55B0F
:10417000FF4F808191818D939C93FE01E95BFF4FFE
:10418000808191810197F1F7FE01E95BFF4F9183F7
:10419000808381E00E94FB0A84EB91E00E94A50FDE
:1041A00083E00E94661180E064E041E00E944F07D6
:1041B000FE01ED5BFF4F80E090E0AAE7B4E480836E
:1041C0009183A283B3838E01015C1F4FFE01ED5BDF
:1041D000FF4F608171818281938120E030E04AE766
:1041E00055E40E941702DC01CB01F8018083918322
:1041F000A283B383FE01FF966081718182819381E6
:1042000020E030E040E85FE30E941D0488232CF4A6
:1042100081E090E09EAF8DAF46C0FE01FF966081C9
:1042200071818281938120E03FEF4FE757E40E9444
:10423000BD03181664F5FE01ED5BFF4F60817181CF
:104240008281938120E030E040E251E40E94170235
:10425000DC01CB01BC01CD010E944100DC01CB019E
:104260009EAF8DAF0FC080E991E09CAF8BAF8BAD5F
:104270009CAD0197F1F79CAF8BAF8DAD9EAD0197D3
:104280009EAF8DAF8DAD9EAD009769F716C0FE0154
:10429000FF9660817181828193810E944100DC01DF
:1042A000CB019EAF8DAF8DAD9EAD9AAF89AF89AD7D
:1042B0009AAD0197F1F79AAF89AF81E00E94FB0AAE
:1042C00084EC91E00E94A50F82E060E00E94C10FA3
:1042D0008FEC91E00E94A50F80E064E040E00E9436
:1042E0004F0780E066E040E00E944F0780E090E0EA
:1042F000A8ECB3E48DAB9EABAFABB8AF6DA97EA914
:104300008FA998AD20E030E04AE755E40E941702FB
:10431000DC01CB0189AB9AABABABBCAB69A97AA989
:104320008BA99CA920E030E040E85FE30E941D04D7
:1043300088232CF481E090E098AB8FA73FC069A957
:104340007AA98BA99CA920E03FEF4FE757E40E9490
:10435000BD0318164CF56DA97EA98FA998AD20E074
:1043600030E040E251E40E941702DC01CB01BC01C5
:10437000CD010E944100DC01CB0198AB8FA70FC09B
:1043800080E991E09EA78DA78DA59EA50197F1F7E5
:104390009EA78DA78FA598A9019798AB8FA78FA5EA
:1043A00098A9009769F714C069A97AA98BA99CA953
:1043B0000E944100DC01CB0198AB8FA78FA598A983
:1043C0009CA78BA78BA59CA50197F1F79CA78BA712
:1043D00081E00E94FB0A8DE790E00E94A50F82E039
:1043E00060E00E94C10F8BE890E00E94A50FFE01E3
:1043F000E75DFE4F1082FE01E85DFE4F1082FE0178
:10440000E65DFE4F1082FE01E35DFE4F11821082D9
:104410006CC181E00E94FB0AFE01E55DFE4F83E076
:104420008083DE01A65DBE4FFE01E65DFE4F80810A
:104430008F5F8C93FE01E65DFE4F8081833008F034
:10444000AFC08EE591E00E94A50F82E060E00E947F
:10445000C10F8EE691E00E94A50F9E01295D3E4F9F
:10446000FE01E55DFE4FDE01A65DBE4F90818C91A1
:10447000F92FF81B8F2FF9018083FE01E95DFE4FB4
:104480008081882F90E0A0E0B0E0BC01CD010E94C7
:10449000611080E090E0AAE7B4E48FA398A7A9A7F1
:1044A000BAA76FA178A589A59AA520E030E04AE7D0
:1044B00055E40E941702DC01CB018BA39CA3ADA3A2
:1044C000BEA36BA17CA18DA19EA120E030E040E8BD
:1044D0005FE30E941D0488232CF481E090E09AA3FE
:1044E00089A33FC06BA17CA18DA19EA120E03FEFDD
:1044F0004FE757E40E94BD0318164CF56FA178A54D
:1045000089A59AA520E030E040E251E40E9417021C
:10451000DC01CB01BC01CD010E944100DC01CB01DB
:104520009AA389A30FC080E991E098A38F8F8F8D04
:1045300098A10197F1F798A38F8F89A19AA101976C
:104540009AA389A389A19AA1009769F714C06BA1C6
:104550007CA18DA19EA10E944100DC01CB019AA308
:1045600089A389A19AA19E8F8D8F8D8D9E8D019794
:10457000F1F79E8F8D8F81E00E94FB0A8DED91E017
:104580000E94A50F82E060E00E94C10F88EA90E0DF
:104590000E94A50FFE01E35DFE4F11821082B1C0A3
:1045A00080E065E041E00E944F078AE791E00E94C9
:1045B000A50F82E060E00E94C10F89E891E00E94AF
:1045C000A50F80E090E0AAEFB4E4898F9A8FAB8FBB
:1045D000BC8F698D7A8D8B8D9C8D20E030E04AE711
:1045E00055E40E941702DC01CB018D8B9E8BAF8BB3
:1045F000B88F6D897E898F89988D20E030E040E802
:104600005FE30E941D0488232CF481E090E09C8BE2
:104610008B8B3FC06D897E898F89988D20E03FEF1D
:104620004FE757E40E94BD0318164CF5698D7A8D4B
:104630008B8D9C8D20E030E040E251E40E94170217
:10464000DC01CB01BC01CD010E944100DC01CB01AA
:104650009C8B8B8B0FC080E991E09A8B898B898929
:104660009A890197F1F79A8B898B8B899C8901979D
:104670009C8B8B8B8B899C89009769F714C06D8903
:104680007E898F89988D0E944100DC01CB019C8B33
:104690008B8B8B899C89988B8F878F8598890197C5
:1046A000F1F7988B8F8780E065E040E00E944F072C
:1046B00081E00E94FB0A8DE790E00E94A50F82E056
:1046C00060E00E94C10F8BE890E00E94A50FFE0100
:1046D000E75DFE4F1082FE01E65DFE4F1082FE0197
:1046E000E35DFE4F118210820CC0FE01E85DFE4FBB
:1046F0008081882309F042CCFE01E85DFE4F81E015
:104700008083FE01E75DFE4F8081882309F036CC6F
:10471000FE01E75DFE4F81E080830C94D61281E0BC
:104720000E94FB0A84E391E00E94A50F82E060E012
:104730000E94C10F82E491E00E94A50F80E090E00A
:10474000AAEFB3E48B879C87AD87BE876B857C859A
:104750008D859E8520E030E04AE755E40E941702EF
:10476000DC01CB018F839887A987BA876F81788511
:1047700089859A8520E030E040E85FE30E941D04CF
:1047800088232CF481E090E09E838D833FC06F816D
:10479000788589859A8520E03FEF4FE757E40E94AE
:1047A000BD0318164CF56B857C858D859E8520E0B4
:1047B00030E040E251E40E941702DC01CB01BC0171
:1047C000CD010E944100DC01CB019E838D830FC08F
:1047D00080E991E09C838B838B819C810197F1F729
:1047E0009C838B838D819E8101979E838D838D8198
:1047F0009E81009769F714C06F81788589859A85B5
:104800000E944100DC01CB019E838D838D819E81BE
:104810009A83898389819A810197F1F79A838983A1
:1048200081E00E94FB0A8DE790E00E94A50F82E0E4
:1048300060E00E94C10F8BE890E00E94A50F0C94ED
:10484000D6121F920F920FB60F9211242F933F93FF
:104850004F935F936F937F938F939F93AF93BF9388
:10486000EF93FF93DF93CF93CDB7DEB7A497DEBF6F
:10487000CDBFE4E2F0E0808191819CA38BA38BA16A
:104880009CA1CC01A0E0B0E028E833E140E050E09A
:10489000BC01CD010E94A525DC01CB01072E7AE0E9
:1048A000B695A795979587957A95D1F7702D9AA388
:1048B00089A389A19AA198A38F8F28E833E18F8DCE
:1048C00098A1A901481B590BCA012F8D38A1B90124
:1048D0000E94C425CB019E8F8D8F8D8D9E8D893C2E
:1048E000910558F083E063E041E00E944F0783E0C8
:1048F00062E041E00E944F070BC18D8D9E8D883391
:10490000910508F483C08D8D9E8D893C910508F03A
:104910007DC083E063E041E00E944F0783E062E0F6
:1049200040E00E944F0780E090E0AAEFB3E4898F57
:104930009A8FAB8FBC8F698D7A8D8B8D9C8D20E08B
:1049400030E04AE755E40E941702DC01CB018D8B71
:104950009E8BAF8BB88F6D897E898F89988D20E073
:1049600030E040E85FE30E941D0488232CF481E0DE
:1049700090E09C8B8B8B3FC06D897E898F89988D51
:1049800020E03FEF4FE757E40E94BD0318164CF5B7
:10499000698D7A8D8B8D9C8D20E030E040E251E472
:1049A0000E941702DC01CB01BC01CD010E94410035
:1049B000DC01CB019C8B8B8B0FC080E991E09A8B43
:1049C000898B89899A890197F1F79A8B898B8B89D1
:1049D0009C8901979C8B8B8B8B899C89009769F7AD
:1049E00097C06D897E898F89988D0E944100DC0176
:1049F000CB019C8B8B8B8B899C89988B8F878F8528
:104A000098890197F1F7988B8F8782C08D8D9E8D45
:104A10008833910508F07CC083E063E040E00E94A9
:104A20004F0783E062E040E00E944F0780E090E0A3
:104A3000AAEFB3E48B879C87AD87BE876B857C85A7
:104A40008D859E8520E030E04AE755E40E941702FC
:104A5000DC01CB018F839887A987BA876F8178851E
:104A600089859A8520E030E040E85FE30E941D04DC
:104A700088232CF481E090E09E838D833FC06F817A
:104A8000788589859A8520E03FEF4FE757E40E94BB
:104A9000BD0318164CF56B857C858D859E8520E0C1
:104AA00030E040E251E40E941702DC01CB01BC017E
:104AB000CD010E944100DC01CB019E838D830FC09C
:104AC00080E991E09C838B838B819C810197F1F736
:104AD0009C838B838D819E8101979E838D838D81A5
:104AE0009E81009769F714C06F81788589859A85C2
:104AF0000E944100DC01CB019E838D838D819E81CC
:104B00009A83898389819A810197F1F79A838983AE
:104B1000A6E2B0E0E6E2F0E0808180648C93A496A7
:104B2000DEBFCDBFCF91DF91FF91EF91BF91AF91EC
:104B30009F918F917F916F915F914F913F912F91B5
:104B40000F900FBE0F901F901895629FD001739F1A
:104B5000F001829FE00DF11D649FE00DF11D929F19
:104B6000F00D839FF00D749FF00D659FF00D992758
:104B7000729FB00DE11DF91F639FB00DE11DF91F7C
:104B8000BD01CF0111240895AA1BBB1B51E107C031
:104B9000AA1FBB1FA617B70710F0A61BB70B881FCD
:104BA000991F5A95A9F780959095BC01CD0108955C
:104BB0002F923F924F925F926F927F928F929F922D
:104BC000AF92BF92CF92DF92EF92FF920F931F931B
:104BD000CF93DF93CDB7DEB7CA1BDB0B0FB6F894CC
:104BE000DEBF0FBECDBF09942A88398848885F840C
:104BF0006E847D848C849B84AA84B984C884DF807D
:104C0000EE80FD800C811B81AA81B981CE0FD11D60
:104C10000FB6F894DEBF0FBECDBFED010895FB01C6
:104C20009F01E8944230C4F04532B4F44A3029F48C
:104C300097FB1EF4909581959F4F642F77270E94D4
:104C4000C425805D8A330CF0895D8193CB01009788
:104C5000A1F716F45DE251931082C9010C9430263D
:104C6000DC01FC01672F71917723E1F7329704C0D3
:104C70007C916D9370836291AE17BF07C8F308955E
:044C8000F894FFCFD6
:104C840057656C636F6D6520546F20536D6172744A
:104C940000486F6D652053797374656D002053650A
:104CA4006C656374204D6F64653A00303A41646DFD
:104CB400696E20313A4775657374002041646D69EB
:104CC4006E204D6F64653A00456E746572205061C4
:104CD40073733A0020526967687420506173737764
:104CE4006F72640077656C636F6D65207961736DB5
:104CF40065656E0020303A486F6D6500313A476152
:104D0400726167002020486F6D6520446F6F7220C8
:104D140000202057696C6C204F50454E0057696C39
:104D24006C20636C6F736520616761696E00204756
:104D34006172616720446F6F7220002057696C6C48
:104D4400204F50454E002020476172616720446F18
:104D54006F7220002077726F6E672063686F6963DB
:104D6400650063686F6F736520616761696E0057E2
:104D7400656C636F6D6520596F75736566002057A8
:104D8400726F6E672050617373776F726400547230
:104D9400696573204C6566743A00206C6F67696EB0
:104DA40020626C6F636B65640077616974203220E4
:104DB4006D696E7574657300204775657374204D55
:104DC4006F64653A0077656C636F6D652079617314
:104DD400736572002062656C6C2077696C6C20725C
:104DE400696E67002062656C6C2077696C6C0020CA
:104DF4005475726E204F46462121212100204755CB
:104E0400455354204D6F64653A00000000000000D3
:104E140000000708092F0405062A0102032D433068
:024E24003D2B24
:00000001FF
