:100000000C942A000C940E130C9447000C94470097
:100010000C9447000C9447000C9447000C94470044
:100020000C9447000C9447000C9447000C94470034
:100030000C9447000C9447000C9447000C94470024
:100040000C9447000C9447000C9447000C94470014
:100050000C94470011241FBECFE5D8E0DEBFCDBF12
:1000600011E0A0E6B0E0EAE0F9E202C005900D92EE
:10007000AE38B107D9F711E0AEE8B1E001C01D928A
:10008000AF38B107E1F70E947A100C9483140C94F6
:100090000000EF92FF920F931F937B018C0120E0F1
:1000A00030E040E05FE40E94F50388238CF0C80153
:1000B000B70120E030E040E05FE40E94C1010E940F
:1000C00055049B01AC01205030404040504806C0D0
:1000D000C801B7010E9455049B01AC01B901CA01D6
:1000E0001F910F91FF90EF900895A0E0B0E0EBE733
:1000F000F0E00C941B14DC012B01FA019C9192306E
:1001000008F439C1EB018881823008F433C194309E
:1001100069F4843009F02FC111969C91119789815F
:10012000981709F428C1A5E8B1E025C1843009F485
:1001300021C18230A9F4923009F01DC19A01AD01AC
:1001400088E0EA010990AE01E90109929E0181501F
:10015000C1F7E201898111969C918923818308C1AD
:10016000923009F407C112962D903C901397EB0141
:100170008A819B811496AD90BD90CD90DC901797AD
:10018000EC80FD800E811F819101281B390BB90184
:1001900037FF04C066277727621B730B6032710537
:1001A0000CF061C0121613066CF537014801062EDB
:1001B00004C096948794779467940A94D2F721E0C8
:1001C00030E040E050E004C0220F331F441F551FB1
:1001D0006A95D2F721503040404050402E213F21B7
:1001E00040235123211531054105510521F021E01E
:1001F00030E040E050E079018A01E628F72808293C
:1002000019293CC0232BD1F1260E371E350146019A
:10021000062E04C096948794779467940A94D2F734
:1002200021E030E040E050E004C0220F331F441FC3
:10023000551F6A95D2F721503040404050402A2146
:100240003B214C215D21211531054105510521F04E
:1002500021E030E040E050E059016A01A628B728CB
:10026000C828D9280BC0821593052CF01C01AA249C
:10027000BB24650103C0EE24FF24870111969C91E5
:10028000D20111968C91981709F445C0992339F041
:10029000A80197012A193B094C095D0906C0A6016E
:1002A00095012E193F09400B510B57FD08C01182D3
:1002B0003382228224833583468357831DC081E0A5
:1002C00081833382228288279927DC01821B930B4A
:1002D000A40BB50B84839583A683B7830DC0220F2F
:1002E000331F441F551F24833583468357838281E0
:1002F000938101979383828324813581468157813D
:10030000DA01C9010197A109B1098F5F9F4FAF4F72
:10031000BF4328F30BC0918333822282EA0CFB1C7B
:100320000C1D1D1DE482F5820683178383E0808304
:10033000248135814681578157FF1AC0C901AA27F8
:1003400097FDA095BA2F81709070A070B0705695EF
:10035000479537952795822B932BA42BB52B848318
:100360009583A683B7838281938101969383828349
:10037000DF0101C0D201CD01CDB7DEB7E2E10C94BF
:100380003714A0E2B0E0E7ECF1E00C9427146983A5
:100390007A838B839C832D833E834F835887E9E048
:1003A000EE2EF12CEC0EFD1ECE010196B7010E943F
:1003B0007E058E010F5E1F4FCE010596B8010E948B
:1003C0007E058A8991E089278A8BC701B801AE0131
:1003D000475E5F4F0E9475000E94A904A096E6E068
:1003E0000C944314A0E2B0E0E8EFF1E00C94271481
:1003F00069837A838B839C832D833E834F835887C5
:10040000F9E0EF2EF12CEC0EFD1ECE010196B701A6
:100410000E947E058E010F5E1F4FCE010596B8012A
:100420000E947E05C701B801AE01475E5F4F0E9482
:1004300075000E94A904A096E6E00C944314A0E283
:10044000B0E0E5E2F2E00C941B1469837A838B83BD
:100450009C832D833E834F835887CE010196BE0136
:10046000675F7F4F0E947E05CE010596BE016F5EDD
:100470007F4F0E947E059985923088F0898982306D
:10048000C8F0943019F4823051F404C0843029F457
:10049000923081F485E891E0C6C0923049F420E0C2
:1004A0009A858A89981321E02A87CE010996BBC0D4
:1004B000823049F420E09A858A89981321E02A8BBA
:1004C000CE014196B0C02D843E844F8458886D88FB
:1004D0007E888F88988CEE24FF248701AA24BB2471
:1004E000650140E050E060E070E0E0E0F0E0C10174
:1004F00081709070892BE9F0E60CF71C081D191D1E
:100500009A01AB012A0D3B1D4C1D5D1D80E090E062
:10051000A0E0B0E0E614F7040805190520F481E036
:1005200090E0A0E0B0E0BA01A901480F591F6A1F8E
:100530007B1FAA0CBB1CCC1CDD1C97FE08C081E0F5
:1005400090E0A0E0B0E0A82AB92ACA2ADB2A3196B6
:10055000E032F10549F0660C771C881C991C569412
:10056000479437942794C3CFFA85EA892B893C892D
:100570008B859C85280F391F2E5F3F4F17C0CA01FE
:1005800081709070892B61F016950795F794E79428
:1005900080E090E0A0E0B0E8E82AF92A0A2B1B2BC3
:1005A00076956795579547952F5F3F4F77FDE7CF36
:1005B0000CC0440F551F661F771F17FD4160EE0CDE
:1005C000FF1C001F111F21503040403090E05907A0
:1005D00090E0690790E4790760F32B8F3C8FDB0193
:1005E000CA018F779070A070B07080349105A1051A
:1005F000B10561F447FD0AC0E114F10401051105DC
:1006000029F0405C5F4F6F4F7F4F40781A8EFE1786
:1006100011F081E08A8F4D8F5E8F6F8F78A383E01A
:10062000898FCE0149960E94A904A096E2E10C941C
:100630003714A8E1B0E0EFE1F3E00C9423146983F0
:100640007A838B839C832D833E834F835887B9E0C5
:10065000EB2EF12CEC0EFD1ECE010196B7010E948F
:100660007E058E010F5E1F4FCE010596B8010E94D8
:100670007E052985223008F47EC03989323010F495
:10068000B8017CC08A859A8989278A87243011F02D
:10069000223031F4231709F06EC065E871E06EC0B6
:1006A000343039F41D861E861F86188A1C861B86E8
:1006B00004C0323021F484E08987B7015FC02B8504
:1006C0003C858B899C89281B390B3C872B87ED84C3
:1006D000FE840F851889AD88BE88CF88D88CEA142F
:1006E000FB040C051D0540F4EE0CFF1C001F111F40
:1006F000215030403C872B8720E030E040E050E044
:1007000080E090E0A0E0B0E460E070E0EA14FB0478
:100710000C051D0540F0282B392B4A2B5B2BEA18C2
:10072000FB080C091D09B695A79597958795EE0CC2
:10073000FF1C001F111F6F5F7F4F6F31710531F775
:10074000DA01C9018F779070A070B0708034910584
:10075000A105B10561F427FD0AC0E114F10401050A
:10076000110529F0205C3F4F4F4F5F4F20782D87B8
:100770003E874F87588BBE01675F7F4FCB010E943A
:10078000A9046896EAE00C943F14A8E1B0E0EBEC11
:10079000F3E00C94271469837A838B839C832D83E5
:1007A0003E834F83588789E0E82EF12CEC0EFD1E26
:1007B000CE010196B7010E947E058E010F5E1F4F8C
:1007C000CE010596B8010E947E058985823040F0F1
:1007D0008989823028F0C701B8010E94F60501C05E
:1007E0008FEF6896E6E00C944314A8E1B0E0EBEFDD
:1007F000F3E00C94271469837A838B839C832D8385
:100800003E834F83588789E0E82EF12CEC0EFD1EC5
:10081000CE010196B7010E947E058E010F5E1F4F2B
:10082000CE010596B8010E947E058985823040F090
:100830008989823028F0C701B8010E94F60501C0FD
:100840008FEF6896E6E00C944314A8E1B0E0EBE289
:10085000F4E00C94271469837A838B839C832D8323
:100860003E834F83588789E0E82EF12CEC0EFD1E65
:10087000CE010196B7010E947E058E010F5E1F4FCB
:10088000CE010596B8010E947E058985823040F030
:100890008989823028F0C701B8010E94F60501C09D
:1008A00081E06896E6E00C944314ACE0B0E0EBE540
:1008B000F4E00C942B1469837A838B839C83CE01A0
:1008C0000196BE016B5F7F4F0E947E058D81823055
:1008D00061F1823050F1843021F48E81882351F10E
:1008E0002EC02F81388537FD20C06E812F31310514
:1008F0001CF06623F9F023C08EE190E0821B930B7D
:1009000029853A854B855C8504C056954795379572
:1009100027958A95D2F76623B1F05095409530958A
:1009200021953F4F4F4F5F4F0EC020E030E040E039
:1009300050E009C02FEF3FEF4FEF5FE704C020E02A
:1009400030E040E050E8B901CA012C96E2E00C9496
:100950004714DF92EF92FF920F931F93FC01E48004
:10096000F58006811781D1808081823048F480E053
:1009700090E0A0E1B0E0E82AF92A0A2B1B2BA5C0E1
:10098000843009F49FC0823021F4EE24FF248701D3
:1009900005C0E114F1040105110519F4E0E0F0E0EF
:1009A00096C0628173819FEF623879070CF05BC05B
:1009B00022E83FEF261B370B2A3131052CF020E0CF
:1009C00030E040E050E02AC0B801A701022E04C088
:1009D00076956795579547950A94D2F781E090E010
:1009E000A0E0B0E004C0880F991FAA1FBB1F2A9582
:1009F000D2F70197A109B1098E219F21A023B1232C
:100A00000097A105B10521F081E090E0A0E0B0E001
:100A10009A01AB01282B392B4A2B5B2BDA01C90138
:100A20008F779070A070B07080349105A105B105EA
:100A300039F427FF09C0205C3F4F4F4F5F4F04C080
:100A4000215C3F4F4F4F5F4FE0E0F0E02030A0E0EF
:100A50003A07A0E04A07A0E45A0710F0E1E0F0E00E
:100A600079018A0127C06038710564F5FB01E158FE
:100A7000FF4FD801C7018F779070A070B07080349D
:100A80009105A105B10539F4E7FE0DC080E490E0C1
:100A9000A0E0B0E004C08FE390E0A0E0B0E0E80E9A
:100AA000F91E0A1F1B1F17FF05C016950795F7941F
:100AB000E794319687E016950795F794E7948A9521
:100AC000D1F705C0EE24FF248701EFEFF0E06E2F91
:100AD000679566276795902F9F77D794DD24D794E5
:100AE0008E2F8695492F462B582F5D29B701CA01B5
:100AF0001F910F91FF90EF90DF900895FC01DB01B3
:100B0000408151812281622F6F7770E0221F22275E
:100B1000221F9381892F880F822B282F30E0991F65
:100B20009927991F11969C93119721153105A9F5C5
:100B3000411551056105710511F482E037C082E865
:100B40009FEF13969C938E9312979A01AB0167E0E7
:100B5000220F331F441F551F6A95D1F783E08C93F2
:100B60000DC0220F331F441F551F12968D919C916B
:100B70001397019713969C938E931297203080E0E1
:100B8000380780E0480780E4580758F314962D93FF
:100B90003D934D935C93179708952F3F310579F45A
:100BA000411551056105710519F484E08C93089590
:100BB00064FF03C081E08C9312C01C9210C02F57B9
:100BC000304013963C932E93129783E08C9387E0EA
:100BD000440F551F661F771F8A95D1F770641496CE
:100BE0004D935D936D937C93179708951F93DC014C
:100BF000FB019C91923008F447C08081823008F458
:100C000043C0943051F411961C91843099F5818140
:100C1000682F70E0611B71093FC0843021F0923071
:100C200031F48230B9F18181882389F12DC0119688
:100C30001C9111978230F1F081811817D9F4129626
:100C40002D913C911397828193818217930794F0A1
:100C500028173907BCF014968D919D910D90BC9189
:100C6000A02D2481358146815781281739074A07ED
:100C70005B0718F4112341F00AC082179307A407F9
:100C8000B50740F4112319F061E070E005C06FEF83
:100C90007FEF02C060E070E0CB011F910895DF9309
:100CA000CF93CDB7DEB7A7E2B0E0E7E2F0E0808116
:100CB00080648C93A7E2B0E0E7E2F0E08081806896
:100CC0008C93A7E2B0E0E7E2F0E080818F7D8C9327
:100CD000A6E2B0E0E6E2F0E080818F7D8C93A6E2B0
:100CE000B0E0E6E2F0E0808181608C93A6E2B0E0C3
:100CF000E6E2F0E0808182608C93A6E2B0E0E6E27A
:100D0000F0E0808184608C93A6E2B0E0E6E2F0E05F
:100D1000808180688C93CF91DF910895DF93CF938A
:100D200000D00F92CDB7DEB78B83A7E2B0E0E7E249
:100D3000F0E08081807E8C93A7E2B0E0E7E2F0E013
:100D400090818B81892B8C93A6E2B0E0E6E2F0E003
:100D5000808180648C93E6E2F0E0808182958F70E0
:100D6000882F90E0817090700097A9F3A6E2B0E020
:100D7000E6E2F0E0808180618C93E4E2F0E0808143
:100D800091819A83898389819A810F900F900F9026
:100D9000CF91DF910895DF93CF93CDB7DEB7299739
:100DA0000FB6F894DEBF0FBECDBF89836A834B8335
:100DB0008B81282F30E0398728878885998500978F
:100DC00039F0288539852130310509F475C0E2C034
:100DD0008981282F30E03F832E838E819F8181304F
:100DE000910559F12E813F81223031052CF48E81FD
:100DF0009F81009769F0CEC02E813F81223031055E
:100E000089F18E819F818330910509F440C0C2C071
:100E1000AAE3B0E0EAE3F0E08081482F8A81282F3E
:100E200030E081E090E0022E02C0880F991F0A9402
:100E3000E2F7809584238C93ADC0A7E3B0E0E7E3AD
:100E4000F0E08081482F8A81282F30E081E090E017
:100E5000022E02C0880F991F0A94E2F7809584231E
:100E60008C9398C0A4E3B0E0E4E3F0E08081482FE5
:100E70008A81282F30E081E090E0022E02C0880FA6
:100E8000991F0A94E2F7809584238C9383C0A1E391
:100E9000B0E0E1E3F0E08081482F8A81282F30E044
:100EA00081E090E0022E02C0880F991F0A94E2F7B9
:100EB000809584238C936EC08981282F30E03D83F8
:100EC0002C838C819D818130910549F12C813D815C
:100ED000223031052CF48C819D81009761F05AC03D
:100EE0002C813D812230310571F18C819D818330CF
:100EF0009105E9F14FC0AAE3B0E0EAE3F0E08081B8
:100F0000482F8A81282F30E081E090E0022E02C035
:100F1000880F991F0A94E2F7842B8C933BC0A7E3B8
:100F2000B0E0E7E3F0E08081482F8A81282F30E0AD
:100F300081E090E0022E02C0880F991F0A94E2F728
:100F4000842B8C9327C0A4E3B0E0E4E3F0E080813D
:100F5000482F8A81282F30E081E090E0022E02C0E5
:100F6000880F991F0A94E2F7842B8C9313C0A1E396
:100F7000B0E0E1E3F0E08081482F8A81282F30E063
:100F800081E090E0022E02C0880F991F0A94E2F7D8
:100F9000842B8C9329960FB6F894DEBF0FBECDBF7D
:100FA000CF91DF910895DF93CF93CDB7DEB7299727
:100FB0000FB6F894DEBF0FBECDBF89836A834B8323
:100FC0008B81282F30E0398728878885998500977D
:100FD00039F0288539852130310509F475C0E2C022
:100FE0008981282F30E03F832E838E819F8181303D
:100FF000910559F12E813F81223031052CF48E81EB
:101000009F81009769F0CEC02E813F81223031054B
:1010100089F18E819F818330910509F440C0C2C05F
:10102000ABE3B0E0EBE3F0E08081482F8A81282F2A
:1010300030E081E090E0022E02C0880F991F0A94F0
:10104000E2F7809584238C93ADC0A8E3B0E0E8E399
:10105000F0E08081482F8A81282F30E081E090E005
:10106000022E02C0880F991F0A94E2F7809584230C
:101070008C9398C0A5E3B0E0E5E3F0E08081482FD1
:101080008A81282F30E081E090E0022E02C0880F94
:10109000991F0A94E2F7809584238C9383C0A2E37E
:1010A000B0E0E2E3F0E08081482F8A81282F30E031
:1010B00081E090E0022E02C0880F991F0A94E2F7A7
:1010C000809584238C936EC08981282F30E03D83E6
:1010D0002C838C819D818130910549F12C813D814A
:1010E000223031052CF48C819D81009761F05AC02B
:1010F0002C813D812230310571F18C819D818330BD
:101100009105E9F14FC0ABE3B0E0EBE3F0E08081A3
:10111000482F8A81282F30E081E090E0022E02C023
:10112000880F991F0A94E2F7842B8C933BC0A8E3A5
:10113000B0E0E8E3F0E08081482F8A81282F30E09A
:1011400081E090E0022E02C0880F991F0A94E2F716
:10115000842B8C9327C0A5E3B0E0E5E3F0E0808129
:10116000482F8A81282F30E081E090E0022E02C0D3
:10117000880F991F0A94E2F7842B8C9313C0A2E383
:10118000B0E0E2E3F0E08081482F8A81282F30E050
:1011900081E090E0022E02C0880F991F0A94E2F7C6
:1011A000842B8C9329960FB6F894DEBF0FBECDBF6B
:1011B000CF91DF910895DF93CF9300D000D0CDB7CA
:1011C000DEB789836A838981282F30E03C832B83B3
:1011D0008B819C8181309105D1F02B813C81223023
:1011E00031052CF48B819C81009761F01EC02B810E
:1011F0003C812230310581F08B819C8183309105C7
:1012000081F013C0EAE3F0E08A8180830EC0E7E357
:10121000F0E08A81808309C0E4E3F0E08A81808382
:1012200004C0E1E3F0E08A8180830F900F900F907B
:101230000F90CF91DF910895DF93CF9300D000D02E
:10124000CDB7DEB789836A838981282F30E03C835C
:101250002B838B819C8181309105D1F02B813C8146
:10126000223031052CF48B819C81009761F01EC0E7
:101270002B813C812230310581F08B819C81833030
:10128000910581F013C0EBE3F0E08A8180830EC00A
:10129000E8E3F0E08A81808309C0E5E3F0E08A8139
:1012A000808304C0E2E3F0E08A8180830F900F9096
:1012B0000F900F90CF91DF910895DF93CF9300D0DF
:1012C00000D0CDB7DEB789836A838981282F30E0CB
:1012D0003C832B838B819C818130910549F12B814B
:1012E0003C81223031052CF48B819C81009761F088
:1012F0005AC02B813C812230310571F18B819C8158
:1013000083309105E9F14FC0ABE3B0E0EBE3F0E0EF
:101310008081482F8A81282F30E081E090E0022EE2
:1013200002C0880F991F0A94E2F784278C933BC070
:10133000A8E3B0E0E8E3F0E08081482F8A81282F1D
:1013400030E081E090E0022E02C0880F991F0A94DD
:10135000E2F784278C9327C0A5E3B0E0E5E3F0E053
:101360008081482F8A81282F30E081E090E0022E92
:1013700002C0880F991F0A94E2F784278C9313C048
:10138000A2E3B0E0E2E3F0E08081482F8A81282FD9
:1013900030E081E090E0022E02C0880F991F0A948D
:1013A000E2F784278C930F900F900F900F90CF91BE
:1013B000DF910895DF93CF9300D000D00F92CDB787
:1013C000DEB78A836B838A81282F30E03D832C83AC
:1013D0004C815D814130510541F18C819D8182308C
:1013E000910534F42C813D812115310561F052C005
:1013F0004C815D814230510551F18C819D8183305A
:101400009105B9F147C0E9E3F0E08081282F30E091
:101410008B81882F90E0A90102C0559547958A9548
:10142000E2F7CA018170898335C0E6E3F0E080818C
:10143000282F30E08B81882F90E0A90102C05595BC
:1014400047958A95E2F7CA018170898323C0E3E357
:10145000F0E08081282F30E08B81882F90E0A90177
:1014600002C0559547958A95E2F7CA018170898334
:1014700011C0E0E3F0E08081282F30E08B81882FDD
:1014800090E0A90102C0559547958A95E2F7CA01F7
:101490008170898389810F900F900F900F900F902A
:1014A000CF91DF910895DF93CF93CDB7DEB7AFE54E
:1014B000B0E0EFE5F0E0808180688C93ABE5B0E0D0
:1014C000EBE5F0E0808180648C93A5E5B0E0E5E594
:1014D000F0E0808181608C93A5E5B0E0E5E5F0E087
:1014E00080818D7F8C93CF91DF910895DF93CF938F
:1014F000CDB7DEB769970FB6F894DEBF0FBECDBF8C
:10150000898F80E062E040E00E94D30780E063E0E2
:1015100040E00E94D30782E0698D0E941C0980E0B0
:1015200064E041E00E94D30780E090E0A0E8BFE3E0
:101530008D8B9E8BAF8BB88F6D897E898F89988DAF
:101540002BEA3AEA4AEA50E40E941F02DC01CB018E
:10155000898B9A8BAB8BBC8B69897A898B899C89A7
:1015600020E030E040E85FE30E94250488231CF47B
:1015700081E0888B91C069897A898B899C8920E078
:1015800030E04FE753E40E94C50318160CF07BC00F
:101590006D897E898F89988D20E030E04AE754E498
:1015A0000E941903DC01CB018C879D87AE87BF8722
:1015B0006C857D858E859F8520E030E04AE755E487
:1015C0000E941F02DC01CB0188879987AA87BB870D
:1015D000688579858A859B8520E030E040E85FE377
:1015E0000E94250488232CF481E090E09F838E8361
:1015F0003FC0688579858A859B8520E03FEF4FE76E
:1016000057E40E94C50318164CF56C857D858E85C0
:101610009F8520E030E040E251E40E941F02DC019F
:10162000CB01BC01CD010E944900DC01CB019F83AD
:101630008E830FC080E991E09D838C838C819D8196
:101640000197F1F79D838C838E819F8101979F8302
:101650008E838E819F81009769F724C06885798584
:101660008A859B850E944900DC01CB019F838E8384
:101670008E819F819B838A838A819B810197F1F769
:101680009B838A830FC069897A898B899C890E9490
:101690004900DC01CB01888B8889898389818A95FF
:1016A000F1F7898380E064E040E00E94D307699607
:1016B0000FB6F894DEBF0FBECDBFCF91DF91089576
:1016C000DF93CF93CDB7DEB769970FB6F894DEBF3F
:1016D0000FBECDBF898F80E062E041E00E94D3075A
:1016E00080E063E040E00E94D30782E0698D0E94C1
:1016F0001C0980E064E041E00E94D30780E090E0B4
:10170000A0E8BFE38D8B9E8BAF8BB88F6D897E89F0
:101710008F89988D2BEA3AEA4AEA50E40E941F0228
:10172000DC01CB01898B9A8BAB8BBC8B69897A8965
:101730008B899C8920E030E040E85FE30E9425042B
:1017400088231CF481E0888B91C069897A898B8910
:101750009C8920E030E04FE753E40E94C50318164F
:101760000CF07BC06D897E898F89988D20E030E0F8
:101770004AE754E40E941903DC01CB018C879D8762
:10178000AE87BF876C857D858E859F8520E030E0A4
:101790004AE755E40E941F02DC01CB018887998744
:1017A000AA87BB87688579858A859B8520E030E09C
:1017B00040E85FE30E94250488232CF481E090E058
:1017C0009F838E833FC0688579858A859B8520E0CD
:1017D0003FEF4FE757E40E94C50318164CF56C85A0
:1017E0007D858E859F8520E030E040E251E40E94B7
:1017F0001F02DC01CB01BC01CD010E944900DC01CC
:10180000CB019F838E830FC080E991E09D838C8301
:101810008C819D810197F1F79D838C838E819F81BF
:1018200001979F838E838E819F81009769F724C0E3
:10183000688579858A859B850E944900DC01CB01FA
:101840009F838E838E819F819B838A838A819B81E4
:101850000197F1F79B838A830FC069897A898B8905
:101860009C890E944900DC01CB01888B888989838F
:1018700089818A95F1F7898380E064E040E00E94E5
:10188000D30769960FB6F894DEBF0FBECDBFCF91D8
:10189000DF9108950F931F93DF93CF93CDB7DEB7FA
:1018A000CC54D0400FB6F894DEBF0FBECDBF82E05F
:1018B0006FEF0E94DB0880E064E041E00E94CB060D
:1018C00080E063E041E00E94CB0680E062E041E01E
:1018D0000E94CB06FE01E75BFF4F80E090E0ACE0AA
:1018E000B2E480839183A283B3838E010B5B1F4F8D
:1018F000FE01E75BFF4F608171818281938120E06F
:1019000030E04AE755E40E941F02DC01CB01F801F8
:1019100080839183A283B383FE01EB5BFF4F6081E1
:1019200071818281938120E030E040E85FE30E9492
:101930002504882344F4FE01ED5BFF4F81E090E035
:101940009183808364C0FE01EB5BFF4F60817181F6
:101950008281938120E03FEF4FE757E40E94C50367
:1019600018160CF043C0FE01E75BFF4F60817181E8
:101970008281938120E030E040E251E40E941F0226
:10198000DC01CB018E010D5B1F4FBC01CD010E941C
:101990004900DC01CB01F801918380831FC0FE0167
:1019A000EF5BFF4F80E991E091838083FE01EF5B65
:1019B000FF4F808191810197F1F7FE01EF5BFF4FAF
:1019C00091838083DE01AD5BBF4FFE01ED5BFF4F76
:1019D00080819181019711969C938E93FE01ED5B1E
:1019E000FF4F808191810097D1F624C08E010D5B5D
:1019F0001F4FFE01EB5BFF4F6081718182819381FC
:101A00000E944900DC01CB01F80191838083FE0133
:101A1000ED5BFF4F80819181FE01FF969183808372
:101A2000FE01FF96808191810197F1F7FE01FF96FB
:101A30009183808388E30E94760A80E090E0A8E4A6
:101A4000B2E48BAF9CAFADAFBEAF6BAD7CAD8DAD37
:101A50009EAD2BEA3AEA4AEA50E40E941F02DC01FA
:101A6000CB018FAB98AFA9AFBAAF6FA978AD89ADF5
:101A70009AAD20E030E040E85FE30E94250488232F
:101A80001CF481E08EAB91C06FA978AD89AD9AADA1
:101A900020E030E04FE753E40E94C50318160CF035
:101AA0007BC06BAD7CAD8DAD9EAD20E030E04AE7F4
:101AB00054E40E941903DC01CB018AAB9BABACABB5
:101AC000BDAB6AA97BA98CA99DA920E030E04AE7BB
:101AD00055E40E941F02DC01CB018EA79FA7A8AB93
:101AE000B9AB6EA57FA588A999A920E030E040E8B0
:101AF0005FE30E94250488232CF481E090E09DA7F9
:101B00008CA73FC06EA57FA588A999A920E03FEFCB
:101B10004FE757E40E94C50318164CF56AA97BA944
:101B20008CA99DA920E030E040E251E40E941F0210
:101B3000DC01CB01BC01CD010E944900DC01CB01DD
:101B40009DA78CA70FC080E991E09BA78AA78AA5D3
:101B50009BA50197F1F79BA78AA78CA59DA5019747
:101B60009DA78CA78CA59DA5009769F724C06EA59D
:101B70007FA588A999A90E944900DC01CB019DA7F6
:101B80008CA78CA59DA599A788A788A599A501973D
:101B9000F1F799A788A70FC06FA978AD89AD9AAD65
:101BA0000E944900DC01CB018EAB8EA98FA38FA1CF
:101BB0008A95F1F78FA38CE00E94760A80E090E08E
:101BC000A8E4B2E48BA39CA3ADA3BEA36BA17CA1AC
:101BD0008DA19EA12BEA3AEA4AEA50E40E941F0234
:101BE000DC01CB018F8F98A3A9A3BAA36F8D78A135
:101BF00089A19AA120E030E040E85FE30E9425043B
:101C000088231CF481E08E8F91C06F8D78A189A10B
:101C10009AA120E030E04FE753E40E94C503181674
:101C20000CF07BC06BA17CA18DA19EA120E030E0D7
:101C30004AE754E40E941903DC01CB018A8F9B8F91
:101C4000AC8FBD8F6A8D7B8D8C8D9D8D20E030E0BB
:101C50004AE755E40E941F02DC01CB018E8B9F8B6B
:101C6000A88FB98F6E897F89888D998D20E030E0AB
:101C700040E85FE30E94250488232CF481E090E093
:101C80009D8B8C8B3FC06E897F89888D998D20E0DC
:101C90003FEF4FE757E40E94C50318164CF56A8DD5
:101CA0007B8D8C8D9D8D20E030E040E251E40E94E0
:101CB0001F02DC01CB01BC01CD010E944900DC0107
:101CC000CB019D8B8C8B0FC080E991E09B8B8A8B25
:101CD0008A899B890197F1F79B8B8A8B8C899D89D7
:101CE00001979D8B8C8B8C899D89009769F724C007
:101CF0006E897F89888D998D0E944900DC01CB0116
:101D00009D8B8C8B8C899D89998B888B88899989EF
:101D10000197F1F7998B888B0FC06F8D78A189A1FE
:101D20009AA10E944900DC01CB018E8F8E8D8F8796
:101D30008F858A95F1F78F8781E00E94760A80E08F
:101D400090E0A0E0B0E48B879C87AD87BE876B8571
:101D50007C858D859E8520E030E04AE755E40E9431
:101D60001F02DC01CB018F839887A987BA876F8117
:101D7000788589859A8520E030E040E85FE30E941D
:101D8000250488232CF481E090E09E838D833FC05E
:101D90006F81788589859A8520E03FEF4FE757E48A
:101DA0000E94C50318164CF56B857C858D859E8534
:101DB00020E030E040E251E40E941F02DC01CB0150
:101DC000BC01CD010E944900DC01CB019E838D83C3
:101DD0000FC080E991E09C838B838B819C8101976C
:101DE000F1F79C838B838D819E8101979E838D83E8
:101DF0008D819E81009769F714C06F8178858985F0
:101E00009A850E944900DC01CB019E838D838D81E0
:101E10009E819A83898389819A810197F1F79A83B8
:101E2000898386E00E94760AC45BDF4F0FB6F89480
:101E3000DEBF0FBECDBFCF91DF911F910F910895EF
:101E4000DF93CF9300D0CDB7DEB79A8389830AC0E2
:101E5000E981FA8180810E94600B89819A810196D3
:101E60009A838983E981FA818081882389F70F9099
:101E70000F90CF91DF910895DF93CF93CDB7DEB769
:101E800062970FB6F894DEBF0FBECDBF8F87688B09
:101E900080E090E0A0E0B0E48B879C87AD87BE87B0
:101EA0006B857C858D859E8520E030E04AE755E492
:101EB0000E941F02DC01CB018F839887A987BA8714
:101EC0006F81788589859A8520E030E040E85FE37E
:101ED0000E94250488232CF481E090E09E838D836A
:101EE0003FC06F81788589859A8520E03FEF4FE775
:101EF00057E40E94C50318164CF56B857C858D85CB
:101F00009E8520E030E040E251E40E941F02DC01A7
:101F1000CB01BC01CD010E944900DC01CB019E83B5
:101F20008D830FC080E991E09C838B838B819C81A2
:101F30000197F1F79C838B838D819E8101979E830E
:101F40008D838D819E81009769F714C06F8178859C
:101F500089859A850E944900DC01CB019E838D838F
:101F60008D819E819A83898389819A810197F1F776
:101F70009A8389838F85282F30E03A8B298B898932
:101F80009A898130910531F029893A8922303105C9
:101F900031F009C0888980580E94760A04C0888977
:101FA00080540E94760A62960FB6F894DEBF0FBE88
:101FB000CDBFCF91DF910895DF93CF93CDB7DEB73B
:101FC000A4970FB6F894DEBF0FBECDBF69A37AA366
:101FD0008BA39CA389A19AA19E012F5F3F4FB901BA
:101FE0004AE050E00E945214CE0101960E94200F58
:101FF000A4960FB6F894DEBF0FBECDBFCF91DF9190
:102000000895DF93CF93CDB7DEB781E065E041E07F
:102010000E94CB0681E066E040E00E94CB0681E0B2
:1020200067E041E00E94CB0681E064E041E00E946D
:10203000CB0681E064E041E00E94D307EDE2F0E0EE
:102040008EE58083CF91DF910895DF93CF930F9238
:10205000CDB7DEB7898381E064E040E00E94D3071A
:10206000EFE2F0E089818083EEE2F0E08081882376
:10207000DCF781E064E041E00E94D307EFE2F0E0AA
:1020800080810F90CF91DF910895DF93CF93CDB7EB
:10209000DEB781E065E040E00E94CB0681E066E0CB
:1020A00041E00E94CB0681E067E040E00E94CB0661
:1020B00081E064E040E00E94CB06EDE2F0E08EE4D7
:1020C0008083CF91DF910895DF93CF930F92CDB7A7
:1020D000DEB78983EFE2F0E089818083EEE2F0E011
:1020E00080818823DCF7EFE2F0E080810F90CF91D0
:1020F000DF910895DF93CF93CDB7DEB7A3970FB6E7
:10210000F894DEBF0FBECDBF83E064E041E00E94E3
:10211000CB0683E065E041E00E94CB0683E066E009
:1021200041E00E94CB0683E067E041E00E94CB06DD
:1021300083E060E041E00E94CB0683E061E041E0A3
:102140000E94CB0683E062E040E00E94CB0683E081
:1021500062E041E00E94D3070E94530A0E944A0CA9
:102160000E9445100E944F068AE00E9464108D8FE5
:102170008D8D8F3469F481E00E94760A80E690E0CC
:102180000E94200F83E064E041E00E94D307ECCF7F
:102190008D8D8A3221F481E00E94760AE5CF8D8D03
:1021A0008634A9F481E00E94760A8AE690E00E94D3
:1021B000200F82E060E00E943C0F89E790E00E94DF
:1021C000200F83E064E040E00E94D307CDCF8D8DE7
:1021D000823369F481E00E94760A8DE790E00E94E4
:1021E000200F83E065E041E00E94D307BDCF8D8DD5
:1021F0008333A9F481E00E94760A8EE890E00E9481
:10220000200F82E060E00E943C0F89E790E00E948E
:10221000200F83E065E040E00E94D307A5CF8D8DBD
:10222000843369F481E00E94760A8DE990E00E948F
:10223000200F83E066E041E00E94D30795CF8D8DAB
:102240008533A9F481E00E94760A8EEA90E00E942C
:10225000200F82E060E00E943C0F89E790E00E943E
:10226000200F83E066E040E00E94D3077DCF8D8D94
:10227000863369F481E00E94760A8DEB90E00E943B
:10228000200F83E067E041E00E94D3076DCF8D8D82
:102290008733A9F481E00E94760A8EEC90E00E94D8
:1022A000200F82E060E00E943C0F89E790E00E94EE
:1022B000200F83E067E040E00E94D30755CF8D8D6B
:1022C000883369F481E00E94760A8DED90E00E94E7
:1022D000200F83E061E041E00E94D30745CF8D8D60
:1022E000893369F481E00E94760A8BEE90E00E94C7
:1022F000200F83E061E040E00E94D30735CF8D8D51
:10230000843709F06FC181E00E94760A8AEF90E07D
:102310000E94200F82E060E00E943C0F88E091E084
:102320000E94200F80E090E0AAEFB3E4898F9A8F9B
:10233000AB8FBC8F698D7A8D8B8D9C8D20E030E0CA
:102340004AE755E40E941F02DC01CB018D8B9E8B76
:10235000AF8BB88F6D897E898F89988D20E030E0B2
:1023600040E85FE30E94250488232CF481E090E09C
:102370009C8B8B8B3FC06D897E898F89988D20E0E7
:102380003FEF4FE757E40E94C50318164CF5698DDF
:102390007A8D8B8D9C8D20E030E040E251E40E94EC
:1023A0001F02DC01CB01BC01CD010E944900DC0110
:1023B000CB019C8B8B8B0FC080E991E09A8B898B32
:1023C00089899A890197F1F79A8B898B8B899C89E6
:1023D00001979C8B8B8B8B899C89009769F714C024
:1023E0006D897E898F89988D0E944900DC01CB011F
:1023F0009C8B8B8B8B899C89988B8F878F859889F9
:102400000197F1F7988B8F8780E00E948E069BA33F
:102410008AA38AA19BA1CC01A0E0B0E020E03AE031
:1024200040E050E0BC01CD010E94E813DC01CB018B
:10243000072E7AE0B695A795979587957A95D1F767
:10244000702D99A388A388A199A12AE030E0B90151
:102450000E940714CB019F8F8E8F81E00E94760A25
:1024600083E191E00E94200F8E8D9F8DCC01A0E032
:10247000B0E0BC01CD010E94DC0F82E060E00E9470
:102480003C0F8FE191E00E94200F66E170E080E058
:1024900090E00E94DC0F80E090E0AAEFB3E48B872D
:1024A0009C87AD87BE876B857C858D859E8520E06A
:1024B00030E04AE755E40E941F02DC01CB018F8324
:1024C0009887A987BA876F81788589859A8520E062
:1024D00030E040E85FE30E94250488232CF481E08B
:1024E00090E09E838D833FC06F81788589859A8532
:1024F00020E03FEF4FE757E40E94C50318164CF564
:102500006B857C858D859E8520E030E040E251E43E
:102510000E941F02DC01CB01BC01CD010E944900D9
:10252000DC01CB019E838D830FC080E991E09C8309
:102530008B838B819C810197F1F79C838B838D81A9
:102540009E8101979E838D838D819E81009769F77F
:1025500014C06F81788589859A850E944900DC01C5
:10256000CB019E838D838D819E819A83898389810E
:102570009A810197F1F79A8389838E8D9F8D873198
:102580009105A8F081E00E94760A8DE291E00E9418
:10259000200F82E060E00E943C0F8DE391E00E94FA
:1025A000200F83E060E041E00E94D307DDCD81E0B1
:1025B0000E94760A88E491E00E94200F66E170E0B4
:1025C00080E090E00E94DC0F82E060E00E943C0F1F
:1025D00086E591E00E94200F83E060E040E00E94E9
:1025E000D307C2CD8D8D8D36A9F481E00E94760A85
:1025F00088E691E00E94200F82E060E00E943C0F9C
:1026000088E791E00E94200F83E060E040E00E94B4
:10261000D307AACD81E00E94760AA6CD1F920F9221
:102620000FB60F9211242F933F934F935F936F93A5
:102630007F938F939F93AF93BF93EF93FF93DF931A
:10264000CF93CDB7DEB72E97DEBFCDBF80918E0181
:102650008F5F80938E0180918E01882F90E0817032
:102660009070009709F08AC081E00E94760A83E0AA
:1026700060E040E00E94D3078DE291E00E94200FCD
:1026800082E060E00E943C0F88E791E00E94200F0A
:1026900080E090E0A8E4B3E48B879C87AD87BE8799
:1026A0006B857C858D859E8520E030E04AE755E48A
:1026B0000E941F02DC01CB018F839887A987BA870C
:1026C0006F81788589859A8520E030E040E85FE376
:1026D0000E94250488232CF481E090E09E838D8362
:1026E0003FC06F81788589859A8520E03FEF4FE76D
:1026F00057E40E94C50318164CF56B857C858D85C3
:102700009E8520E030E040E251E40E941F02DC019F
:10271000CB01BC01CD010E944900DC01CB019E83AD
:102720008D830FC080E991E09C838B838B819C819A
:102730000197F1F79C838B838D819E8101979E8306
:102740008D838D819E81009769F714C06F81788594
:1027500089859A850E944900DC01CB019E838D8387
:102760008D819E819A83898389819A810197F1F76E
:102770009A83898381E00E94760A14C081E00E94D6
:10278000760A83E060E041E00E94D3078DE291E0A9
:102790000E94200F82E060E00E943C0F8DE391E0F8
:1027A0000E94200F2E96DEBFCDBFCF91DF91FF910B
:1027B000EF91BF91AF919F918F917F916F915F91B9
:1027C0004F913F912F910F900FBE0F901F90189532
:1027D000629FD001739FF001829FE00DF11D649F05
:1027E000E00DF11D929FF00D839FF00D749FF00D91
:1027F000659FF00D9927729FB00DE11DF91F639F32
:10280000B00DE11DF91FBD01CF0111240895AA1BD0
:10281000BB1B51E107C0AA1FBB1FA617B70710F0CB
:10282000A61BB70B881F991F5A95A9F780959095FD
:10283000BC01CD0108952F923F924F925F926F920B
:102840007F928F929F92AF92BF92CF92DF92EF9240
:10285000FF920F931F93CF93DF93CDB7DEB7CA1BC1
:10286000DB0B0FB6F894DEBF0FBECDBF09942A88EC
:10287000398848885F846E847D848C849B84AA8494
:10288000B984C884DF80EE80FD800C811B81AA8121
:10289000B981CE0FD11D0FB6F894DEBF0FBECDBFEC
:1028A000ED010895FB019F01E8944230C4F04532E8
:1028B000B4F44A3029F497FB1EF4909581959F4F0C
:1028C000642F77270E940714805D8A330CF0895D9E
:1028D0008193CB010097A1F716F45DE2519310822A
:1028E000C9010C947314DC01FC01672F71917723EB
:1028F000E1F7329704C07C916D9370836291AE17BB
:0A290000BF07C8F30895F894FFCF55
:10290A0020524F4F4D31204F4E0020524F4F4D31E4
:10291A00205475726E656420004F46460020524F5F
:10292A004F4D32205475726E6564204F6E002052EE
:10293A004F4F4D32205475726E6564200020524FFD
:10294A004F4D33205475726E6564204F6E002052CD
:10295A004F4F4D33205475726E6564200020524FDC
:10296A004F4D34205475726E6564204F6E002052AC
:10297A004F4F4D34205475726E65642000205456B2
:10298A00205475726E6564204F6E00205456205490
:10299A0075726E6564206F666600202063686563E1
:1029AA006B20726F6F6D200054656D7020666972BE
:1029BA0073740020526F6F6D2054656D703D004432
:1029CA006573697265642054454D503D0020416924
:1029DA007220636F6E646974696F6E200054757239
:1029EA006E6564204F6E200020524F4F4D20546573
:1029FA006D70203C3D00636F6E646974696F6E6927
:102A0A006E67204F464620002061697220636F6E10
:102A1A00646974696F6E2000205475726E65642053
:0E2A2A006F6666200000000000000000000043
:00000001FF
